{
  "address": "0xF24218BfDF0A16f1DcbED1EDD28b2Ef2F2DcA0Df",
  "abi": [
    {
      "inputs": [
        {
          "internalType": "address",
          "name": "_owner",
          "type": "address"
        },
        {
          "internalType": "address",
          "name": "_token",
          "type": "address"
        },
        {
          "internalType": "address",
          "name": "_rewardEscrow",
          "type": "address"
        }
      ],
      "stateMutability": "nonpayable",
      "type": "constructor"
    },
    {
      "anonymous": false,
      "inputs": [
        {
          "indexed": false,
          "internalType": "uint256",
          "name": "index",
          "type": "uint256"
        },
        {
          "indexed": false,
          "internalType": "address",
          "name": "account",
          "type": "address"
        },
        {
          "indexed": false,
          "internalType": "uint256",
          "name": "amount",
          "type": "uint256"
        },
        {
          "indexed": false,
          "internalType": "uint256",
          "name": "epoch",
          "type": "uint256"
        }
      ],
      "name": "Claimed",
      "type": "event"
    },
    {
      "anonymous": false,
      "inputs": [
        {
          "indexed": false,
          "internalType": "uint256",
          "name": "epoch",
          "type": "uint256"
        }
      ],
      "name": "MerkleRootModified",
      "type": "event"
    },
    {
      "anonymous": false,
      "inputs": [
        {
          "indexed": false,
          "internalType": "address",
          "name": "oldOwner",
          "type": "address"
        },
        {
          "indexed": false,
          "internalType": "address",
          "name": "newOwner",
          "type": "address"
        }
      ],
      "name": "OwnerChanged",
      "type": "event"
    },
    {
      "anonymous": false,
      "inputs": [
        {
          "indexed": false,
          "internalType": "address",
          "name": "newOwner",
          "type": "address"
        }
      ],
      "name": "OwnerNominated",
      "type": "event"
    },
    {
      "inputs": [],
      "name": "acceptOwnership",
      "outputs": [],
      "stateMutability": "nonpayable",
      "type": "function"
    },
    {
      "inputs": [
        {
          "internalType": "uint256",
          "name": "index",
          "type": "uint256"
        },
        {
          "internalType": "address",
          "name": "account",
          "type": "address"
        },
        {
          "internalType": "uint256",
          "name": "amount",
          "type": "uint256"
        },
        {
          "internalType": "bytes32[]",
          "name": "merkleProof",
          "type": "bytes32[]"
        },
        {
          "internalType": "uint256",
          "name": "epoch",
          "type": "uint256"
        }
      ],
      "name": "claim",
      "outputs": [],
      "stateMutability": "nonpayable",
      "type": "function"
    },
    {
      "inputs": [
        {
          "components": [
            {
              "internalType": "uint256",
              "name": "index",
              "type": "uint256"
            },
            {
              "internalType": "address",
              "name": "account",
              "type": "address"
            },
            {
              "internalType": "uint256",
              "name": "amount",
              "type": "uint256"
            },
            {
              "internalType": "bytes32[]",
              "name": "merkleProof",
              "type": "bytes32[]"
            },
            {
              "internalType": "uint256",
              "name": "epoch",
              "type": "uint256"
            }
          ],
          "internalType": "struct IEscrowedMultipleMerkleDistributor.Claims[]",
          "name": "claims",
          "type": "tuple[]"
        }
      ],
      "name": "claimMultiple",
      "outputs": [],
      "stateMutability": "nonpayable",
      "type": "function"
    },
    {
      "inputs": [
        {
          "internalType": "uint256",
          "name": "index",
          "type": "uint256"
        },
        {
          "internalType": "uint256",
          "name": "epoch",
          "type": "uint256"
        }
      ],
      "name": "isClaimed",
      "outputs": [
        {
          "internalType": "bool",
          "name": "",
          "type": "bool"
        }
      ],
      "stateMutability": "view",
      "type": "function"
    },
    {
      "inputs": [
        {
          "internalType": "uint256",
          "name": "",
          "type": "uint256"
        }
      ],
      "name": "merkleRoots",
      "outputs": [
        {
          "internalType": "bytes32",
          "name": "",
          "type": "bytes32"
        }
      ],
      "stateMutability": "view",
      "type": "function"
    },
    {
      "inputs": [
        {
          "internalType": "address",
          "name": "_owner",
          "type": "address"
        }
      ],
      "name": "nominateNewOwner",
      "outputs": [],
      "stateMutability": "nonpayable",
      "type": "function"
    },
    {
      "inputs": [],
      "name": "nominatedOwner",
      "outputs": [
        {
          "internalType": "address",
          "name": "",
          "type": "address"
        }
      ],
      "stateMutability": "view",
      "type": "function"
    },
    {
      "inputs": [],
      "name": "owner",
      "outputs": [
        {
          "internalType": "address",
          "name": "",
          "type": "address"
        }
      ],
      "stateMutability": "view",
      "type": "function"
    },
    {
      "inputs": [],
      "name": "rewardEscrow",
      "outputs": [
        {
          "internalType": "address",
          "name": "",
          "type": "address"
        }
      ],
      "stateMutability": "view",
      "type": "function"
    },
    {
      "inputs": [
        {
          "internalType": "bytes32",
          "name": "merkleRoot",
          "type": "bytes32"
        },
        {
          "internalType": "uint256",
          "name": "epoch",
          "type": "uint256"
        }
      ],
      "name": "setMerkleRootForEpoch",
      "outputs": [],
      "stateMutability": "nonpayable",
      "type": "function"
    },
    {
      "inputs": [],
      "name": "token",
      "outputs": [
        {
          "internalType": "address",
          "name": "",
          "type": "address"
        }
      ],
      "stateMutability": "view",
      "type": "function"
    }
  ],
  "numDeployments": 1,
  "solcInputHash": "62b4592f8cdf474bfe54efaebacb5555",
  "bytecode": "0x60c060405234801561001057600080fd5b50604051610f48380380610f4883398101604081905261002f91610116565b826001600160a01b03811661008a5760405162461bcd60e51b815260206004820152601960248201527f4f776e657220616464726573732063616e6e6f74206265203000000000000000604482015260640160405180910390fd5b600080546001600160a01b0319166001600160a01b03831690811782556040805192835260208301919091527fb532073b38c83145e3e5135377a08bf9aab55bc0fd7c1179cd4fb995d2a5159c910160405180910390a1506001600160a01b0391821660a0521660805250610159565b80516001600160a01b038116811461011157600080fd5b919050565b60008060006060848603121561012b57600080fd5b610134846100fa565b9250610142602085016100fa565b9150610150604085016100fa565b90509250925092565b60805160a051610da76101a1600039600081816101e4015261065f01526000818161016101528181610630015281816106cf0152818161070001526107820152610da76000f3fe608060405234801561001057600080fd5b50600436106100c95760003560e01c8063a430be6c11610081578063d0b55e8c1161005b578063d0b55e8c146101a9578063f364c90c146101bc578063fc0c546a146101df57600080fd5b8063a430be6c1461015c578063ab5943db14610183578063c02bb7ba1461019657600080fd5b806371c5ecb1116100b257806371c5ecb11461011357806379ba5097146101415780638da5cb5b1461014957600080fd5b80631627540c146100ce57806353a47bb7146100e3575b600080fd5b6100e16100dc366004610afd565b610206565b005b6001546100f6906001600160a01b031681565b6040516001600160a01b0390911681526020015b60405180910390f35b610133610121366004610b18565b60026020526000908152604090205481565b60405190815260200161010a565b6100e161026f565b6000546100f6906001600160a01b031681565b6100f67f000000000000000000000000000000000000000000000000000000000000000081565b6100e1610191366004610b7d565b610373565b6100e16101a4366004610bbf565b610471565b6100e16101b7366004610c2f565b6108df565b6101cf6101ca366004610c2f565b610936565b604051901515815260200161010a565b6100f67f000000000000000000000000000000000000000000000000000000000000000081565b61020e610981565b6001805473ffffffffffffffffffffffffffffffffffffffff19166001600160a01b0383169081179091556040519081527f906a1c6bd7e3091ea86693dd029a831c19049ce77f1dce2ce0bab1cacbabce229060200160405180910390a150565b6001546001600160a01b031633146102f45760405162461bcd60e51b815260206004820152603560248201527f596f75206d757374206265206e6f6d696e61746564206265666f726520796f7560448201527f2063616e20616363657074206f776e657273686970000000000000000000000060648201526084015b60405180910390fd5b600054600154604080516001600160a01b0393841681529290911660208301527fb532073b38c83145e3e5135377a08bf9aab55bc0fd7c1179cd4fb995d2a5159c910160405180910390a1600180546000805473ffffffffffffffffffffffffffffffffffffffff199081166001600160a01b03841617909155169055565b8060005b8181101561046b5761046384848381811061039457610394610c51565b90506020028101906103a69190610c67565b358585848181106103b9576103b9610c51565b90506020028101906103cb9190610c67565b6103dc906040810190602001610afd565b8686858181106103ee576103ee610c51565b90506020028101906104009190610c67565b6040013587878681811061041657610416610c51565b90506020028101906104289190610c67565b610436906060810190610c87565b89898881811061044857610448610c51565b905060200281019061045a9190610c67565b60800135610471565b600101610377565b50505050565b61047b8682610936565b156104ee5760405162461bcd60e51b815260206004820152603860248201527f457363726f7765644d756c7469706c654d65726b6c654469737472696275746f60448201527f723a2044726f7020616c726561647920636c61696d65642e000000000000000060648201526084016102eb565b60408051602081018890526bffffffffffffffffffffffff19606088901b1691810191909152605481018590526000906074016040516020818303038152906040528051906020012090506105848484808060200260200160405190810160405280939291908181526020018383602002808284376000920182905250878152600260205260409020549250859150610a039050565b6105f65760405162461bcd60e51b815260206004820152603160248201527f457363726f7765644d756c7469706c654d65726b6c654469737472696275746f60448201527f723a20496e76616c69642070726f6f662e00000000000000000000000000000060648201526084016102eb565b6106008783610a19565b6040517f095ea7b30000000000000000000000000000000000000000000000000000000081526001600160a01b037f000000000000000000000000000000000000000000000000000000000000000081166004830152602482018790527f0000000000000000000000000000000000000000000000000000000000000000169063095ea7b3906044016020604051808303816000875af11580156106a8573d6000803e3d6000fd5b505050506040513d601f19601f820116820180604052508101906106cc9190610cd1565b507f00000000000000000000000000000000000000000000000000000000000000006001600160a01b03166318c1cb5287877f00000000000000000000000000000000000000000000000000000000000000006001600160a01b031663c297fa0f6040518163ffffffff1660e01b8152600401602060405180830381865afa15801561075c573d6000803e3d6000fd5b505050506040513d601f19601f820116820180604052508101906107809190610cf3565b7f00000000000000000000000000000000000000000000000000000000000000006001600160a01b0316637d5ff94d6040518163ffffffff1660e01b8152600401602060405180830381865afa1580156107de573d6000803e3d6000fd5b505050506040513d601f19601f820116820180604052508101906108029190610cf3565b6040517fffffffff0000000000000000000000000000000000000000000000000000000060e087901b1681526001600160a01b039094166004850152602484019290925260448301526064820152608401600060405180830381600087803b15801561086d57600080fd5b505af1158015610881573d6000803e3d6000fd5b5050604080518a81526001600160a01b038a166020820152908101889052606081018590527fd9cb1e2714d65a111c0f20f060176ad657496bd47a3de04ec7c3d4ca232112ac9250608001905060405180910390a150505050505050565b6108e7610981565b60008181526002602052604090819020839055517f7835b531ba83151bc18466c9b0ab4b168056cb422098530a34952b03f87ba5199061092a9083815260200190565b60405180910390a15050565b60008061094561010085610d22565b9050600061095561010086610d36565b60009485526003602090815260408087209487529390529190932054600190911b908116149392505050565b6000546001600160a01b03163314610a015760405162461bcd60e51b815260206004820152602f60248201527f4f6e6c792074686520636f6e7472616374206f776e6572206d6179207065726660448201527f6f726d207468697320616374696f6e000000000000000000000000000000000060648201526084016102eb565b565b600082610a108584610a62565b14949350505050565b6000610a2761010084610d22565b90506000610a3761010085610d36565b6000938452600360209081526040808620948652939052919092208054600190921b90911790555050565b600081815b8451811015610aa757610a9382868381518110610a8657610a86610c51565b6020026020010151610aaf565b915080610a9f81610d4a565b915050610a67565b509392505050565b6000818310610acb576000828152602084905260409020610ada565b60008381526020839052604090205b9392505050565b80356001600160a01b0381168114610af857600080fd5b919050565b600060208284031215610b0f57600080fd5b610ada82610ae1565b600060208284031215610b2a57600080fd5b5035919050565b60008083601f840112610b4357600080fd5b50813567ffffffffffffffff811115610b5b57600080fd5b6020830191508360208260051b8501011115610b7657600080fd5b9250929050565b60008060208385031215610b9057600080fd5b823567ffffffffffffffff811115610ba757600080fd5b610bb385828601610b31565b90969095509350505050565b60008060008060008060a08789031215610bd857600080fd5b86359550610be860208801610ae1565b945060408701359350606087013567ffffffffffffffff811115610c0b57600080fd5b610c1789828a01610b31565b979a9699509497949695608090950135949350505050565b60008060408385031215610c4257600080fd5b50508035926020909101359150565b634e487b7160e01b600052603260045260246000fd5b60008235609e19833603018112610c7d57600080fd5b9190910192915050565b6000808335601e19843603018112610c9e57600080fd5b83018035915067ffffffffffffffff821115610cb957600080fd5b6020019150600581901b3603821315610b7657600080fd5b600060208284031215610ce357600080fd5b81518015158114610ada57600080fd5b600060208284031215610d0557600080fd5b5051919050565b634e487b7160e01b600052601260045260246000fd5b600082610d3157610d31610d0c565b500490565b600082610d4557610d45610d0c565b500690565b600060018201610d6a57634e487b7160e01b600052601160045260246000fd5b506001019056fea2646970667358221220a38b4683f2c92653433a695e4df557212cd99146933583ec40bc5d36f3cbc2b564736f6c63430008130033",
  "devdoc": {
    "author": "JaredBorders and JChiaramonte7",
    "kind": "dev",
    "methods": {
      "claim(uint256,address,uint256,bytes32[],uint256)": {
        "params": {
          "account": ": address used for escrow entry",
          "amount": ": $KWENTA amount to be escrowed",
          "epoch": ": distribution index number",
          "index": ": used for merkle tree managment and verification",
          "merkleProof": ": off-chain generated proof of merkle tree inclusion"
        }
      },
      "claimMultiple((uint256,address,uint256,bytes32[],uint256)[])": {
        "params": {
          "claims": ": array of valid claims"
        }
      },
      "constructor": {
        "params": {
          "_owner": ": designated owner of this contract",
          "_rewardEscrow": ": address of kwenta escrow for tokens claimed",
          "_token": ": address of erc20 token to be distributed"
        }
      },
      "isClaimed(uint256,uint256)": {
        "params": {
          "epoch": ": distribution index number",
          "index": ": used for claim managment"
        },
        "returns": {
          "_0": "true if indexed claim has been claimed"
        }
      },
      "setMerkleRootForEpoch(bytes32,uint256)": {
        "params": {
          "epoch": ": distribution index number",
          "merkleRoot": ": new merkle root"
        }
      }
    },
    "stateVariables": {
      "rewardEscrow": {
        "return": "escrow for tokens claimed",
        "returns": {
          "_0": "escrow for tokens claimed"
        }
      },
      "token": {
        "return": "token to be distributed (KWENTA)",
        "returns": {
          "_0": "token to be distributed (KWENTA)"
        }
      }
    },
    "title": "Kwenta EscrowedMultipleMerkleDistributor",
    "version": 1
  },
  "userdoc": {
    "events": {
      "Claimed(uint256,address,uint256,uint256)": {
        "notice": "event is triggered whenever a call to `claim` succeeds"
      },
      "MerkleRootModified(uint256)": {
        "notice": "event is triggered whenever a merkle root is set"
      }
    },
    "kind": "user",
    "methods": {
      "claim(uint256,address,uint256,bytes32[],uint256)": {
        "notice": "attempt to claim as `account` and escrow KWENTA for `account`"
      },
      "claimMultiple((uint256,address,uint256,bytes32[],uint256)[])": {
        "notice": "function that aggregates multiple claims"
      },
      "constructor": {
        "notice": "set addresses for deployed rewardEscrow and KWENTA. Establish merkle root for verification"
      },
      "isClaimed(uint256,uint256)": {
        "notice": "determine if indexed claim has been claimed"
      },
      "setMerkleRootForEpoch(bytes32,uint256)": {
        "notice": "modify merkle root for existing distribution epoch"
      }
    },
    "notice": "Facilitates trading incentives distribution over multiple periods.",
    "version": 1
  },
  "storageLayout": {
    "storage": [
      {
        "astId": 1314,
        "contract": "contracts/EscrowedMultipleMerkleDistributor.sol:EscrowedMultipleMerkleDistributor",
        "label": "owner",
        "offset": 0,
        "slot": "0",
        "type": "t_address"
      },
      {
        "astId": 1316,
        "contract": "contracts/EscrowedMultipleMerkleDistributor.sol:EscrowedMultipleMerkleDistributor",
        "label": "nominatedOwner",
        "offset": 0,
        "slot": "1",
        "type": "t_address"
      },
      {
        "astId": 661,
        "contract": "contracts/EscrowedMultipleMerkleDistributor.sol:EscrowedMultipleMerkleDistributor",
        "label": "merkleRoots",
        "offset": 0,
        "slot": "2",
        "type": "t_mapping(t_uint256,t_bytes32)"
      },
      {
        "astId": 668,
        "contract": "contracts/EscrowedMultipleMerkleDistributor.sol:EscrowedMultipleMerkleDistributor",
        "label": "claimedBitMaps",
        "offset": 0,
        "slot": "3",
        "type": "t_mapping(t_uint256,t_mapping(t_uint256,t_uint256))"
      }
    ],
    "types": {
      "t_address": {
        "encoding": "inplace",
        "label": "address",
        "numberOfBytes": "20"
      },
      "t_bytes32": {
        "encoding": "inplace",
        "label": "bytes32",
        "numberOfBytes": "32"
      },
      "t_mapping(t_uint256,t_bytes32)": {
        "encoding": "mapping",
        "key": "t_uint256",
        "label": "mapping(uint256 => bytes32)",
        "numberOfBytes": "32",
        "value": "t_bytes32"
      },
      "t_mapping(t_uint256,t_mapping(t_uint256,t_uint256))": {
        "encoding": "mapping",
        "key": "t_uint256",
        "label": "mapping(uint256 => mapping(uint256 => uint256))",
        "numberOfBytes": "32",
        "value": "t_mapping(t_uint256,t_uint256)"
      },
      "t_mapping(t_uint256,t_uint256)": {
        "encoding": "mapping",
        "key": "t_uint256",
        "label": "mapping(uint256 => uint256)",
        "numberOfBytes": "32",
        "value": "t_uint256"
      },
      "t_uint256": {
        "encoding": "inplace",
        "label": "uint256",
        "numberOfBytes": "32"
      }
    }
  }
}