{
  "address": "0x1653A3A3c4cceE0538685F1600a30dF5E3EE830A",
  "abi": [
    {
      "inputs": [
        {
          "internalType": "address",
          "name": "_token",
          "type": "address"
        },
        {
          "internalType": "address",
          "name": "_rewardEscrow",
          "type": "address"
        },
        {
          "internalType": "address",
          "name": "_supplySchedule",
          "type": "address"
        }
      ],
      "stateMutability": "nonpayable",
      "type": "constructor"
    },
    {
      "anonymous": false,
      "inputs": [
        {
          "indexed": true,
          "internalType": "address",
          "name": "user",
          "type": "address"
        },
        {
          "indexed": false,
          "internalType": "uint256",
          "name": "amount",
          "type": "uint256"
        }
      ],
      "name": "EscrowStaked",
      "type": "event"
    },
    {
      "anonymous": false,
      "inputs": [
        {
          "indexed": false,
          "internalType": "address",
          "name": "user",
          "type": "address"
        },
        {
          "indexed": false,
          "internalType": "uint256",
          "name": "amount",
          "type": "uint256"
        }
      ],
      "name": "EscrowUnstaked",
      "type": "event"
    },
    {
      "anonymous": false,
      "inputs": [
        {
          "indexed": false,
          "internalType": "address",
          "name": "oldOwner",
          "type": "address"
        },
        {
          "indexed": false,
          "internalType": "address",
          "name": "newOwner",
          "type": "address"
        }
      ],
      "name": "OwnerChanged",
      "type": "event"
    },
    {
      "anonymous": false,
      "inputs": [
        {
          "indexed": false,
          "internalType": "address",
          "name": "newOwner",
          "type": "address"
        }
      ],
      "name": "OwnerNominated",
      "type": "event"
    },
    {
      "anonymous": false,
      "inputs": [
        {
          "indexed": false,
          "internalType": "address",
          "name": "account",
          "type": "address"
        }
      ],
      "name": "Paused",
      "type": "event"
    },
    {
      "anonymous": false,
      "inputs": [
        {
          "indexed": false,
          "internalType": "address",
          "name": "token",
          "type": "address"
        },
        {
          "indexed": false,
          "internalType": "uint256",
          "name": "amount",
          "type": "uint256"
        }
      ],
      "name": "Recovered",
      "type": "event"
    },
    {
      "anonymous": false,
      "inputs": [
        {
          "indexed": false,
          "internalType": "uint256",
          "name": "reward",
          "type": "uint256"
        }
      ],
      "name": "RewardAdded",
      "type": "event"
    },
    {
      "anonymous": false,
      "inputs": [
        {
          "indexed": true,
          "internalType": "address",
          "name": "user",
          "type": "address"
        },
        {
          "indexed": false,
          "internalType": "uint256",
          "name": "reward",
          "type": "uint256"
        }
      ],
      "name": "RewardPaid",
      "type": "event"
    },
    {
      "anonymous": false,
      "inputs": [
        {
          "indexed": false,
          "internalType": "uint256",
          "name": "newDuration",
          "type": "uint256"
        }
      ],
      "name": "RewardsDurationUpdated",
      "type": "event"
    },
    {
      "anonymous": false,
      "inputs": [
        {
          "indexed": true,
          "internalType": "address",
          "name": "user",
          "type": "address"
        },
        {
          "indexed": false,
          "internalType": "uint256",
          "name": "amount",
          "type": "uint256"
        }
      ],
      "name": "Staked",
      "type": "event"
    },
    {
      "anonymous": false,
      "inputs": [
        {
          "indexed": false,
          "internalType": "address",
          "name": "account",
          "type": "address"
        }
      ],
      "name": "Unpaused",
      "type": "event"
    },
    {
      "anonymous": false,
      "inputs": [
        {
          "indexed": true,
          "internalType": "address",
          "name": "user",
          "type": "address"
        },
        {
          "indexed": false,
          "internalType": "uint256",
          "name": "amount",
          "type": "uint256"
        }
      ],
      "name": "Unstaked",
      "type": "event"
    },
    {
      "inputs": [],
      "name": "_totalSupply",
      "outputs": [
        {
          "internalType": "uint256",
          "name": "",
          "type": "uint256"
        }
      ],
      "stateMutability": "view",
      "type": "function"
    },
    {
      "inputs": [],
      "name": "acceptOwnership",
      "outputs": [],
      "stateMutability": "nonpayable",
      "type": "function"
    },
    {
      "inputs": [
        {
          "internalType": "address",
          "name": "account",
          "type": "address"
        }
      ],
      "name": "balanceOf",
      "outputs": [
        {
          "internalType": "uint256",
          "name": "",
          "type": "uint256"
        }
      ],
      "stateMutability": "view",
      "type": "function"
    },
    {
      "inputs": [
        {
          "internalType": "address",
          "name": "account",
          "type": "address"
        }
      ],
      "name": "earned",
      "outputs": [
        {
          "internalType": "uint256",
          "name": "",
          "type": "uint256"
        }
      ],
      "stateMutability": "view",
      "type": "function"
    },
    {
      "inputs": [
        {
          "internalType": "address",
          "name": "account",
          "type": "address"
        }
      ],
      "name": "escrowedBalanceOf",
      "outputs": [
        {
          "internalType": "uint256",
          "name": "",
          "type": "uint256"
        }
      ],
      "stateMutability": "view",
      "type": "function"
    },
    {
      "inputs": [],
      "name": "exit",
      "outputs": [],
      "stateMutability": "nonpayable",
      "type": "function"
    },
    {
      "inputs": [],
      "name": "getReward",
      "outputs": [],
      "stateMutability": "nonpayable",
      "type": "function"
    },
    {
      "inputs": [],
      "name": "getRewardForDuration",
      "outputs": [
        {
          "internalType": "uint256",
          "name": "",
          "type": "uint256"
        }
      ],
      "stateMutability": "view",
      "type": "function"
    },
    {
      "inputs": [],
      "name": "lastTimeRewardApplicable",
      "outputs": [
        {
          "internalType": "uint256",
          "name": "",
          "type": "uint256"
        }
      ],
      "stateMutability": "view",
      "type": "function"
    },
    {
      "inputs": [],
      "name": "lastUpdateTime",
      "outputs": [
        {
          "internalType": "uint256",
          "name": "",
          "type": "uint256"
        }
      ],
      "stateMutability": "view",
      "type": "function"
    },
    {
      "inputs": [
        {
          "internalType": "address",
          "name": "_owner",
          "type": "address"
        }
      ],
      "name": "nominateNewOwner",
      "outputs": [],
      "stateMutability": "nonpayable",
      "type": "function"
    },
    {
      "inputs": [],
      "name": "nominatedOwner",
      "outputs": [
        {
          "internalType": "address",
          "name": "",
          "type": "address"
        }
      ],
      "stateMutability": "view",
      "type": "function"
    },
    {
      "inputs": [
        {
          "internalType": "address",
          "name": "account",
          "type": "address"
        }
      ],
      "name": "nonEscrowedBalanceOf",
      "outputs": [
        {
          "internalType": "uint256",
          "name": "",
          "type": "uint256"
        }
      ],
      "stateMutability": "view",
      "type": "function"
    },
    {
      "inputs": [
        {
          "internalType": "uint256",
          "name": "reward",
          "type": "uint256"
        }
      ],
      "name": "notifyRewardAmount",
      "outputs": [],
      "stateMutability": "nonpayable",
      "type": "function"
    },
    {
      "inputs": [],
      "name": "owner",
      "outputs": [
        {
          "internalType": "address",
          "name": "",
          "type": "address"
        }
      ],
      "stateMutability": "view",
      "type": "function"
    },
    {
      "inputs": [],
      "name": "pauseStakingRewards",
      "outputs": [],
      "stateMutability": "nonpayable",
      "type": "function"
    },
    {
      "inputs": [],
      "name": "paused",
      "outputs": [
        {
          "internalType": "bool",
          "name": "",
          "type": "bool"
        }
      ],
      "stateMutability": "view",
      "type": "function"
    },
    {
      "inputs": [],
      "name": "periodFinish",
      "outputs": [
        {
          "internalType": "uint256",
          "name": "",
          "type": "uint256"
        }
      ],
      "stateMutability": "view",
      "type": "function"
    },
    {
      "inputs": [
        {
          "internalType": "address",
          "name": "tokenAddress",
          "type": "address"
        },
        {
          "internalType": "uint256",
          "name": "tokenAmount",
          "type": "uint256"
        }
      ],
      "name": "recoverERC20",
      "outputs": [],
      "stateMutability": "nonpayable",
      "type": "function"
    },
    {
      "inputs": [],
      "name": "rewardEscrow",
      "outputs": [
        {
          "internalType": "contract IRewardEscrow",
          "name": "",
          "type": "address"
        }
      ],
      "stateMutability": "view",
      "type": "function"
    },
    {
      "inputs": [],
      "name": "rewardPerToken",
      "outputs": [
        {
          "internalType": "uint256",
          "name": "",
          "type": "uint256"
        }
      ],
      "stateMutability": "view",
      "type": "function"
    },
    {
      "inputs": [],
      "name": "rewardPerTokenStored",
      "outputs": [
        {
          "internalType": "uint256",
          "name": "",
          "type": "uint256"
        }
      ],
      "stateMutability": "view",
      "type": "function"
    },
    {
      "inputs": [],
      "name": "rewardRate",
      "outputs": [
        {
          "internalType": "uint256",
          "name": "",
          "type": "uint256"
        }
      ],
      "stateMutability": "view",
      "type": "function"
    },
    {
      "inputs": [
        {
          "internalType": "address",
          "name": "",
          "type": "address"
        }
      ],
      "name": "rewards",
      "outputs": [
        {
          "internalType": "uint256",
          "name": "",
          "type": "uint256"
        }
      ],
      "stateMutability": "view",
      "type": "function"
    },
    {
      "inputs": [],
      "name": "rewardsDuration",
      "outputs": [
        {
          "internalType": "uint256",
          "name": "",
          "type": "uint256"
        }
      ],
      "stateMutability": "view",
      "type": "function"
    },
    {
      "inputs": [
        {
          "internalType": "uint256",
          "name": "_rewardsDuration",
          "type": "uint256"
        }
      ],
      "name": "setRewardsDuration",
      "outputs": [],
      "stateMutability": "nonpayable",
      "type": "function"
    },
    {
      "inputs": [
        {
          "internalType": "uint256",
          "name": "amount",
          "type": "uint256"
        }
      ],
      "name": "stake",
      "outputs": [],
      "stateMutability": "nonpayable",
      "type": "function"
    },
    {
      "inputs": [
        {
          "internalType": "address",
          "name": "account",
          "type": "address"
        },
        {
          "internalType": "uint256",
          "name": "amount",
          "type": "uint256"
        }
      ],
      "name": "stakeEscrow",
      "outputs": [],
      "stateMutability": "nonpayable",
      "type": "function"
    },
    {
      "inputs": [],
      "name": "supplySchedule",
      "outputs": [
        {
          "internalType": "contract ISupplySchedule",
          "name": "",
          "type": "address"
        }
      ],
      "stateMutability": "view",
      "type": "function"
    },
    {
      "inputs": [],
      "name": "token",
      "outputs": [
        {
          "internalType": "contract IERC20",
          "name": "",
          "type": "address"
        }
      ],
      "stateMutability": "view",
      "type": "function"
    },
    {
      "inputs": [],
      "name": "totalSupply",
      "outputs": [
        {
          "internalType": "uint256",
          "name": "",
          "type": "uint256"
        }
      ],
      "stateMutability": "view",
      "type": "function"
    },
    {
      "inputs": [],
      "name": "unpauseStakingRewards",
      "outputs": [],
      "stateMutability": "nonpayable",
      "type": "function"
    },
    {
      "inputs": [
        {
          "internalType": "uint256",
          "name": "amount",
          "type": "uint256"
        }
      ],
      "name": "unstake",
      "outputs": [],
      "stateMutability": "nonpayable",
      "type": "function"
    },
    {
      "inputs": [
        {
          "internalType": "address",
          "name": "account",
          "type": "address"
        },
        {
          "internalType": "uint256",
          "name": "amount",
          "type": "uint256"
        }
      ],
      "name": "unstakeEscrow",
      "outputs": [],
      "stateMutability": "nonpayable",
      "type": "function"
    },
    {
      "inputs": [
        {
          "internalType": "address",
          "name": "",
          "type": "address"
        }
      ],
      "name": "userRewardPerTokenPaid",
      "outputs": [
        {
          "internalType": "uint256",
          "name": "",
          "type": "uint256"
        }
      ],
      "stateMutability": "view",
      "type": "function"
    }
  ],
  "numDeployments": 1,
  "solcInputHash": "3990c3d4142c2dc08509d947ae015fb8",
  "bytecode": "0x60e06040526000600655600060075562093a806008553480156200002257600080fd5b506040516200378b3803806200378b833981810160405281019062000048919062000221565b33600073ffffffffffffffffffffffffffffffffffffffff168173ffffffffffffffffffffffffffffffffffffffff161415620000bc576040517f08c379a0000000000000000000000000000000000000000000000000000000008152600401620000b390620002e2565b60405180910390fd5b806000806101000a81548173ffffffffffffffffffffffffffffffffffffffff021916908373ffffffffffffffffffffffffffffffffffffffff1602179055507fb532073b38c83145e3e5135377a08bf9aab55bc0fd7c1179cd4fb995d2a5159c60008260405162000130929190620002b5565b60405180910390a15060016002819055506000600360006101000a81548160ff0219169083151502179055508273ffffffffffffffffffffffffffffffffffffffff1660808173ffffffffffffffffffffffffffffffffffffffff1660601b815250508173ffffffffffffffffffffffffffffffffffffffff1660a08173ffffffffffffffffffffffffffffffffffffffff1660601b815250508073ffffffffffffffffffffffffffffffffffffffff1660c08173ffffffffffffffffffffffffffffffffffffffff1660601b8152505050505062000391565b6000815190506200021b8162000377565b92915050565b6000806000606084860312156200023d576200023c62000349565b5b60006200024d868287016200020a565b935050602062000260868287016200020a565b925050604062000273868287016200020a565b9150509250925092565b620002888162000315565b82525050565b60006200029d60198362000304565b9150620002aa826200034e565b602082019050919050565b6000604082019050620002cc60008301856200027d565b620002db60208301846200027d565b9392505050565b60006020820190508181036000830152620002fd816200028e565b9050919050565b600082825260208201905092915050565b6000620003228262000329565b9050919050565b600073ffffffffffffffffffffffffffffffffffffffff82169050919050565b600080fd5b7f4f776e657220616464726573732063616e6e6f74206265203000000000000000600082015250565b620003828162000315565b81146200038e57600080fd5b50565b60805160601c60a05160601c60c05160601c6133826200040960003960008181610b080152611acd015260008181610efe01528181610f660152818161150b015281816117d80152611b43015260008181610a6201528181610f200152818161135e01528181611a2c0152611fa601526133826000f3fe608060405234801561001057600080fd5b50600436106102105760003560e01c80637b0a47ee11610125578063c40dd66f116100ad578063cd3daf9d1161007c578063cd3daf9d146105a5578063df136d65146105c3578063e9fad8ee146105e1578063ebe2b12b146105eb578063fc0c546a1461060957610210565b8063c40dd66f14610531578063c8f33c911461054f578063c9c7da161461056d578063cc1a378f1461058957610210565b80638b876347116100f45780638b8763471461048d5780638da5cb5b146104bd578063985134fb146104db578063a430be6c146104f7578063a694fc3a1461051557610210565b80637b0a47ee1461042b57806380faa57d146104495780638980f11f1461046757806389997f9a1461048357610210565b80633c6b16ab116101a857806353a47bb71161017757806353a47bb7146103ab5780635c975abb146103c95780636079916f146103e757806370a08231146103f157806379ba50971461042157610210565b80633c6b16ab146103375780633d18b912146103535780633eaaf86b1461035d578063514a16c91461037b57610210565b806318160ddd116101e457806318160ddd146102c15780631c1f78eb146102df5780632e17de78146102fd578063386a95251461031957610210565b80628cc26214610215578063057a601b146102455780630700037d146102755780631627540c146102a5575b600080fd5b61022f600480360381019061022a9190612560565b610627565b60405161023c9190612c67565b60405180910390f35b61025f600480360381019061025a9190612560565b610729565b60405161026c9190612c67565b60405180910390f35b61028f600480360381019061028a9190612560565b610772565b60405161029c9190612c67565b60405180910390f35b6102bf60048036038101906102ba9190612560565b61078a565b005b6102c961080d565b6040516102d69190612c67565b60405180910390f35b6102e7610817565b6040516102f49190612c67565b60405180910390f35b610317600480360381019061031291906125fa565b61082e565b005b610321610b00565b60405161032e9190612c67565b60405180910390f35b610351600480360381019061034c91906125fa565b610b06565b005b61035b610d37565b005b610365611052565b6040516103729190612c67565b60405180910390f35b61039560048036038101906103909190612560565b611058565b6040516103a29190612c67565b60405180910390f35b6103b36110eb565b6040516103c0919061291e565b60405180910390f35b6103d1611111565b6040516103de91906129f9565b60405180910390f35b6103ef611128565b005b61040b60048036038101906104069190612560565b61113a565b6040516104189190612c67565b60405180910390f35b610429611183565b005b610433611334565b6040516104409190612c67565b60405180910390f35b61045161133a565b60405161045e9190612c67565b60405180910390f35b610481600480360381019061047c919061258d565b611354565b005b61048b611473565b005b6104a760048036038101906104a29190612560565b611485565b6040516104b49190612c67565b60405180910390f35b6104c561149d565b6040516104d2919061291e565b60405180910390f35b6104f560048036038101906104f0919061258d565b6114c1565b005b6104ff6117d6565b60405161050c9190612a2f565b60405180910390f35b61052f600480360381019061052a91906125fa565b6117fa565b005b610539611acb565b6040516105469190612a4a565b60405180910390f35b610557611aef565b6040516105649190612c67565b60405180910390f35b6105876004803603810190610582919061258d565b611af5565b005b6105a3600480360381019061059e91906125fa565b611e83565b005b6105ad611f12565b6040516105ba9190612c67565b60405180910390f35b6105cb611f7d565b6040516105d89190612c67565b60405180910390f35b6105e9611f83565b005b6105f3611f9e565b6040516106009190612c67565b60405180910390f35b610611611fa4565b60405161061e9190612a14565b60405180910390f35b6000600d60008373ffffffffffffffffffffffffffffffffffffffff1673ffffffffffffffffffffffffffffffffffffffff16815260200190815260200160002054670de0b6b3a7640000600c60008573ffffffffffffffffffffffffffffffffffffffff1673ffffffffffffffffffffffffffffffffffffffff168152602001908152602001600020546106ba611f12565b6106c49190612d95565b600460008673ffffffffffffffffffffffffffffffffffffffff1673ffffffffffffffffffffffffffffffffffffffff1681526020019081526020016000205461070e9190612d3b565b6107189190612d0a565b6107229190612cb4565b9050919050565b6000600560008373ffffffffffffffffffffffffffffffffffffffff1673ffffffffffffffffffffffffffffffffffffffff168152602001908152602001600020549050919050565b600d6020528060005260406000206000915090505481565b610792611fc8565b80600160006101000a81548173ffffffffffffffffffffffffffffffffffffffff021916908373ffffffffffffffffffffffffffffffffffffffff1602179055507f906a1c6bd7e3091ea86693dd029a831c19049ce77f1dce2ce0bab1cacbabce2281604051610802919061291e565b60405180910390a150565b6000600b54905090565b60006008546007546108299190612d3b565b905090565b600280541415610873576040517f08c379a000000000000000000000000000000000000000000000000000000000815260040161086a90612c47565b60405180910390fd5b6002808190555033610883611f12565b600a8190555061089161133a565b600981905550600073ffffffffffffffffffffffffffffffffffffffff168173ffffffffffffffffffffffffffffffffffffffff161461095e576108d481610627565b600d60008373ffffffffffffffffffffffffffffffffffffffff1673ffffffffffffffffffffffffffffffffffffffff16815260200190815260200160002081905550600a54600c60008373ffffffffffffffffffffffffffffffffffffffff1673ffffffffffffffffffffffffffffffffffffffff168152602001908152602001600020819055505b600082116109a1576040517f08c379a000000000000000000000000000000000000000000000000000000000815260040161099890612c27565b60405180910390fd5b6109aa33611058565b8211156109ec576040517f08c379a00000000000000000000000000000000000000000000000000000000081526004016109e390612ac7565b60405180910390fd5b81600b60008282546109fe9190612d95565b9250508190555081600460003373ffffffffffffffffffffffffffffffffffffffff1673ffffffffffffffffffffffffffffffffffffffff1681526020019081526020016000206000828254610a549190612d95565b92505081905550610aa633837f000000000000000000000000000000000000000000000000000000000000000073ffffffffffffffffffffffffffffffffffffffff166120589092919063ffffffff16565b3373ffffffffffffffffffffffffffffffffffffffff167f0f5bb82176feb1b5e747e28471aa92156a04d9f3ab9f45f28e2d704232b93f7583604051610aec9190612c67565b60405180910390a250600160028190555050565b60085481565b7f000000000000000000000000000000000000000000000000000000000000000073ffffffffffffffffffffffffffffffffffffffff163373ffffffffffffffffffffffffffffffffffffffff1614610b94576040517f08c379a0000000000000000000000000000000000000000000000000000000008152600401610b8b90612bc7565b60405180910390fd5b6000610b9e611f12565b600a81905550610bac61133a565b600981905550600073ffffffffffffffffffffffffffffffffffffffff168173ffffffffffffffffffffffffffffffffffffffff1614610c7957610bef81610627565b600d60008373ffffffffffffffffffffffffffffffffffffffff1673ffffffffffffffffffffffffffffffffffffffff16815260200190815260200160002081905550600a54600c60008373ffffffffffffffffffffffffffffffffffffffff1673ffffffffffffffffffffffffffffffffffffffff168152602001908152602001600020819055505b6006544210610c9b5760085482610c909190612d0a565b600781905550610ce1565b600042600654610cab9190612d95565b9050600060075482610cbd9190612d3b565b90506008548185610cce9190612cb4565b610cd89190612d0a565b60078190555050505b4260098190555060085442610cf69190612cb4565b6006819055507fde88a922e0d3b88b24e9623efeb464919c6bf9f66857a65e2bfcf2ce87a9433d82604051610d2b9190612c67565b60405180910390a15050565b600280541415610d7c576040517f08c379a0000000000000000000000000000000000000000000000000000000008152600401610d7390612c47565b60405180910390fd5b6002808190555033610d8c611f12565b600a81905550610d9a61133a565b600981905550600073ffffffffffffffffffffffffffffffffffffffff168173ffffffffffffffffffffffffffffffffffffffff1614610e6757610ddd81610627565b600d60008373ffffffffffffffffffffffffffffffffffffffff1673ffffffffffffffffffffffffffffffffffffffff16815260200190815260200160002081905550600a54600c60008373ffffffffffffffffffffffffffffffffffffffff1673ffffffffffffffffffffffffffffffffffffffff168152602001908152602001600020819055505b6000600d60003373ffffffffffffffffffffffffffffffffffffffff1673ffffffffffffffffffffffffffffffffffffffff1681526020019081526020016000205490506000811115611046576000600d60003373ffffffffffffffffffffffffffffffffffffffff1673ffffffffffffffffffffffffffffffffffffffff16815260200190815260200160002081905550610f647f0000000000000000000000000000000000000000000000000000000000000000827f000000000000000000000000000000000000000000000000000000000000000073ffffffffffffffffffffffffffffffffffffffff166120589092919063ffffffff16565b7f000000000000000000000000000000000000000000000000000000000000000073ffffffffffffffffffffffffffffffffffffffff16631bb47b4433836301dfe2006040518463ffffffff1660e01b8152600401610fc5939291906129c2565b600060405180830381600087803b158015610fdf57600080fd5b505af1158015610ff3573d6000803e3d6000fd5b505050503373ffffffffffffffffffffffffffffffffffffffff167fe2403640ba68fed3a2f88b7557551d1993f84b99bb10ff833f0cf8db0c5e04868260405161103d9190612c67565b60405180910390a25b50506001600281905550565b600b5481565b6000600560008373ffffffffffffffffffffffffffffffffffffffff1673ffffffffffffffffffffffffffffffffffffffff16815260200190815260200160002054600460008473ffffffffffffffffffffffffffffffffffffffff1673ffffffffffffffffffffffffffffffffffffffff168152602001908152602001600020546110e49190612d95565b9050919050565b600160009054906101000a900473ffffffffffffffffffffffffffffffffffffffff1681565b6000600360009054906101000a900460ff16905090565b611130611fc8565b6111386120de565b565b6000600460008373ffffffffffffffffffffffffffffffffffffffff1673ffffffffffffffffffffffffffffffffffffffff168152602001908152602001600020549050919050565b600160009054906101000a900473ffffffffffffffffffffffffffffffffffffffff1673ffffffffffffffffffffffffffffffffffffffff163373ffffffffffffffffffffffffffffffffffffffff1614611213576040517f08c379a000000000000000000000000000000000000000000000000000000000815260040161120a90612aa7565b60405180910390fd5b7fb532073b38c83145e3e5135377a08bf9aab55bc0fd7c1179cd4fb995d2a5159c60008054906101000a900473ffffffffffffffffffffffffffffffffffffffff16600160009054906101000a900473ffffffffffffffffffffffffffffffffffffffff16604051611286929190612939565b60405180910390a1600160009054906101000a900473ffffffffffffffffffffffffffffffffffffffff166000806101000a81548173ffffffffffffffffffffffffffffffffffffffff021916908373ffffffffffffffffffffffffffffffffffffffff1602179055506000600160006101000a81548173ffffffffffffffffffffffffffffffffffffffff021916908373ffffffffffffffffffffffffffffffffffffffff160217905550565b60075481565b6000600654421061134d5760065461134f565b425b905090565b61135c611fc8565b7f000000000000000000000000000000000000000000000000000000000000000073ffffffffffffffffffffffffffffffffffffffff168273ffffffffffffffffffffffffffffffffffffffff1614156113eb576040517f08c379a00000000000000000000000000000000000000000000000000000000081526004016113e290612b07565b60405180910390fd5b61143660008054906101000a900473ffffffffffffffffffffffffffffffffffffffff16828473ffffffffffffffffffffffffffffffffffffffff166120589092919063ffffffff16565b7f8c1256b8896378cd5044f80c202f9772b9d77dc85c8a6eb51967210b09bfaa288282604051611467929190612999565b60405180910390a15050565b61147b611fc8565b611483612181565b565b600c6020528060005260406000206000915090505481565b60008054906101000a900473ffffffffffffffffffffffffffffffffffffffff1681565b6114c9611111565b15611509576040517f08c379a000000000000000000000000000000000000000000000000000000000815260040161150090612b27565b60405180910390fd5b7f000000000000000000000000000000000000000000000000000000000000000073ffffffffffffffffffffffffffffffffffffffff163373ffffffffffffffffffffffffffffffffffffffff1614611597576040517f08c379a000000000000000000000000000000000000000000000000000000000815260040161158e90612ba7565b60405180910390fd5b816115a0611f12565b600a819055506115ae61133a565b600981905550600073ffffffffffffffffffffffffffffffffffffffff168173ffffffffffffffffffffffffffffffffffffffff161461167b576115f181610627565b600d60008373ffffffffffffffffffffffffffffffffffffffff1673ffffffffffffffffffffffffffffffffffffffff16815260200190815260200160002081905550600a54600c60008373ffffffffffffffffffffffffffffffffffffffff1673ffffffffffffffffffffffffffffffffffffffff168152602001908152602001600020819055505b600082116116be576040517f08c379a00000000000000000000000000000000000000000000000000000000081526004016116b590612b87565b60405180910390fd5b81600460008573ffffffffffffffffffffffffffffffffffffffff1673ffffffffffffffffffffffffffffffffffffffff168152602001908152602001600020600082825461170d9190612cb4565b9250508190555081600560008573ffffffffffffffffffffffffffffffffffffffff1673ffffffffffffffffffffffffffffffffffffffff16815260200190815260200160002060008282546117639190612cb4565b9250508190555081600b600082825461177c9190612cb4565b925050819055508273ffffffffffffffffffffffffffffffffffffffff167f945856e466506640ce955f1ec0de49513761175bad680d8503f7c8d45beabb20836040516117c99190612c67565b60405180910390a2505050565b7f000000000000000000000000000000000000000000000000000000000000000081565b60028054141561183f576040517f08c379a000000000000000000000000000000000000000000000000000000000815260040161183690612c47565b60405180910390fd5b6002808190555061184e611111565b1561188e576040517f08c379a000000000000000000000000000000000000000000000000000000000815260040161188590612b27565b60405180910390fd5b33611897611f12565b600a819055506118a561133a565b600981905550600073ffffffffffffffffffffffffffffffffffffffff168173ffffffffffffffffffffffffffffffffffffffff1614611972576118e881610627565b600d60008373ffffffffffffffffffffffffffffffffffffffff1673ffffffffffffffffffffffffffffffffffffffff16815260200190815260200160002081905550600a54600c60008373ffffffffffffffffffffffffffffffffffffffff1673ffffffffffffffffffffffffffffffffffffffff168152602001908152602001600020819055505b600082116119b5576040517f08c379a00000000000000000000000000000000000000000000000000000000081526004016119ac90612b87565b60405180910390fd5b81600b60008282546119c79190612cb4565b9250508190555081600460003373ffffffffffffffffffffffffffffffffffffffff1673ffffffffffffffffffffffffffffffffffffffff1681526020019081526020016000206000828254611a1d9190612cb4565b92505081905550611a713330847f000000000000000000000000000000000000000000000000000000000000000073ffffffffffffffffffffffffffffffffffffffff16612223909392919063ffffffff16565b3373ffffffffffffffffffffffffffffffffffffffff167f9e71bc8eea02a63969f509818f2dafb9254532904319f9dbda79b67bd34a5f3d83604051611ab79190612c67565b60405180910390a250600160028190555050565b7f000000000000000000000000000000000000000000000000000000000000000081565b60095481565b600280541415611b3a576040517f08c379a0000000000000000000000000000000000000000000000000000000008152600401611b3190612c47565b60405180910390fd5b600280819055507f000000000000000000000000000000000000000000000000000000000000000073ffffffffffffffffffffffffffffffffffffffff163373ffffffffffffffffffffffffffffffffffffffff1614611bcf576040517f08c379a0000000000000000000000000000000000000000000000000000000008152600401611bc690612ba7565b60405180910390fd5b81611bd8611f12565b600a81905550611be661133a565b600981905550600073ffffffffffffffffffffffffffffffffffffffff168173ffffffffffffffffffffffffffffffffffffffff1614611cb357611c2981610627565b600d60008373ffffffffffffffffffffffffffffffffffffffff1673ffffffffffffffffffffffffffffffffffffffff16815260200190815260200160002081905550600a54600c60008373ffffffffffffffffffffffffffffffffffffffff1673ffffffffffffffffffffffffffffffffffffffff168152602001908152602001600020819055505b60008211611cf6576040517f08c379a0000000000000000000000000000000000000000000000000000000008152600401611ced90612c27565b60405180910390fd5b81600560008573ffffffffffffffffffffffffffffffffffffffff1673ffffffffffffffffffffffffffffffffffffffff168152602001908152602001600020541015611d78576040517f08c379a0000000000000000000000000000000000000000000000000000000008152600401611d6f90612ac7565b60405180910390fd5b81600460008573ffffffffffffffffffffffffffffffffffffffff1673ffffffffffffffffffffffffffffffffffffffff1681526020019081526020016000206000828254611dc79190612d95565b9250508190555081600560008573ffffffffffffffffffffffffffffffffffffffff1673ffffffffffffffffffffffffffffffffffffffff1681526020019081526020016000206000828254611e1d9190612d95565b9250508190555081600b6000828254611e369190612d95565b925050819055507fbd0d30ac1729a6f57b09c27c8f39102f2704fbbf708747dcd198e45cf27f52828383604051611e6e929190612999565b60405180910390a15060016002819055505050565b611e8b611fc8565b6006544211611ecf576040517f08c379a0000000000000000000000000000000000000000000000000000000008152600401611ec690612b67565b60405180910390fd5b806008819055507ffb46ca5a5e06d4540d6387b930a7c978bce0db5f449ec6b3f5d07c6e1d44f2d3600854604051611f079190612c67565b60405180910390a150565b600080600b541415611f2857600a549050611f7a565b600b54670de0b6b3a7640000600754600954611f4261133a565b611f4c9190612d95565b611f569190612d3b565b611f609190612d3b565b611f6a9190612d0a565b600a54611f779190612cb4565b90505b90565b600a5481565b611f94611f8f33611058565b61082e565b611f9c610d37565b565b60065481565b7f000000000000000000000000000000000000000000000000000000000000000081565b60008054906101000a900473ffffffffffffffffffffffffffffffffffffffff1673ffffffffffffffffffffffffffffffffffffffff163373ffffffffffffffffffffffffffffffffffffffff1614612056576040517f08c379a000000000000000000000000000000000000000000000000000000000815260040161204d90612b47565b60405180910390fd5b565b6120d98363a9059cbb60e01b8484604051602401612077929190612999565b604051602081830303815290604052907bffffffffffffffffffffffffffffffffffffffffffffffffffffffff19166020820180517bffffffffffffffffffffffffffffffffffffffffffffffffffffffff83818316178352505050506122ac565b505050565b6120e6611111565b15612126576040517f08c379a000000000000000000000000000000000000000000000000000000000815260040161211d90612b27565b60405180910390fd5b6001600360006101000a81548160ff0219169083151502179055507f62e78cea01bee320cd4e420270b5ea74000d11b0c9f74754ebdbfc544b05a25861216a612373565b604051612177919061291e565b60405180910390a1565b612189611111565b6121c8576040517f08c379a00000000000000000000000000000000000000000000000000000000081526004016121bf90612a87565b60405180910390fd5b6000600360006101000a81548160ff0219169083151502179055507f5db9ee0a495bf2e6ff9c91a7834c1ba4fdd244a5e8aa4e537bd38aeae4b073aa61220c612373565b604051612219919061291e565b60405180910390a1565b6122a6846323b872dd60e01b85858560405160240161224493929190612962565b604051602081830303815290604052907bffffffffffffffffffffffffffffffffffffffffffffffffffffffff19166020820180517bffffffffffffffffffffffffffffffffffffffffffffffffffffffff83818316178352505050506122ac565b50505050565b600061230e826040518060400160405280602081526020017f5361666545524332303a206c6f772d6c6576656c2063616c6c206661696c65648152508573ffffffffffffffffffffffffffffffffffffffff1661237b9092919063ffffffff16565b905060008151111561236e578080602001905181019061232e91906125cd565b61236d576040517f08c379a000000000000000000000000000000000000000000000000000000000815260040161236490612c07565b60405180910390fd5b5b505050565b600033905090565b606061238a8484600085612393565b90509392505050565b6060824710156123d8576040517f08c379a00000000000000000000000000000000000000000000000000000000081526004016123cf90612ae7565b60405180910390fd5b6123e1856124a7565b612420576040517f08c379a000000000000000000000000000000000000000000000000000000000815260040161241790612be7565b60405180910390fd5b6000808673ffffffffffffffffffffffffffffffffffffffff1685876040516124499190612907565b60006040518083038185875af1925050503d8060008114612486576040519150601f19603f3d011682016040523d82523d6000602084013e61248b565b606091505b509150915061249b8282866124ba565b92505050949350505050565b600080823b905060008111915050919050565b606083156124ca5782905061251a565b6000835111156124dd5782518084602001fd5b816040517f08c379a00000000000000000000000000000000000000000000000000000000081526004016125119190612a65565b60405180910390fd5b9392505050565b60008135905061253081613307565b92915050565b6000815190506125458161331e565b92915050565b60008135905061255a81613335565b92915050565b60006020828403121561257657612575612f0e565b5b600061258484828501612521565b91505092915050565b600080604083850312156125a4576125a3612f0e565b5b60006125b285828601612521565b92505060206125c38582860161254b565b9150509250929050565b6000602082840312156125e3576125e2612f0e565b5b60006125f184828501612536565b91505092915050565b6000602082840312156126105761260f612f0e565b5b600061261e8482850161254b565b91505092915050565b61263081612dc9565b82525050565b61263f81612ddb565b82525050565b600061265082612c82565b61265a8185612c98565b935061266a818560208601612e7d565b80840191505092915050565b61267f81612e11565b82525050565b61268e81612e23565b82525050565b61269d81612e35565b82525050565b6126ac81612e47565b82525050565b60006126bd82612c8d565b6126c78185612ca3565b93506126d7818560208601612e7d565b6126e081612f13565b840191505092915050565b60006126f8601483612ca3565b915061270382612f24565b602082019050919050565b600061271b603583612ca3565b915061272682612f4d565b604082019050919050565b600061273e601e83612ca3565b915061274982612f9c565b602082019050919050565b6000612761602683612ca3565b915061276c82612fc5565b604082019050919050565b6000612784603083612ca3565b915061278f82613014565b604082019050919050565b60006127a7601083612ca3565b91506127b282613063565b602082019050919050565b60006127ca602f83612ca3565b91506127d58261308c565b604082019050919050565b60006127ed606883612ca3565b91506127f8826130db565b608082019050919050565b6000612810601e83612ca3565b915061281b82613176565b602082019050919050565b6000612833602283612ca3565b915061283e8261319f565b604082019050919050565b6000612856602483612ca3565b9150612861826131ee565b604082019050919050565b6000612879601d83612ca3565b91506128848261323d565b602082019050919050565b600061289c602a83612ca3565b91506128a782613266565b604082019050919050565b60006128bf602083612ca3565b91506128ca826132b5565b602082019050919050565b60006128e2601f83612ca3565b91506128ed826132de565b602082019050919050565b61290181612e07565b82525050565b60006129138284612645565b915081905092915050565b60006020820190506129336000830184612627565b92915050565b600060408201905061294e6000830185612627565b61295b6020830184612627565b9392505050565b60006060820190506129776000830186612627565b6129846020830185612627565b61299160408301846128f8565b949350505050565b60006040820190506129ae6000830185612627565b6129bb60208301846128f8565b9392505050565b60006060820190506129d76000830186612627565b6129e460208301856128f8565b6129f160408301846126a3565b949350505050565b6000602082019050612a0e6000830184612636565b92915050565b6000602082019050612a296000830184612676565b92915050565b6000602082019050612a446000830184612685565b92915050565b6000602082019050612a5f6000830184612694565b92915050565b60006020820190508181036000830152612a7f81846126b2565b905092915050565b60006020820190508181036000830152612aa0816126eb565b9050919050565b60006020820190508181036000830152612ac08161270e565b9050919050565b60006020820190508181036000830152612ae081612731565b9050919050565b60006020820190508181036000830152612b0081612754565b9050919050565b60006020820190508181036000830152612b2081612777565b9050919050565b60006020820190508181036000830152612b408161279a565b9050919050565b60006020820190508181036000830152612b60816127bd565b9050919050565b60006020820190508181036000830152612b80816127e0565b9050919050565b60006020820190508181036000830152612ba081612803565b9050919050565b60006020820190508181036000830152612bc081612826565b9050919050565b60006020820190508181036000830152612be081612849565b9050919050565b60006020820190508181036000830152612c008161286c565b9050919050565b60006020820190508181036000830152612c208161288f565b9050919050565b60006020820190508181036000830152612c40816128b2565b9050919050565b60006020820190508181036000830152612c60816128d5565b9050919050565b6000602082019050612c7c60008301846128f8565b92915050565b600081519050919050565b600081519050919050565b600081905092915050565b600082825260208201905092915050565b6000612cbf82612e07565b9150612cca83612e07565b9250827fffffffffffffffffffffffffffffffffffffffffffffffffffffffffffffffff03821115612cff57612cfe612eb0565b5b828201905092915050565b6000612d1582612e07565b9150612d2083612e07565b925082612d3057612d2f612edf565b5b828204905092915050565b6000612d4682612e07565b9150612d5183612e07565b9250817fffffffffffffffffffffffffffffffffffffffffffffffffffffffffffffffff0483118215151615612d8a57612d89612eb0565b5b828202905092915050565b6000612da082612e07565b9150612dab83612e07565b925082821015612dbe57612dbd612eb0565b5b828203905092915050565b6000612dd482612de7565b9050919050565b60008115159050919050565b600073ffffffffffffffffffffffffffffffffffffffff82169050919050565b6000819050919050565b6000612e1c82612e59565b9050919050565b6000612e2e82612e59565b9050919050565b6000612e4082612e59565b9050919050565b6000612e5282612e07565b9050919050565b6000612e6482612e6b565b9050919050565b6000612e7682612de7565b9050919050565b60005b83811015612e9b578082015181840152602081019050612e80565b83811115612eaa576000848401525b50505050565b7f4e487b7100000000000000000000000000000000000000000000000000000000600052601160045260246000fd5b7f4e487b7100000000000000000000000000000000000000000000000000000000600052601260045260246000fd5b600080fd5b6000601f19601f8301169050919050565b7f5061757361626c653a206e6f7420706175736564000000000000000000000000600082015250565b7f596f75206d757374206265206e6f6d696e61746564206265666f726520796f7560008201527f2063616e20616363657074206f776e6572736869700000000000000000000000602082015250565b7f5374616b696e67526577617264733a20496e76616c696420416d6f756e740000600082015250565b7f416464726573733a20696e73756666696369656e742062616c616e636520666f60008201527f722063616c6c0000000000000000000000000000000000000000000000000000602082015250565b7f5374616b696e67526577617264733a2043616e6e6f7420756e7374616b65207460008201527f6865207374616b696e6720746f6b656e00000000000000000000000000000000602082015250565b7f5061757361626c653a2070617573656400000000000000000000000000000000600082015250565b7f4f6e6c792074686520636f6e7472616374206f776e6572206d6179207065726660008201527f6f726d207468697320616374696f6e0000000000000000000000000000000000602082015250565b7f5374616b696e67526577617264733a2050726576696f7573207265776172647360008201527f20706572696f64206d75737420626520636f6d706c657465206265666f72652060208201527f6368616e67696e6720746865206475726174696f6e20666f7220746865206e6560408201527f7720706572696f64000000000000000000000000000000000000000000000000606082015250565b7f5374616b696e67526577617264733a2043616e6e6f74207374616b6520300000600082015250565b7f5374616b696e67526577617264733a204f6e6c7920526577617264204573637260008201527f6f77000000000000000000000000000000000000000000000000000000000000602082015250565b7f5374616b696e67526577617264733a204f6e6c7920537570706c79205363686560008201527f64756c6500000000000000000000000000000000000000000000000000000000602082015250565b7f416464726573733a2063616c6c20746f206e6f6e2d636f6e7472616374000000600082015250565b7f5361666545524332303a204552433230206f7065726174696f6e20646964206e60008201527f6f74207375636365656400000000000000000000000000000000000000000000602082015250565b7f5374616b696e67526577617264733a2043616e6e6f7420556e7374616b652030600082015250565b7f5265656e7472616e637947756172643a207265656e7472616e742063616c6c00600082015250565b61331081612dc9565b811461331b57600080fd5b50565b61332781612ddb565b811461333257600080fd5b50565b61333e81612e07565b811461334957600080fd5b5056fea264697066735822122075771eb759f0d2fa58617bdb3c9f0a718a1c873dcd567101f876bf201342941564736f6c63430008070033",
  "devdoc": {
    "author": "SYNTHETIX, JaredBorders (jaredborders@proton.me), JChiaramonte7 (jeremy@bytecode.llc)",
    "events": {
      "EscrowStaked(address,uint256)": {
        "params": {
          "amount": ": amount staked",
          "user": ": owner of escrowed tokens address"
        }
      },
      "EscrowUnstaked(address,uint256)": {
        "params": {
          "amount": ": amount unstaked",
          "user": ": owner of escrowed tokens address"
        }
      },
      "Recovered(address,uint256)": {
        "params": {
          "amount": ": amount of token recovered",
          "token": ": address of token recovered"
        }
      },
      "RewardAdded(uint256)": {
        "params": {
          "reward": ": amount to be distributed over applicable rewards duration"
        }
      },
      "RewardPaid(address,uint256)": {
        "params": {
          "reward": ": amount of reward token claimed",
          "user": ": address of user claiming rewards"
        }
      },
      "RewardsDurationUpdated(uint256)": {
        "params": {
          "newDuration": ": denoted in seconds"
        }
      },
      "Staked(address,uint256)": {
        "params": {
          "amount": ": amount staked",
          "user": ": staker address"
        }
      },
      "Unstaked(address,uint256)": {
        "params": {
          "amount": ": amount unstaked",
          "user": ": address of user unstaking"
        }
      }
    },
    "kind": "dev",
    "methods": {
      "balanceOf(address)": {
        "params": {
          "account": ": address of potential staker"
        },
        "returns": {
          "_0": "amount of tokens staked by account"
        }
      },
      "constructor": {
        "details": "owner set to address that deployed StakingRewards",
        "params": {
          "_rewardEscrow": ": escrow contract which holds (and may stake) reward tokens",
          "_supplySchedule": ": handles reward token minting logic",
          "_token": ": token used for staking and for rewards"
        }
      },
      "earned(address)": {
        "params": {
          "account": ": address of account earned amount is being calculated for"
        }
      },
      "escrowedBalanceOf(address)": {
        "params": {
          "account": "address to check the escrowed tokens staked"
        },
        "returns": {
          "_0": "amount of escrowed tokens staked"
        }
      },
      "getReward()": {
        "details": "rewards are escrowed in RewardEscrowupdateReward() called prior to function logic"
      },
      "getRewardForDuration()": {
        "returns": {
          "_0": "rewards for the duration specified by rewardsDuration"
        }
      },
      "lastTimeRewardApplicable()": {
        "returns": {
          "_0": "timestamp of the last time rewards are applicable"
        }
      },
      "nonEscrowedBalanceOf(address)": {
        "params": {
          "account": "address to check the non-escrowed tokens staked"
        },
        "returns": {
          "_0": "amount of non-escrowed tokens staked"
        }
      },
      "notifyRewardAmount(uint256)": {
        "details": "updateReward() called prior to function logic (with zero address)",
        "params": {
          "reward": ": amount of token to be distributed over a period"
        }
      },
      "pauseStakingRewards()": {
        "details": "Triggers stopped state"
      },
      "paused()": {
        "details": "Returns true if the contract is paused, and false otherwise."
      },
      "recoverERC20(address,uint256)": {
        "params": {
          "tokenAddress": ": address of token to be recovered",
          "tokenAmount": ": amount of token to be recovered"
        }
      },
      "rewardPerToken()": {
        "returns": {
          "_0": "running sum of reward per total tokens staked"
        }
      },
      "setRewardsDuration(uint256)": {
        "params": {
          "_rewardsDuration": ": denoted in seconds"
        }
      },
      "stake(uint256)": {
        "details": "updateReward() called prior to function logic",
        "params": {
          "amount": ": amount to stake"
        }
      },
      "stakeEscrow(address,uint256)": {
        "details": "updateReward() called prior to function logicmsg.sender NOT used (account is used)",
        "params": {
          "account": ": address which owns token",
          "amount": ": amount to stake"
        }
      },
      "totalSupply()": {
        "details": "returns staked tokens which will likely not be equal to total tokens in the contract since reward and staking tokens are the same",
        "returns": {
          "_0": "total amount of tokens that are being staked"
        }
      },
      "unpauseStakingRewards()": {
        "details": "Returns to normal state."
      },
      "unstake(uint256)": {
        "details": "updateReward() called prior to function logic",
        "params": {
          "amount": ": amount to unstake"
        }
      },
      "unstakeEscrow(address,uint256)": {
        "details": "updateReward() called prior to function logicmsg.sender NOT used (account is used)",
        "params": {
          "account": ": address which owns token",
          "amount": ": amount to unstake"
        }
      }
    },
    "stateVariables": {
      "balances": {
        "details": "this includes escrowed tokens stake"
      }
    },
    "title": "KWENTA Staking Rewards",
    "version": 1
  },
  "userdoc": {
    "events": {
      "EscrowStaked(address,uint256)": {
        "notice": "emitted when escrow staked"
      },
      "EscrowUnstaked(address,uint256)": {
        "notice": "emitted when staked escrow tokens are unstaked"
      },
      "Recovered(address,uint256)": {
        "notice": "emitted when tokens are recovered from this contract"
      },
      "RewardAdded(uint256)": {
        "notice": "update reward rate"
      },
      "RewardPaid(address,uint256)": {
        "notice": "emitted when user claims rewards"
      },
      "RewardsDurationUpdated(uint256)": {
        "notice": "emitted when rewards duration changes"
      },
      "Staked(address,uint256)": {
        "notice": "emitted when user stakes tokens"
      },
      "Unstaked(address,uint256)": {
        "notice": "emitted when user unstakes tokens"
      }
    },
    "kind": "user",
    "methods": {
      "_totalSupply()": {
        "notice": "total number of tokens staked in this contract"
      },
      "constructor": {
        "notice": "configure StakingRewards state"
      },
      "earned(address)": {
        "notice": "determine how much reward token an account has earned thus far"
      },
      "escrowedBalanceOf(address)": {
        "notice": "Getter function for number of staked escrow tokens"
      },
      "exit()": {
        "notice": "unstake all available staked non-escrowed tokens and claim any rewards"
      },
      "getReward()": {
        "notice": "caller claims any rewards generated from staking"
      },
      "lastUpdateTime()": {
        "notice": "track last time the rewards were updated"
      },
      "nonEscrowedBalanceOf(address)": {
        "notice": "Getter function for number of staked non-escrow tokens"
      },
      "notifyRewardAmount(uint256)": {
        "notice": "configure reward rate"
      },
      "periodFinish()": {
        "notice": "marks applicable reward period finish time"
      },
      "recoverERC20(address,uint256)": {
        "notice": "added to support recovering LP Rewards from other systems such as BAL to be distributed to holders"
      },
      "rewardEscrow()": {
        "notice": "escrow contract which holds (and may stake) reward tokens"
      },
      "rewardPerToken()": {
        "notice": "calculate running sum of reward per total tokens staked at this specific time"
      },
      "rewardPerTokenStored()": {
        "notice": "summation of rewardRate divided by total staked tokens"
      },
      "rewardRate()": {
        "notice": "amount of tokens minted per second"
      },
      "rewards(address)": {
        "notice": "track rewards for a given user which changes when a user stakes, unstakes, or claims rewards"
      },
      "rewardsDuration()": {
        "notice": "period for rewards"
      },
      "setRewardsDuration(uint256)": {
        "notice": "set rewards duration"
      },
      "stake(uint256)": {
        "notice": "stake token"
      },
      "stakeEscrow(address,uint256)": {
        "notice": "stake escrowed token"
      },
      "supplySchedule()": {
        "notice": "handles reward token minting logic"
      },
      "token()": {
        "notice": "token used for BOTH staking and rewards"
      },
      "unstake(uint256)": {
        "notice": "unstake token"
      },
      "unstakeEscrow(address,uint256)": {
        "notice": "unstake escrowed token"
      },
      "userRewardPerTokenPaid(address)": {
        "notice": "represents the rewardPerToken value the last time the stake calculated earned() rewards"
      }
    },
    "notice": "Updated version of Synthetix's StakingRewards with new features specific to Kwenta",
    "version": 1
  },
  "storageLayout": {
    "storage": [
      {
        "astId": 6516,
        "contract": "contracts/StakingRewards.sol:StakingRewards",
        "label": "owner",
        "offset": 0,
        "slot": "0",
        "type": "t_address"
      },
      {
        "astId": 6518,
        "contract": "contracts/StakingRewards.sol:StakingRewards",
        "label": "nominatedOwner",
        "offset": 0,
        "slot": "1",
        "type": "t_address"
      },
      {
        "astId": 141,
        "contract": "contracts/StakingRewards.sol:StakingRewards",
        "label": "_status",
        "offset": 0,
        "slot": "2",
        "type": "t_uint256"
      },
      {
        "astId": 56,
        "contract": "contracts/StakingRewards.sol:StakingRewards",
        "label": "_paused",
        "offset": 0,
        "slot": "3",
        "type": "t_bool"
      },
      {
        "astId": 3655,
        "contract": "contracts/StakingRewards.sol:StakingRewards",
        "label": "balances",
        "offset": 0,
        "slot": "4",
        "type": "t_mapping(t_address,t_uint256)"
      },
      {
        "astId": 3660,
        "contract": "contracts/StakingRewards.sol:StakingRewards",
        "label": "escrowedBalances",
        "offset": 0,
        "slot": "5",
        "type": "t_mapping(t_address,t_uint256)"
      },
      {
        "astId": 3664,
        "contract": "contracts/StakingRewards.sol:StakingRewards",
        "label": "periodFinish",
        "offset": 0,
        "slot": "6",
        "type": "t_uint256"
      },
      {
        "astId": 3668,
        "contract": "contracts/StakingRewards.sol:StakingRewards",
        "label": "rewardRate",
        "offset": 0,
        "slot": "7",
        "type": "t_uint256"
      },
      {
        "astId": 3672,
        "contract": "contracts/StakingRewards.sol:StakingRewards",
        "label": "rewardsDuration",
        "offset": 0,
        "slot": "8",
        "type": "t_uint256"
      },
      {
        "astId": 3675,
        "contract": "contracts/StakingRewards.sol:StakingRewards",
        "label": "lastUpdateTime",
        "offset": 0,
        "slot": "9",
        "type": "t_uint256"
      },
      {
        "astId": 3678,
        "contract": "contracts/StakingRewards.sol:StakingRewards",
        "label": "rewardPerTokenStored",
        "offset": 0,
        "slot": "10",
        "type": "t_uint256"
      },
      {
        "astId": 3681,
        "contract": "contracts/StakingRewards.sol:StakingRewards",
        "label": "_totalSupply",
        "offset": 0,
        "slot": "11",
        "type": "t_uint256"
      },
      {
        "astId": 3686,
        "contract": "contracts/StakingRewards.sol:StakingRewards",
        "label": "userRewardPerTokenPaid",
        "offset": 0,
        "slot": "12",
        "type": "t_mapping(t_address,t_uint256)"
      },
      {
        "astId": 3691,
        "contract": "contracts/StakingRewards.sol:StakingRewards",
        "label": "rewards",
        "offset": 0,
        "slot": "13",
        "type": "t_mapping(t_address,t_uint256)"
      }
    ],
    "types": {
      "t_address": {
        "encoding": "inplace",
        "label": "address",
        "numberOfBytes": "20"
      },
      "t_bool": {
        "encoding": "inplace",
        "label": "bool",
        "numberOfBytes": "1"
      },
      "t_mapping(t_address,t_uint256)": {
        "encoding": "mapping",
        "key": "t_address",
        "label": "mapping(address => uint256)",
        "numberOfBytes": "32",
        "value": "t_uint256"
      },
      "t_uint256": {
        "encoding": "inplace",
        "label": "uint256",
        "numberOfBytes": "32"
      }
    }
  }
}