{
  "address": "0x03c3E61D624F279243e1c8b43eD0fCF6790D10E9",
  "abi": [
    {
      "inputs": [
        {
          "internalType": "address",
          "name": "_vToken",
          "type": "address"
        },
        {
          "internalType": "address",
          "name": "_token",
          "type": "address"
        }
      ],
      "stateMutability": "nonpayable",
      "type": "constructor"
    },
    {
      "anonymous": false,
      "inputs": [
        {
          "indexed": false,
          "internalType": "address",
          "name": "redeemer",
          "type": "address"
        },
        {
          "indexed": false,
          "internalType": "uint256",
          "name": "redeemedAmount",
          "type": "uint256"
        }
      ],
      "name": "Redeemed",
      "type": "event"
    },
    {
      "inputs": [],
      "name": "redeem",
      "outputs": [],
      "stateMutability": "nonpayable",
      "type": "function"
    },
    {
      "inputs": [],
      "name": "token",
      "outputs": [
        {
          "internalType": "address",
          "name": "",
          "type": "address"
        }
      ],
      "stateMutability": "view",
      "type": "function"
    },
    {
      "inputs": [],
      "name": "vToken",
      "outputs": [
        {
          "internalType": "address",
          "name": "",
          "type": "address"
        }
      ],
      "stateMutability": "view",
      "type": "function"
    }
  ],
  "numDeployments": 1,
  "solcInputHash": "17ec38083914ccf902f3df7d381e2659",
  "bytecode": "0x60c060405234801561001057600080fd5b50604051610a7b380380610a7b833981810160405281019061003291906100bc565b8173ffffffffffffffffffffffffffffffffffffffff1660808173ffffffffffffffffffffffffffffffffffffffff1660601b815250508073ffffffffffffffffffffffffffffffffffffffff1660a08173ffffffffffffffffffffffffffffffffffffffff1660601b81525050505061014a565b6000815190506100b681610133565b92915050565b600080604083850312156100d3576100d261012e565b5b60006100e1858286016100a7565b92505060206100f2858286016100a7565b9150509250929050565b60006101078261010e565b9050919050565b600073ffffffffffffffffffffffffffffffffffffffff82169050919050565b600080fd5b61013c816100fc565b811461014757600080fd5b50565b60805160601c60a05160601c6108ec61018f600039600081816101a20152818161037b01526104a3015260008181608e0152818160b4015261028d01526108ec6000f3fe608060405234801561001057600080fd5b50600436106100415760003560e01c80639bb1a99c14610046578063be040fb014610064578063fc0c546a1461006e575b600080fd5b61004e61008c565b60405161005b91906105f3565b60405180910390f35b61006c6100b0565b005b6100766104a1565b60405161008391906105f3565b60405180910390f35b7f000000000000000000000000000000000000000000000000000000000000000081565b60007f000000000000000000000000000000000000000000000000000000000000000073ffffffffffffffffffffffffffffffffffffffff166370a08231336040518263ffffffff1660e01b815260040161010b91906105f3565b60206040518083038186803b15801561012357600080fd5b505afa158015610137573d6000803e3d6000fd5b505050506040513d601f19601f8201168201806040525081019061015b919061051c565b9050600081116101a0576040517f08c379a00000000000000000000000000000000000000000000000000000000081526004016101979061066e565b60405180910390fd5b7f000000000000000000000000000000000000000000000000000000000000000073ffffffffffffffffffffffffffffffffffffffff166370a08231306040518263ffffffff1660e01b81526004016101f991906105f3565b60206040518083038186803b15801561021157600080fd5b505afa158015610225573d6000803e3d6000fd5b505050506040513d601f19601f82011682018060405250810190610249919061051c565b81111561028b576040517f08c379a0000000000000000000000000000000000000000000000000000000008152600401610282906106ce565b60405180910390fd5b7f000000000000000000000000000000000000000000000000000000000000000073ffffffffffffffffffffffffffffffffffffffff166323b872dd3330846040518463ffffffff1660e01b81526004016102e89392919061060e565b602060405180830381600087803b15801561030257600080fd5b505af1158015610316573d6000803e3d6000fd5b505050506040513d601f19601f8201168201806040525081019061033a91906104ef565b610379576040517f08c379a00000000000000000000000000000000000000000000000000000000081526004016103709061068e565b60405180910390fd5b7f000000000000000000000000000000000000000000000000000000000000000073ffffffffffffffffffffffffffffffffffffffff1663a9059cbb33836040518363ffffffff1660e01b81526004016103d4929190610645565b602060405180830381600087803b1580156103ee57600080fd5b505af1158015610402573d6000803e3d6000fd5b505050506040513d601f19601f8201168201806040525081019061042691906104ef565b610465576040517f08c379a000000000000000000000000000000000000000000000000000000000815260040161045c906106ae565b60405180910390fd5b7f4896181ff8f4543cc00db9fe9b6fb7e6f032b7eb772c72ab1ec1b4d2e03b93693382604051610496929190610645565b60405180910390a150565b7f000000000000000000000000000000000000000000000000000000000000000081565b6000815190506104d481610888565b92915050565b6000815190506104e98161089f565b92915050565b60006020828403121561050557610504610747565b5b6000610513848285016104c5565b91505092915050565b60006020828403121561053257610531610747565b5b6000610540848285016104da565b91505092915050565b610552816106ff565b82525050565b60006105656025836106ee565b91506105708261074c565b604082019050919050565b60006105886027836106ee565b91506105938261079b565b604082019050919050565b60006105ab6026836106ee565b91506105b6826107ea565b604082019050919050565b60006105ce602e836106ee565b91506105d982610839565b604082019050919050565b6105ed8161073d565b82525050565b60006020820190506106086000830184610549565b92915050565b60006060820190506106236000830186610549565b6106306020830185610549565b61063d60408301846105e4565b949350505050565b600060408201905061065a6000830185610549565b61066760208301846105e4565b9392505050565b6000602082019050818103600083015261068781610558565b9050919050565b600060208201905081810360008301526106a78161057b565b9050919050565b600060208201905081810360008301526106c78161059e565b9050919050565b600060208201905081810360008301526106e7816105c1565b9050919050565b600082825260208201905092915050565b600061070a8261071d565b9050919050565b60008115159050919050565b600073ffffffffffffffffffffffffffffffffffffffff82169050919050565b6000819050919050565b600080fd5b7f764b77656e746152656465656d65723a204e6f2062616c616e636520746f207260008201527f656465656d000000000000000000000000000000000000000000000000000000602082015250565b7f764b77656e746152656465656d65723a2076546f6b656e207472616e7366657260008201527f206661696c656400000000000000000000000000000000000000000000000000602082015250565b7f764b77656e746152656465656d65723a20746f6b656e207472616e736665722060008201527f6661696c65640000000000000000000000000000000000000000000000000000602082015250565b7f764b77656e746152656465656d65723a20496e73756666696369656e7420636f60008201527f6e74726163742062616c616e6365000000000000000000000000000000000000602082015250565b61089181610711565b811461089c57600080fd5b50565b6108a88161073d565b81146108b357600080fd5b5056fea26469706673582212204cd74541b39cdc1e75756a5ca9130bc0dee5a2379a11b0ac33a6b9775513b1e064736f6c63430008070033",
  "devdoc": {
    "details": "All vKwenta used for redemption is locked within this contract",
    "kind": "dev",
    "methods": {
      "redeem()": {
        "details": "caller must approve this contract to spend vToken"
      }
    },
    "title": "A redemption contract for Kwenta",
    "version": 1
  },
  "userdoc": {
    "kind": "user",
    "methods": {
      "redeem()": {
        "notice": "Allows caller to redeem an equivalent amount of token for vTokenvToken is locked within this contract prior to transfer of token"
      },
      "token()": {
        "notice": "token to be redeemed"
      },
      "vToken()": {
        "notice": "token to be burned"
      }
    },
    "version": 1
  },
  "storageLayout": {
    "storage": [],
    "types": null
  }
}