{
  "address": "0xDA0C33402Fc1e10d18c532F0Ed9c1A6c5C9e386C",
  "abi": [
    {
      "inputs": [
        {
          "internalType": "string",
          "name": "name",
          "type": "string"
        },
        {
          "internalType": "string",
          "name": "symbol",
          "type": "string"
        },
        {
          "internalType": "uint256",
          "name": "_initialSupply",
          "type": "uint256"
        },
        {
          "internalType": "address",
          "name": "_owner",
          "type": "address"
        },
        {
          "internalType": "address",
          "name": "_initialHolder",
          "type": "address"
        }
      ],
      "stateMutability": "nonpayable",
      "type": "constructor"
    },
    {
      "anonymous": false,
      "inputs": [
        {
          "indexed": true,
          "internalType": "address",
          "name": "owner",
          "type": "address"
        },
        {
          "indexed": true,
          "internalType": "address",
          "name": "spender",
          "type": "address"
        },
        {
          "indexed": false,
          "internalType": "uint256",
          "name": "value",
          "type": "uint256"
        }
      ],
      "name": "Approval",
      "type": "event"
    },
    {
      "anonymous": false,
      "inputs": [
        {
          "indexed": false,
          "internalType": "address",
          "name": "oldOwner",
          "type": "address"
        },
        {
          "indexed": false,
          "internalType": "address",
          "name": "newOwner",
          "type": "address"
        }
      ],
      "name": "OwnerChanged",
      "type": "event"
    },
    {
      "anonymous": false,
      "inputs": [
        {
          "indexed": false,
          "internalType": "address",
          "name": "newOwner",
          "type": "address"
        }
      ],
      "name": "OwnerNominated",
      "type": "event"
    },
    {
      "anonymous": false,
      "inputs": [
        {
          "indexed": true,
          "internalType": "address",
          "name": "from",
          "type": "address"
        },
        {
          "indexed": true,
          "internalType": "address",
          "name": "to",
          "type": "address"
        },
        {
          "indexed": false,
          "internalType": "uint256",
          "name": "value",
          "type": "uint256"
        }
      ],
      "name": "Transfer",
      "type": "event"
    },
    {
      "inputs": [],
      "name": "acceptOwnership",
      "outputs": [],
      "stateMutability": "nonpayable",
      "type": "function"
    },
    {
      "inputs": [
        {
          "internalType": "address",
          "name": "owner",
          "type": "address"
        },
        {
          "internalType": "address",
          "name": "spender",
          "type": "address"
        }
      ],
      "name": "allowance",
      "outputs": [
        {
          "internalType": "uint256",
          "name": "",
          "type": "uint256"
        }
      ],
      "stateMutability": "view",
      "type": "function"
    },
    {
      "inputs": [
        {
          "internalType": "address",
          "name": "spender",
          "type": "address"
        },
        {
          "internalType": "uint256",
          "name": "amount",
          "type": "uint256"
        }
      ],
      "name": "approve",
      "outputs": [
        {
          "internalType": "bool",
          "name": "",
          "type": "bool"
        }
      ],
      "stateMutability": "nonpayable",
      "type": "function"
    },
    {
      "inputs": [
        {
          "internalType": "address",
          "name": "account",
          "type": "address"
        }
      ],
      "name": "balanceOf",
      "outputs": [
        {
          "internalType": "uint256",
          "name": "",
          "type": "uint256"
        }
      ],
      "stateMutability": "view",
      "type": "function"
    },
    {
      "inputs": [
        {
          "internalType": "uint256",
          "name": "amount",
          "type": "uint256"
        }
      ],
      "name": "burn",
      "outputs": [],
      "stateMutability": "nonpayable",
      "type": "function"
    },
    {
      "inputs": [],
      "name": "decimals",
      "outputs": [
        {
          "internalType": "uint8",
          "name": "",
          "type": "uint8"
        }
      ],
      "stateMutability": "view",
      "type": "function"
    },
    {
      "inputs": [
        {
          "internalType": "address",
          "name": "spender",
          "type": "address"
        },
        {
          "internalType": "uint256",
          "name": "subtractedValue",
          "type": "uint256"
        }
      ],
      "name": "decreaseAllowance",
      "outputs": [
        {
          "internalType": "bool",
          "name": "",
          "type": "bool"
        }
      ],
      "stateMutability": "nonpayable",
      "type": "function"
    },
    {
      "inputs": [
        {
          "internalType": "address",
          "name": "spender",
          "type": "address"
        },
        {
          "internalType": "uint256",
          "name": "addedValue",
          "type": "uint256"
        }
      ],
      "name": "increaseAllowance",
      "outputs": [
        {
          "internalType": "bool",
          "name": "",
          "type": "bool"
        }
      ],
      "stateMutability": "nonpayable",
      "type": "function"
    },
    {
      "inputs": [
        {
          "internalType": "address",
          "name": "account",
          "type": "address"
        },
        {
          "internalType": "uint256",
          "name": "amount",
          "type": "uint256"
        }
      ],
      "name": "mint",
      "outputs": [],
      "stateMutability": "nonpayable",
      "type": "function"
    },
    {
      "inputs": [],
      "name": "name",
      "outputs": [
        {
          "internalType": "string",
          "name": "",
          "type": "string"
        }
      ],
      "stateMutability": "view",
      "type": "function"
    },
    {
      "inputs": [
        {
          "internalType": "address",
          "name": "_owner",
          "type": "address"
        }
      ],
      "name": "nominateNewOwner",
      "outputs": [],
      "stateMutability": "nonpayable",
      "type": "function"
    },
    {
      "inputs": [],
      "name": "nominatedOwner",
      "outputs": [
        {
          "internalType": "address",
          "name": "",
          "type": "address"
        }
      ],
      "stateMutability": "view",
      "type": "function"
    },
    {
      "inputs": [],
      "name": "owner",
      "outputs": [
        {
          "internalType": "address",
          "name": "",
          "type": "address"
        }
      ],
      "stateMutability": "view",
      "type": "function"
    },
    {
      "inputs": [
        {
          "internalType": "address",
          "name": "_supplySchedule",
          "type": "address"
        }
      ],
      "name": "setSupplySchedule",
      "outputs": [],
      "stateMutability": "nonpayable",
      "type": "function"
    },
    {
      "inputs": [],
      "name": "supplySchedule",
      "outputs": [
        {
          "internalType": "contract ISupplySchedule",
          "name": "",
          "type": "address"
        }
      ],
      "stateMutability": "view",
      "type": "function"
    },
    {
      "inputs": [],
      "name": "symbol",
      "outputs": [
        {
          "internalType": "string",
          "name": "",
          "type": "string"
        }
      ],
      "stateMutability": "view",
      "type": "function"
    },
    {
      "inputs": [],
      "name": "totalSupply",
      "outputs": [
        {
          "internalType": "uint256",
          "name": "",
          "type": "uint256"
        }
      ],
      "stateMutability": "view",
      "type": "function"
    },
    {
      "inputs": [
        {
          "internalType": "address",
          "name": "recipient",
          "type": "address"
        },
        {
          "internalType": "uint256",
          "name": "amount",
          "type": "uint256"
        }
      ],
      "name": "transfer",
      "outputs": [
        {
          "internalType": "bool",
          "name": "",
          "type": "bool"
        }
      ],
      "stateMutability": "nonpayable",
      "type": "function"
    },
    {
      "inputs": [
        {
          "internalType": "address",
          "name": "sender",
          "type": "address"
        },
        {
          "internalType": "address",
          "name": "recipient",
          "type": "address"
        },
        {
          "internalType": "uint256",
          "name": "amount",
          "type": "uint256"
        }
      ],
      "name": "transferFrom",
      "outputs": [
        {
          "internalType": "bool",
          "name": "",
          "type": "bool"
        }
      ],
      "stateMutability": "nonpayable",
      "type": "function"
    }
  ],
  "numDeployments": 1,
  "solcInputHash": "17ec38083914ccf902f3df7d381e2659",
  "bytecode": "0x60806040523480156200001157600080fd5b5060405162002aa938038062002aa983398181016040528101906200003791906200045b565b818585816003908051906020019062000052929190620002ff565b5080600490805190602001906200006b929190620002ff565b505050600073ffffffffffffffffffffffffffffffffffffffff168173ffffffffffffffffffffffffffffffffffffffff161415620000e1576040517f08c379a0000000000000000000000000000000000000000000000000000000008152600401620000d890620005be565b60405180910390fd5b80600560006101000a81548173ffffffffffffffffffffffffffffffffffffffff021916908373ffffffffffffffffffffffffffffffffffffffff1602179055507fb532073b38c83145e3e5135377a08bf9aab55bc0fd7c1179cd4fb995d2a5159c6000826040516200015692919062000591565b60405180910390a1506200017181846200017c60201b60201c565b505050505062000904565b600073ffffffffffffffffffffffffffffffffffffffff168273ffffffffffffffffffffffffffffffffffffffff161415620001ef576040517f08c379a0000000000000000000000000000000000000000000000000000000008152600401620001e690620005e0565b60405180910390fd5b6200020360008383620002f560201b60201c565b80600260008282546200021791906200068f565b92505081905550806000808473ffffffffffffffffffffffffffffffffffffffff1673ffffffffffffffffffffffffffffffffffffffff16815260200190815260200160002060008282546200026e91906200068f565b925050819055508173ffffffffffffffffffffffffffffffffffffffff16600073ffffffffffffffffffffffffffffffffffffffff167fddf252ad1be2c89b69c2b068fc378daa952ba7f163c4a11628f55a4df523b3ef83604051620002d5919062000602565b60405180910390a3620002f160008383620002fa60201b60201c565b5050565b505050565b505050565b8280546200030d9062000760565b90600052602060002090601f0160209004810192826200033157600085556200037d565b82601f106200034c57805160ff19168380011785556200037d565b828001600101855582156200037d579182015b828111156200037c5782518255916020019190600101906200035f565b5b5090506200038c919062000390565b5090565b5b80821115620003ab57600081600090555060010162000391565b5090565b6000620003c6620003c08462000648565b6200061f565b905082815260208101848484011115620003e557620003e46200085e565b5b620003f28482856200072a565b509392505050565b6000815190506200040b81620008d0565b92915050565b600082601f83011262000429576200042862000859565b5b81516200043b848260208601620003af565b91505092915050565b6000815190506200045581620008ea565b92915050565b600080600080600060a086880312156200047a576200047962000868565b5b600086015167ffffffffffffffff8111156200049b576200049a62000863565b5b620004a98882890162000411565b955050602086015167ffffffffffffffff811115620004cd57620004cc62000863565b5b620004db8882890162000411565b9450506040620004ee8882890162000444565b93505060606200050188828901620003fa565b92505060806200051488828901620003fa565b9150509295509295909350565b6200052c81620006ec565b82525050565b6000620005416019836200067e565b91506200054e826200087e565b602082019050919050565b600062000568601f836200067e565b91506200057582620008a7565b602082019050919050565b6200058b8162000720565b82525050565b6000604082019050620005a8600083018562000521565b620005b7602083018462000521565b9392505050565b60006020820190508181036000830152620005d98162000532565b9050919050565b60006020820190508181036000830152620005fb8162000559565b9050919050565b600060208201905062000619600083018462000580565b92915050565b60006200062b6200063e565b905062000639828262000796565b919050565b6000604051905090565b600067ffffffffffffffff8211156200066657620006656200082a565b5b62000671826200086d565b9050602081019050919050565b600082825260208201905092915050565b60006200069c8262000720565b9150620006a98362000720565b9250827fffffffffffffffffffffffffffffffffffffffffffffffffffffffffffffffff03821115620006e157620006e0620007cc565b5b828201905092915050565b6000620006f98262000700565b9050919050565b600073ffffffffffffffffffffffffffffffffffffffff82169050919050565b6000819050919050565b60005b838110156200074a5780820151818401526020810190506200072d565b838111156200075a576000848401525b50505050565b600060028204905060018216806200077957607f821691505b6020821081141562000790576200078f620007fb565b5b50919050565b620007a1826200086d565b810181811067ffffffffffffffff82111715620007c357620007c26200082a565b5b80604052505050565b7f4e487b7100000000000000000000000000000000000000000000000000000000600052601160045260246000fd5b7f4e487b7100000000000000000000000000000000000000000000000000000000600052602260045260246000fd5b7f4e487b7100000000000000000000000000000000000000000000000000000000600052604160045260246000fd5b600080fd5b600080fd5b600080fd5b600080fd5b6000601f19601f8301169050919050565b7f4f776e657220616464726573732063616e6e6f74206265203000000000000000600082015250565b7f45524332303a206d696e7420746f20746865207a65726f206164647265737300600082015250565b620008db81620006ec565b8114620008e757600080fd5b50565b620008f58162000720565b81146200090157600080fd5b50565b61219580620009146000396000f3fe608060405234801561001057600080fd5b50600436106101215760003560e01c806342966c68116100ad57806395d89b411161007157806395d89b41146102f6578063a457c2d714610314578063a9059cbb14610344578063c40dd66f14610374578063dd62ed3e1461039257610121565b806342966c681461026457806353a47bb71461028057806370a082311461029e57806379ba5097146102ce5780638da5cb5b146102d857610121565b806323b872dd116100f457806323b872dd146101ae578063313ce567146101de578063332f3256146101fc578063395093511461021857806340c10f191461024857610121565b806306fdde0314610126578063095ea7b3146101445780631627540c1461017457806318160ddd14610190575b600080fd5b61012e6103c2565b60405161013b9190611909565b60405180910390f35b61015e600480360381019061015991906115b4565b610454565b60405161016b91906118d3565b60405180910390f35b61018e600480360381019061018991906114f4565b610472565b005b6101986104f5565b6040516101a59190611aeb565b60405180910390f35b6101c860048036038101906101c39190611561565b6104ff565b6040516101d591906118d3565b60405180910390f35b6101e66105f7565b6040516101f39190611b06565b60405180910390f35b610216600480360381019061021191906114f4565b610600565b005b610232600480360381019061022d91906115b4565b6106bc565b60405161023f91906118d3565b60405180910390f35b610262600480360381019061025d91906115b4565b610768565b005b61027e600480360381019061027991906115f4565b610806565b005b610288610813565b604051610295919061188f565b60405180910390f35b6102b860048036038101906102b391906114f4565b610839565b6040516102c59190611aeb565b60405180910390f35b6102d6610881565b005b6102e0610a35565b6040516102ed919061188f565b60405180910390f35b6102fe610a5b565b60405161030b9190611909565b60405180910390f35b61032e600480360381019061032991906115b4565b610aed565b60405161033b91906118d3565b60405180910390f35b61035e600480360381019061035991906115b4565b610bd8565b60405161036b91906118d3565b60405180910390f35b61037c610bf6565b60405161038991906118ee565b60405180910390f35b6103ac60048036038101906103a79190611521565b610c1c565b6040516103b99190611aeb565b60405180910390f35b6060600380546103d190611c85565b80601f01602080910402602001604051908101604052809291908181526020018280546103fd90611c85565b801561044a5780601f1061041f5761010080835404028352916020019161044a565b820191906000526020600020905b81548152906001019060200180831161042d57829003601f168201915b5050505050905090565b6000610468610461610ca3565b8484610cab565b6001905092915050565b61047a610e76565b80600660006101000a81548173ffffffffffffffffffffffffffffffffffffffff021916908373ffffffffffffffffffffffffffffffffffffffff1602179055507f906a1c6bd7e3091ea86693dd029a831c19049ce77f1dce2ce0bab1cacbabce22816040516104ea919061188f565b60405180910390a150565b6000600254905090565b600061050c848484610f08565b6000600160008673ffffffffffffffffffffffffffffffffffffffff1673ffffffffffffffffffffffffffffffffffffffff1681526020019081526020016000206000610557610ca3565b73ffffffffffffffffffffffffffffffffffffffff1673ffffffffffffffffffffffffffffffffffffffff168152602001908152602001600020549050828110156105d7576040517f08c379a00000000000000000000000000000000000000000000000000000000081526004016105ce90611a2b565b60405180910390fd5b6105eb856105e3610ca3565b858403610cab565b60019150509392505050565b60006012905090565b610608610e76565b600073ffffffffffffffffffffffffffffffffffffffff168173ffffffffffffffffffffffffffffffffffffffff161415610678576040517f08c379a000000000000000000000000000000000000000000000000000000000815260040161066f9061198b565b60405180910390fd5b80600760006101000a81548173ffffffffffffffffffffffffffffffffffffffff021916908373ffffffffffffffffffffffffffffffffffffffff16021790555050565b600061075e6106c9610ca3565b8484600160006106d7610ca3565b73ffffffffffffffffffffffffffffffffffffffff1673ffffffffffffffffffffffffffffffffffffffff16815260200190815260200160002060008873ffffffffffffffffffffffffffffffffffffffff1673ffffffffffffffffffffffffffffffffffffffff168152602001908152602001600020546107599190611b3d565b610cab565b6001905092915050565b600760009054906101000a900473ffffffffffffffffffffffffffffffffffffffff1673ffffffffffffffffffffffffffffffffffffffff163373ffffffffffffffffffffffffffffffffffffffff16146107f8576040517f08c379a00000000000000000000000000000000000000000000000000000000081526004016107ef906119eb565b60405180910390fd5b6108028282611189565b5050565b61081033826112e9565b50565b600660009054906101000a900473ffffffffffffffffffffffffffffffffffffffff1681565b60008060008373ffffffffffffffffffffffffffffffffffffffff1673ffffffffffffffffffffffffffffffffffffffff168152602001908152602001600020549050919050565b600660009054906101000a900473ffffffffffffffffffffffffffffffffffffffff1673ffffffffffffffffffffffffffffffffffffffff163373ffffffffffffffffffffffffffffffffffffffff1614610911576040517f08c379a00000000000000000000000000000000000000000000000000000000081526004016109089061194b565b60405180910390fd5b7fb532073b38c83145e3e5135377a08bf9aab55bc0fd7c1179cd4fb995d2a5159c600560009054906101000a900473ffffffffffffffffffffffffffffffffffffffff16600660009054906101000a900473ffffffffffffffffffffffffffffffffffffffff166040516109869291906118aa565b60405180910390a1600660009054906101000a900473ffffffffffffffffffffffffffffffffffffffff16600560006101000a81548173ffffffffffffffffffffffffffffffffffffffff021916908373ffffffffffffffffffffffffffffffffffffffff1602179055506000600660006101000a81548173ffffffffffffffffffffffffffffffffffffffff021916908373ffffffffffffffffffffffffffffffffffffffff160217905550565b600560009054906101000a900473ffffffffffffffffffffffffffffffffffffffff1681565b606060048054610a6a90611c85565b80601f0160208091040260200160405190810160405280929190818152602001828054610a9690611c85565b8015610ae35780601f10610ab857610100808354040283529160200191610ae3565b820191906000526020600020905b815481529060010190602001808311610ac657829003601f168201915b5050505050905090565b60008060016000610afc610ca3565b73ffffffffffffffffffffffffffffffffffffffff1673ffffffffffffffffffffffffffffffffffffffff16815260200190815260200160002060008573ffffffffffffffffffffffffffffffffffffffff1673ffffffffffffffffffffffffffffffffffffffff16815260200190815260200160002054905082811015610bb9576040517f08c379a0000000000000000000000000000000000000000000000000000000008152600401610bb090611aab565b60405180910390fd5b610bcd610bc4610ca3565b85858403610cab565b600191505092915050565b6000610bec610be5610ca3565b8484610f08565b6001905092915050565b600760009054906101000a900473ffffffffffffffffffffffffffffffffffffffff1681565b6000600160008473ffffffffffffffffffffffffffffffffffffffff1673ffffffffffffffffffffffffffffffffffffffff16815260200190815260200160002060008373ffffffffffffffffffffffffffffffffffffffff1673ffffffffffffffffffffffffffffffffffffffff16815260200190815260200160002054905092915050565b600033905090565b600073ffffffffffffffffffffffffffffffffffffffff168373ffffffffffffffffffffffffffffffffffffffff161415610d1b576040517f08c379a0000000000000000000000000000000000000000000000000000000008152600401610d1290611a8b565b60405180910390fd5b600073ffffffffffffffffffffffffffffffffffffffff168273ffffffffffffffffffffffffffffffffffffffff161415610d8b576040517f08c379a0000000000000000000000000000000000000000000000000000000008152600401610d82906119ab565b60405180910390fd5b80600160008573ffffffffffffffffffffffffffffffffffffffff1673ffffffffffffffffffffffffffffffffffffffff16815260200190815260200160002060008473ffffffffffffffffffffffffffffffffffffffff1673ffffffffffffffffffffffffffffffffffffffff168152602001908152602001600020819055508173ffffffffffffffffffffffffffffffffffffffff168373ffffffffffffffffffffffffffffffffffffffff167f8c5be1e5ebec7d5bd14f71427d1e84f3dd0314c0f7b2291e5b200ac8c7c3b92583604051610e699190611aeb565b60405180910390a3505050565b600560009054906101000a900473ffffffffffffffffffffffffffffffffffffffff1673ffffffffffffffffffffffffffffffffffffffff163373ffffffffffffffffffffffffffffffffffffffff1614610f06576040517f08c379a0000000000000000000000000000000000000000000000000000000008152600401610efd90611a0b565b60405180910390fd5b565b600073ffffffffffffffffffffffffffffffffffffffff168373ffffffffffffffffffffffffffffffffffffffff161415610f78576040517f08c379a0000000000000000000000000000000000000000000000000000000008152600401610f6f90611a6b565b60405180910390fd5b600073ffffffffffffffffffffffffffffffffffffffff168273ffffffffffffffffffffffffffffffffffffffff161415610fe8576040517f08c379a0000000000000000000000000000000000000000000000000000000008152600401610fdf9061192b565b60405180910390fd5b610ff38383836114c0565b60008060008573ffffffffffffffffffffffffffffffffffffffff1673ffffffffffffffffffffffffffffffffffffffff16815260200190815260200160002054905081811015611079576040517f08c379a0000000000000000000000000000000000000000000000000000000008152600401611070906119cb565b60405180910390fd5b8181036000808673ffffffffffffffffffffffffffffffffffffffff1673ffffffffffffffffffffffffffffffffffffffff16815260200190815260200160002081905550816000808573ffffffffffffffffffffffffffffffffffffffff1673ffffffffffffffffffffffffffffffffffffffff168152602001908152602001600020600082825461110c9190611b3d565b925050819055508273ffffffffffffffffffffffffffffffffffffffff168473ffffffffffffffffffffffffffffffffffffffff167fddf252ad1be2c89b69c2b068fc378daa952ba7f163c4a11628f55a4df523b3ef846040516111709190611aeb565b60405180910390a36111838484846114c5565b50505050565b600073ffffffffffffffffffffffffffffffffffffffff168273ffffffffffffffffffffffffffffffffffffffff1614156111f9576040517f08c379a00000000000000000000000000000000000000000000000000000000081526004016111f090611acb565b60405180910390fd5b611205600083836114c0565b80600260008282546112179190611b3d565b92505081905550806000808473ffffffffffffffffffffffffffffffffffffffff1673ffffffffffffffffffffffffffffffffffffffff168152602001908152602001600020600082825461126c9190611b3d565b925050819055508173ffffffffffffffffffffffffffffffffffffffff16600073ffffffffffffffffffffffffffffffffffffffff167fddf252ad1be2c89b69c2b068fc378daa952ba7f163c4a11628f55a4df523b3ef836040516112d19190611aeb565b60405180910390a36112e5600083836114c5565b5050565b600073ffffffffffffffffffffffffffffffffffffffff168273ffffffffffffffffffffffffffffffffffffffff161415611359576040517f08c379a000000000000000000000000000000000000000000000000000000000815260040161135090611a4b565b60405180910390fd5b611365826000836114c0565b60008060008473ffffffffffffffffffffffffffffffffffffffff1673ffffffffffffffffffffffffffffffffffffffff168152602001908152602001600020549050818110156113eb576040517f08c379a00000000000000000000000000000000000000000000000000000000081526004016113e29061196b565b60405180910390fd5b8181036000808573ffffffffffffffffffffffffffffffffffffffff1673ffffffffffffffffffffffffffffffffffffffff1681526020019081526020016000208190555081600260008282546114429190611b93565b92505081905550600073ffffffffffffffffffffffffffffffffffffffff168373ffffffffffffffffffffffffffffffffffffffff167fddf252ad1be2c89b69c2b068fc378daa952ba7f163c4a11628f55a4df523b3ef846040516114a79190611aeb565b60405180910390a36114bb836000846114c5565b505050565b505050565b505050565b6000813590506114d981612131565b92915050565b6000813590506114ee81612148565b92915050565b60006020828403121561150a57611509611d15565b5b6000611518848285016114ca565b91505092915050565b6000806040838503121561153857611537611d15565b5b6000611546858286016114ca565b9250506020611557858286016114ca565b9150509250929050565b60008060006060848603121561157a57611579611d15565b5b6000611588868287016114ca565b9350506020611599868287016114ca565b92505060406115aa868287016114df565b9150509250925092565b600080604083850312156115cb576115ca611d15565b5b60006115d9858286016114ca565b92505060206115ea858286016114df565b9150509250929050565b60006020828403121561160a57611609611d15565b5b6000611618848285016114df565b91505092915050565b61162a81611bc7565b82525050565b61163981611bd9565b82525050565b61164881611c1c565b82525050565b600061165982611b21565b6116638185611b2c565b9350611673818560208601611c52565b61167c81611d1a565b840191505092915050565b6000611694602383611b2c565b915061169f82611d2b565b604082019050919050565b60006116b7603583611b2c565b91506116c282611d7a565b604082019050919050565b60006116da602283611b2c565b91506116e582611dc9565b604082019050919050565b60006116fd601783611b2c565b915061170882611e18565b602082019050919050565b6000611720602283611b2c565b915061172b82611e41565b604082019050919050565b6000611743602683611b2c565b915061174e82611e90565b604082019050919050565b6000611766603383611b2c565b915061177182611edf565b604082019050919050565b6000611789602f83611b2c565b915061179482611f2e565b604082019050919050565b60006117ac602883611b2c565b91506117b782611f7d565b604082019050919050565b60006117cf602183611b2c565b91506117da82611fcc565b604082019050919050565b60006117f2602583611b2c565b91506117fd8261201b565b604082019050919050565b6000611815602483611b2c565b91506118208261206a565b604082019050919050565b6000611838602583611b2c565b9150611843826120b9565b604082019050919050565b600061185b601f83611b2c565b915061186682612108565b602082019050919050565b61187a81611c05565b82525050565b61188981611c0f565b82525050565b60006020820190506118a46000830184611621565b92915050565b60006040820190506118bf6000830185611621565b6118cc6020830184611621565b9392505050565b60006020820190506118e86000830184611630565b92915050565b6000602082019050611903600083018461163f565b92915050565b60006020820190508181036000830152611923818461164e565b905092915050565b6000602082019050818103600083015261194481611687565b9050919050565b60006020820190508181036000830152611964816116aa565b9050919050565b60006020820190508181036000830152611984816116cd565b9050919050565b600060208201905081810360008301526119a4816116f0565b9050919050565b600060208201905081810360008301526119c481611713565b9050919050565b600060208201905081810360008301526119e481611736565b9050919050565b60006020820190508181036000830152611a0481611759565b9050919050565b60006020820190508181036000830152611a248161177c565b9050919050565b60006020820190508181036000830152611a448161179f565b9050919050565b60006020820190508181036000830152611a64816117c2565b9050919050565b60006020820190508181036000830152611a84816117e5565b9050919050565b60006020820190508181036000830152611aa481611808565b9050919050565b60006020820190508181036000830152611ac48161182b565b9050919050565b60006020820190508181036000830152611ae48161184e565b9050919050565b6000602082019050611b006000830184611871565b92915050565b6000602082019050611b1b6000830184611880565b92915050565b600081519050919050565b600082825260208201905092915050565b6000611b4882611c05565b9150611b5383611c05565b9250827fffffffffffffffffffffffffffffffffffffffffffffffffffffffffffffffff03821115611b8857611b87611cb7565b5b828201905092915050565b6000611b9e82611c05565b9150611ba983611c05565b925082821015611bbc57611bbb611cb7565b5b828203905092915050565b6000611bd282611be5565b9050919050565b60008115159050919050565b600073ffffffffffffffffffffffffffffffffffffffff82169050919050565b6000819050919050565b600060ff82169050919050565b6000611c2782611c2e565b9050919050565b6000611c3982611c40565b9050919050565b6000611c4b82611be5565b9050919050565b60005b83811015611c70578082015181840152602081019050611c55565b83811115611c7f576000848401525b50505050565b60006002820490506001821680611c9d57607f821691505b60208210811415611cb157611cb0611ce6565b5b50919050565b7f4e487b7100000000000000000000000000000000000000000000000000000000600052601160045260246000fd5b7f4e487b7100000000000000000000000000000000000000000000000000000000600052602260045260246000fd5b600080fd5b6000601f19601f8301169050919050565b7f45524332303a207472616e7366657220746f20746865207a65726f206164647260008201527f6573730000000000000000000000000000000000000000000000000000000000602082015250565b7f596f75206d757374206265206e6f6d696e61746564206265666f726520796f7560008201527f2063616e20616363657074206f776e6572736869700000000000000000000000602082015250565b7f45524332303a206275726e20616d6f756e7420657863656564732062616c616e60008201527f6365000000000000000000000000000000000000000000000000000000000000602082015250565b7f4b77656e74613a20496e76616c69642041646472657373000000000000000000600082015250565b7f45524332303a20617070726f766520746f20746865207a65726f20616464726560008201527f7373000000000000000000000000000000000000000000000000000000000000602082015250565b7f45524332303a207472616e7366657220616d6f756e742065786365656473206260008201527f616c616e63650000000000000000000000000000000000000000000000000000602082015250565b7f4b77656e74613a204f6e6c7920537570706c795363686564756c652063616e2060008201527f706572666f726d207468697320616374696f6e00000000000000000000000000602082015250565b7f4f6e6c792074686520636f6e7472616374206f776e6572206d6179207065726660008201527f6f726d207468697320616374696f6e0000000000000000000000000000000000602082015250565b7f45524332303a207472616e7366657220616d6f756e742065786365656473206160008201527f6c6c6f77616e6365000000000000000000000000000000000000000000000000602082015250565b7f45524332303a206275726e2066726f6d20746865207a65726f2061646472657360008201527f7300000000000000000000000000000000000000000000000000000000000000602082015250565b7f45524332303a207472616e736665722066726f6d20746865207a65726f20616460008201527f6472657373000000000000000000000000000000000000000000000000000000602082015250565b7f45524332303a20617070726f76652066726f6d20746865207a65726f2061646460008201527f7265737300000000000000000000000000000000000000000000000000000000602082015250565b7f45524332303a2064656372656173656420616c6c6f77616e63652062656c6f7760008201527f207a65726f000000000000000000000000000000000000000000000000000000602082015250565b7f45524332303a206d696e7420746f20746865207a65726f206164647265737300600082015250565b61213a81611bc7565b811461214557600080fd5b50565b61215181611c05565b811461215c57600080fd5b5056fea2646970667358221220446437ad9577d2f605bd3212d2a7ce20306827b96febf257e725461bde99bd2364736f6c63430008070033",
  "devdoc": {
    "kind": "dev",
    "methods": {
      "allowance(address,address)": {
        "details": "See {IERC20-allowance}."
      },
      "approve(address,uint256)": {
        "details": "See {IERC20-approve}. Requirements: - `spender` cannot be the zero address."
      },
      "balanceOf(address)": {
        "details": "See {IERC20-balanceOf}."
      },
      "decimals()": {
        "details": "Returns the number of decimals used to get its user representation. For example, if `decimals` equals `2`, a balance of `505` tokens should be displayed to a user as `5.05` (`505 / 10 ** 2`). Tokens usually opt for a value of 18, imitating the relationship between Ether and Wei. This is the value {ERC20} uses, unless this function is overridden; NOTE: This information is only used for _display_ purposes: it in no way affects any of the arithmetic of the contract, including {IERC20-balanceOf} and {IERC20-transfer}."
      },
      "decreaseAllowance(address,uint256)": {
        "details": "Atomically decreases the allowance granted to `spender` by the caller. This is an alternative to {approve} that can be used as a mitigation for problems described in {IERC20-approve}. Emits an {Approval} event indicating the updated allowance. Requirements: - `spender` cannot be the zero address. - `spender` must have allowance for the caller of at least `subtractedValue`."
      },
      "increaseAllowance(address,uint256)": {
        "details": "Atomically increases the allowance granted to `spender` by the caller. This is an alternative to {approve} that can be used as a mitigation for problems described in {IERC20-approve}. Emits an {Approval} event indicating the updated allowance. Requirements: - `spender` cannot be the zero address."
      },
      "name()": {
        "details": "Returns the name of the token."
      },
      "symbol()": {
        "details": "Returns the symbol of the token, usually a shorter version of the name."
      },
      "totalSupply()": {
        "details": "See {IERC20-totalSupply}."
      },
      "transfer(address,uint256)": {
        "details": "See {IERC20-transfer}. Requirements: - `recipient` cannot be the zero address. - the caller must have a balance of at least `amount`."
      },
      "transferFrom(address,address,uint256)": {
        "details": "See {IERC20-transferFrom}. Emits an {Approval} event indicating the updated allowance. This is not required by the EIP. See the note at the beginning of {ERC20}. Requirements: - `sender` and `recipient` cannot be the zero address. - `sender` must have a balance of at least `amount`. - the caller must have allowance for ``sender``'s tokens of at least `amount`."
      }
    },
    "version": 1
  },
  "userdoc": {
    "kind": "user",
    "methods": {
      "supplySchedule()": {
        "notice": "defines inflationary supply schedule, according to which the KWENTA inflationary supply is released"
      }
    },
    "version": 1
  },
  "storageLayout": {
    "storage": [
      {
        "astId": 5982,
        "contract": "contracts/Kwenta.sol:Kwenta",
        "label": "_balances",
        "offset": 0,
        "slot": "0",
        "type": "t_mapping(t_address,t_uint256)"
      },
      {
        "astId": 5988,
        "contract": "contracts/Kwenta.sol:Kwenta",
        "label": "_allowances",
        "offset": 0,
        "slot": "1",
        "type": "t_mapping(t_address,t_mapping(t_address,t_uint256))"
      },
      {
        "astId": 5990,
        "contract": "contracts/Kwenta.sol:Kwenta",
        "label": "_totalSupply",
        "offset": 0,
        "slot": "2",
        "type": "t_uint256"
      },
      {
        "astId": 5992,
        "contract": "contracts/Kwenta.sol:Kwenta",
        "label": "_name",
        "offset": 0,
        "slot": "3",
        "type": "t_string_storage"
      },
      {
        "astId": 5994,
        "contract": "contracts/Kwenta.sol:Kwenta",
        "label": "_symbol",
        "offset": 0,
        "slot": "4",
        "type": "t_string_storage"
      },
      {
        "astId": 6516,
        "contract": "contracts/Kwenta.sol:Kwenta",
        "label": "owner",
        "offset": 0,
        "slot": "5",
        "type": "t_address"
      },
      {
        "astId": 6518,
        "contract": "contracts/Kwenta.sol:Kwenta",
        "label": "nominatedOwner",
        "offset": 0,
        "slot": "6",
        "type": "t_address"
      },
      {
        "astId": 1832,
        "contract": "contracts/Kwenta.sol:Kwenta",
        "label": "supplySchedule",
        "offset": 0,
        "slot": "7",
        "type": "t_contract(ISupplySchedule)5728"
      }
    ],
    "types": {
      "t_address": {
        "encoding": "inplace",
        "label": "address",
        "numberOfBytes": "20"
      },
      "t_contract(ISupplySchedule)5728": {
        "encoding": "inplace",
        "label": "contract ISupplySchedule",
        "numberOfBytes": "20"
      },
      "t_mapping(t_address,t_mapping(t_address,t_uint256))": {
        "encoding": "mapping",
        "key": "t_address",
        "label": "mapping(address => mapping(address => uint256))",
        "numberOfBytes": "32",
        "value": "t_mapping(t_address,t_uint256)"
      },
      "t_mapping(t_address,t_uint256)": {
        "encoding": "mapping",
        "key": "t_address",
        "label": "mapping(address => uint256)",
        "numberOfBytes": "32",
        "value": "t_uint256"
      },
      "t_string_storage": {
        "encoding": "bytes",
        "label": "string",
        "numberOfBytes": "32"
      },
      "t_uint256": {
        "encoding": "inplace",
        "label": "uint256",
        "numberOfBytes": "32"
      }
    }
  }
}