{
  "address": "0x5733Ef72c134E7A276029CB4ba07Bff8b1163086",
  "abi": [
    {
      "inputs": [
        {
          "internalType": "address",
          "name": "_owner",
          "type": "address"
        },
        {
          "internalType": "address",
          "name": "_token",
          "type": "address"
        }
      ],
      "stateMutability": "nonpayable",
      "type": "constructor"
    },
    {
      "anonymous": false,
      "inputs": [
        {
          "indexed": false,
          "internalType": "uint256",
          "name": "index",
          "type": "uint256"
        },
        {
          "indexed": false,
          "internalType": "address",
          "name": "account",
          "type": "address"
        },
        {
          "indexed": false,
          "internalType": "uint256",
          "name": "amount",
          "type": "uint256"
        },
        {
          "indexed": false,
          "internalType": "uint256",
          "name": "epoch",
          "type": "uint256"
        }
      ],
      "name": "Claimed",
      "type": "event"
    },
    {
      "anonymous": false,
      "inputs": [
        {
          "indexed": false,
          "internalType": "uint256",
          "name": "epoch",
          "type": "uint256"
        }
      ],
      "name": "MerkleRootModified",
      "type": "event"
    },
    {
      "anonymous": false,
      "inputs": [
        {
          "indexed": false,
          "internalType": "address",
          "name": "oldOwner",
          "type": "address"
        },
        {
          "indexed": false,
          "internalType": "address",
          "name": "newOwner",
          "type": "address"
        }
      ],
      "name": "OwnerChanged",
      "type": "event"
    },
    {
      "anonymous": false,
      "inputs": [
        {
          "indexed": false,
          "internalType": "address",
          "name": "newOwner",
          "type": "address"
        }
      ],
      "name": "OwnerNominated",
      "type": "event"
    },
    {
      "inputs": [],
      "name": "acceptOwnership",
      "outputs": [],
      "stateMutability": "nonpayable",
      "type": "function"
    },
    {
      "inputs": [
        {
          "internalType": "uint256",
          "name": "index",
          "type": "uint256"
        },
        {
          "internalType": "address",
          "name": "account",
          "type": "address"
        },
        {
          "internalType": "uint256",
          "name": "amount",
          "type": "uint256"
        },
        {
          "internalType": "bytes32[]",
          "name": "merkleProof",
          "type": "bytes32[]"
        },
        {
          "internalType": "uint256",
          "name": "epoch",
          "type": "uint256"
        }
      ],
      "name": "claim",
      "outputs": [],
      "stateMutability": "nonpayable",
      "type": "function"
    },
    {
      "inputs": [
        {
          "components": [
            {
              "internalType": "uint256",
              "name": "index",
              "type": "uint256"
            },
            {
              "internalType": "address",
              "name": "account",
              "type": "address"
            },
            {
              "internalType": "uint256",
              "name": "amount",
              "type": "uint256"
            },
            {
              "internalType": "bytes32[]",
              "name": "merkleProof",
              "type": "bytes32[]"
            },
            {
              "internalType": "uint256",
              "name": "epoch",
              "type": "uint256"
            }
          ],
          "internalType": "struct IMultipleMerkleDistributor.Claims[]",
          "name": "claims",
          "type": "tuple[]"
        }
      ],
      "name": "claimMultiple",
      "outputs": [],
      "stateMutability": "nonpayable",
      "type": "function"
    },
    {
      "inputs": [
        {
          "internalType": "uint256",
          "name": "index",
          "type": "uint256"
        },
        {
          "internalType": "uint256",
          "name": "epoch",
          "type": "uint256"
        }
      ],
      "name": "isClaimed",
      "outputs": [
        {
          "internalType": "bool",
          "name": "",
          "type": "bool"
        }
      ],
      "stateMutability": "view",
      "type": "function"
    },
    {
      "inputs": [
        {
          "internalType": "uint256",
          "name": "",
          "type": "uint256"
        }
      ],
      "name": "merkleRoots",
      "outputs": [
        {
          "internalType": "bytes32",
          "name": "",
          "type": "bytes32"
        }
      ],
      "stateMutability": "view",
      "type": "function"
    },
    {
      "inputs": [
        {
          "internalType": "address",
          "name": "_owner",
          "type": "address"
        }
      ],
      "name": "nominateNewOwner",
      "outputs": [],
      "stateMutability": "nonpayable",
      "type": "function"
    },
    {
      "inputs": [],
      "name": "nominatedOwner",
      "outputs": [
        {
          "internalType": "address",
          "name": "",
          "type": "address"
        }
      ],
      "stateMutability": "view",
      "type": "function"
    },
    {
      "inputs": [],
      "name": "owner",
      "outputs": [
        {
          "internalType": "address",
          "name": "",
          "type": "address"
        }
      ],
      "stateMutability": "view",
      "type": "function"
    },
    {
      "inputs": [
        {
          "internalType": "bytes32",
          "name": "merkleRoot",
          "type": "bytes32"
        },
        {
          "internalType": "uint256",
          "name": "epoch",
          "type": "uint256"
        }
      ],
      "name": "setMerkleRootForEpoch",
      "outputs": [],
      "stateMutability": "nonpayable",
      "type": "function"
    },
    {
      "inputs": [],
      "name": "token",
      "outputs": [
        {
          "internalType": "address",
          "name": "",
          "type": "address"
        }
      ],
      "stateMutability": "view",
      "type": "function"
    }
  ],
  "numDeployments": 1,
  "solcInputHash": "b560387ef8e523f752ce28e86fda37a4",
  "bytecode": "0x60a060405234801561001057600080fd5b50604051610fe9380380610fe983398101604081905261002f91610110565b816001600160a01b03811661008a5760405162461bcd60e51b815260206004820152601960248201527f4f776e657220616464726573732063616e6e6f74206265203000000000000000604482015260640160405180910390fd5b600080546001600160a01b0319166001600160a01b03831690811782556040805192835260208301919091527fb532073b38c83145e3e5135377a08bf9aab55bc0fd7c1179cd4fb995d2a5159c910160405180910390a1506001600160a01b031660805250610143565b80516001600160a01b038116811461010b57600080fd5b919050565b6000806040838503121561012357600080fd5b61012c836100f4565b915061013a602084016100f4565b90509250929050565b608051610e84610165600039600081816101b201526105db0152610e846000f3fe608060405234801561001057600080fd5b50600436106100be5760003560e01c8063ab5943db11610076578063d0b55e8c1161005b578063d0b55e8c14610177578063f364c90c1461018a578063fc0c546a146101ad57600080fd5b8063ab5943db14610151578063c02bb7ba1461016457600080fd5b806371c5ecb1116100a757806371c5ecb11461010857806379ba5097146101365780638da5cb5b1461013e57600080fd5b80631627540c146100c357806353a47bb7146100d8575b600080fd5b6100d66100d1366004610b8a565b6101d4565b005b6001546100eb906001600160a01b031681565b6040516001600160a01b0390911681526020015b60405180910390f35b610128610116366004610ba5565b60026020526000908152604090205481565b6040519081526020016100ff565b6100d661023d565b6000546100eb906001600160a01b031681565b6100d661015f366004610c0a565b610341565b6100d6610172366004610c4c565b61043f565b6100d6610185366004610cbc565b61065b565b61019d610198366004610cbc565b6106b2565b60405190151581526020016100ff565b6100eb7f000000000000000000000000000000000000000000000000000000000000000081565b6101dc6106fd565b6001805473ffffffffffffffffffffffffffffffffffffffff19166001600160a01b0383169081179091556040519081527f906a1c6bd7e3091ea86693dd029a831c19049ce77f1dce2ce0bab1cacbabce229060200160405180910390a150565b6001546001600160a01b031633146102c25760405162461bcd60e51b815260206004820152603560248201527f596f75206d757374206265206e6f6d696e61746564206265666f726520796f7560448201527f2063616e20616363657074206f776e657273686970000000000000000000000060648201526084015b60405180910390fd5b600054600154604080516001600160a01b0393841681529290911660208301527fb532073b38c83145e3e5135377a08bf9aab55bc0fd7c1179cd4fb995d2a5159c910160405180910390a1600180546000805473ffffffffffffffffffffffffffffffffffffffff199081166001600160a01b03841617909155169055565b8060005b818110156104395761043184848381811061036257610362610cde565b90506020028101906103749190610cf4565b3585858481811061038757610387610cde565b90506020028101906103999190610cf4565b6103aa906040810190602001610b8a565b8686858181106103bc576103bc610cde565b90506020028101906103ce9190610cf4565b604001358787868181106103e4576103e4610cde565b90506020028101906103f69190610cf4565b610404906060810190610d14565b89898881811061041657610416610cde565b90506020028101906104289190610cf4565b6080013561043f565b600101610345565b50505050565b61044986826106b2565b156104bc5760405162461bcd60e51b815260206004820152603060248201527f4d756c7469706c654d65726b6c654469737472696275746f723a2044726f702060448201527f616c726561647920636c61696d65642e0000000000000000000000000000000060648201526084016102b9565b60408051602081018890526bffffffffffffffffffffffff19606088901b169181019190915260548101859052600090607401604051602081830303815290604052805190602001209050610552848480806020026020016040519081016040528093929190818152602001838360200280828437600092018290525087815260026020526040902054925085915061077f9050565b6105c45760405162461bcd60e51b815260206004820152602960248201527f4d756c7469706c654d65726b6c654469737472696275746f723a20496e76616c60448201527f69642070726f6f662e000000000000000000000000000000000000000000000060648201526084016102b9565b6105ce8783610795565b6106026001600160a01b037f00000000000000000000000000000000000000000000000000000000000000001687876107de565b604080518881526001600160a01b0388166020820152908101869052606081018390527fd9cb1e2714d65a111c0f20f060176ad657496bd47a3de04ec7c3d4ca232112ac9060800160405180910390a150505050505050565b6106636106fd565b60008181526002602052604090819020839055517f7835b531ba83151bc18466c9b0ab4b168056cb422098530a34952b03f87ba519906106a69083815260200190565b60405180910390a15050565b6000806106c161010085610d74565b905060006106d161010086610d88565b60009485526003602090815260408087209487529390529190932054600190911b908116149392505050565b6000546001600160a01b0316331461077d5760405162461bcd60e51b815260206004820152602f60248201527f4f6e6c792074686520636f6e7472616374206f776e6572206d6179207065726660448201527f6f726d207468697320616374696f6e000000000000000000000000000000000060648201526084016102b9565b565b60008261078c8584610863565b14949350505050565b60006107a361010084610d74565b905060006107b361010085610d88565b6000938452600360209081526040808620948652939052919092208054600190921b90911790555050565b604080516001600160a01b038416602482015260448082018490528251808303909101815260649091019091526020810180517bffffffffffffffffffffffffffffffffffffffffffffffffffffffff167fa9059cbb0000000000000000000000000000000000000000000000000000000017905261085e9084906108b0565b505050565b600081815b84518110156108a8576108948286838151811061088757610887610cde565b6020026020010151610995565b9150806108a081610d9c565b915050610868565b509392505050565b6000610905826040518060400160405280602081526020017f5361666545524332303a206c6f772d6c6576656c2063616c6c206661696c6564815250856001600160a01b03166109c79092919063ffffffff16565b80519091501561085e57808060200190518101906109239190610dc3565b61085e5760405162461bcd60e51b815260206004820152602a60248201527f5361666545524332303a204552433230206f7065726174696f6e20646964206e60448201527f6f7420737563636565640000000000000000000000000000000000000000000060648201526084016102b9565b60008183106109b15760008281526020849052604090206109c0565b60008381526020839052604090205b9392505050565b60606109d684846000856109de565b949350505050565b606082471015610a565760405162461bcd60e51b815260206004820152602660248201527f416464726573733a20696e73756666696369656e742062616c616e636520666f60448201527f722063616c6c000000000000000000000000000000000000000000000000000060648201526084016102b9565b600080866001600160a01b03168587604051610a729190610e09565b60006040518083038185875af1925050503d8060008114610aaf576040519150601f19603f3d011682016040523d82523d6000602084013e610ab4565b606091505b5091509150610ac587838387610ad0565b979650505050505050565b60608315610b3f578251600003610b38576001600160a01b0385163b610b385760405162461bcd60e51b815260206004820152601d60248201527f416464726573733a2063616c6c20746f206e6f6e2d636f6e747261637400000060448201526064016102b9565b50816109d6565b6109d68383815115610b545781518083602001fd5b8060405162461bcd60e51b81526004016102b99190610e1b565b80356001600160a01b0381168114610b8557600080fd5b919050565b600060208284031215610b9c57600080fd5b6109c082610b6e565b600060208284031215610bb757600080fd5b5035919050565b60008083601f840112610bd057600080fd5b50813567ffffffffffffffff811115610be857600080fd5b6020830191508360208260051b8501011115610c0357600080fd5b9250929050565b60008060208385031215610c1d57600080fd5b823567ffffffffffffffff811115610c3457600080fd5b610c4085828601610bbe565b90969095509350505050565b60008060008060008060a08789031215610c6557600080fd5b86359550610c7560208801610b6e565b945060408701359350606087013567ffffffffffffffff811115610c9857600080fd5b610ca489828a01610bbe565b979a9699509497949695608090950135949350505050565b60008060408385031215610ccf57600080fd5b50508035926020909101359150565b634e487b7160e01b600052603260045260246000fd5b60008235609e19833603018112610d0a57600080fd5b9190910192915050565b6000808335601e19843603018112610d2b57600080fd5b83018035915067ffffffffffffffff821115610d4657600080fd5b6020019150600581901b3603821315610c0357600080fd5b634e487b7160e01b600052601260045260246000fd5b600082610d8357610d83610d5e565b500490565b600082610d9757610d97610d5e565b500690565b600060018201610dbc57634e487b7160e01b600052601160045260246000fd5b5060010190565b600060208284031215610dd557600080fd5b815180151581146109c057600080fd5b60005b83811015610e00578181015183820152602001610de8565b50506000910152565b60008251610d0a818460208701610de5565b6020815260008251806020840152610e3a816040850160208701610de5565b601f01601f1916919091016040019291505056fea2646970667358221220953b134cbaef8f0e07a96a3fd944f9af5e32c3848b9889e115daaaeee055f47864736f6c63430008130033",
  "devdoc": {
    "author": "JaredBorders and JChiaramonte7",
    "kind": "dev",
    "methods": {
      "claim(uint256,address,uint256,bytes32[],uint256)": {
        "params": {
          "account": ": address used for escrow entry",
          "amount": ": token amount to be escrowed",
          "epoch": ": distribution index number",
          "index": ": used for merkle tree managment and verification",
          "merkleProof": ": off-chain generated proof of merkle tree inclusion"
        }
      },
      "claimMultiple((uint256,address,uint256,bytes32[],uint256)[])": {
        "params": {
          "claims": ": array of valid claims"
        }
      },
      "constructor": {
        "params": {
          "_owner": ": designated owner of this contract",
          "_token": ": address of erc20 token to be distributed"
        }
      },
      "isClaimed(uint256,uint256)": {
        "params": {
          "epoch": ": distribution index number",
          "index": ": used for claim managment"
        },
        "returns": {
          "_0": "true if indexed claim has been claimed"
        }
      },
      "setMerkleRootForEpoch(bytes32,uint256)": {
        "params": {
          "epoch": ": distribution index number",
          "merkleRoot": ": new merkle root"
        }
      }
    },
    "stateVariables": {
      "token": {
        "return": "token to be distributed",
        "returns": {
          "_0": "token to be distributed"
        }
      }
    },
    "title": "Kwenta MultipleMerkleDistributor",
    "version": 1
  },
  "userdoc": {
    "events": {
      "Claimed(uint256,address,uint256,uint256)": {
        "notice": "event is triggered whenever a call to `claim` succeeds"
      },
      "MerkleRootModified(uint256)": {
        "notice": "event is triggered whenever a merkle root is set"
      }
    },
    "kind": "user",
    "methods": {
      "claim(uint256,address,uint256,bytes32[],uint256)": {
        "notice": "attempt to claim as `account` and transfer `amount` to `account`"
      },
      "claimMultiple((uint256,address,uint256,bytes32[],uint256)[])": {
        "notice": "function that aggregates multiple claims"
      },
      "constructor": {
        "notice": "set addresses ERC20 contract Establish merkle root for verification"
      },
      "isClaimed(uint256,uint256)": {
        "notice": "determine if indexed claim has been claimed"
      },
      "setMerkleRootForEpoch(bytes32,uint256)": {
        "notice": "modify merkle root for existing distribution epoch"
      }
    },
    "notice": "Facilitates trading incentives distribution over multiple periods.",
    "version": 1
  },
  "storageLayout": {
    "storage": [
      {
        "astId": 20766,
        "contract": "contracts/MultipleMerkleDistributor.sol:MultipleMerkleDistributor",
        "label": "owner",
        "offset": 0,
        "slot": "0",
        "type": "t_address"
      },
      {
        "astId": 20768,
        "contract": "contracts/MultipleMerkleDistributor.sol:MultipleMerkleDistributor",
        "label": "nominatedOwner",
        "offset": 0,
        "slot": "1",
        "type": "t_address"
      },
      {
        "astId": 11689,
        "contract": "contracts/MultipleMerkleDistributor.sol:MultipleMerkleDistributor",
        "label": "merkleRoots",
        "offset": 0,
        "slot": "2",
        "type": "t_mapping(t_uint256,t_bytes32)"
      },
      {
        "astId": 11696,
        "contract": "contracts/MultipleMerkleDistributor.sol:MultipleMerkleDistributor",
        "label": "claimedBitMaps",
        "offset": 0,
        "slot": "3",
        "type": "t_mapping(t_uint256,t_mapping(t_uint256,t_uint256))"
      }
    ],
    "types": {
      "t_address": {
        "encoding": "inplace",
        "label": "address",
        "numberOfBytes": "20"
      },
      "t_bytes32": {
        "encoding": "inplace",
        "label": "bytes32",
        "numberOfBytes": "32"
      },
      "t_mapping(t_uint256,t_bytes32)": {
        "encoding": "mapping",
        "key": "t_uint256",
        "label": "mapping(uint256 => bytes32)",
        "numberOfBytes": "32",
        "value": "t_bytes32"
      },
      "t_mapping(t_uint256,t_mapping(t_uint256,t_uint256))": {
        "encoding": "mapping",
        "key": "t_uint256",
        "label": "mapping(uint256 => mapping(uint256 => uint256))",
        "numberOfBytes": "32",
        "value": "t_mapping(t_uint256,t_uint256)"
      },
      "t_mapping(t_uint256,t_uint256)": {
        "encoding": "mapping",
        "key": "t_uint256",
        "label": "mapping(uint256 => uint256)",
        "numberOfBytes": "32",
        "value": "t_uint256"
      },
      "t_uint256": {
        "encoding": "inplace",
        "label": "uint256",
        "numberOfBytes": "32"
      }
    }
  }
}