{
  "address": "0x2787CC20e5ECb4BF1bfB79eAE284201027683179",
  "abi": [
    {
      "inputs": [
        {
          "internalType": "address",
          "name": "_owner",
          "type": "address"
        },
        {
          "internalType": "address",
          "name": "_token",
          "type": "address"
        },
        {
          "internalType": "address",
          "name": "_rewardEscrow",
          "type": "address"
        }
      ],
      "stateMutability": "nonpayable",
      "type": "constructor"
    },
    {
      "anonymous": false,
      "inputs": [
        {
          "indexed": false,
          "internalType": "uint256",
          "name": "index",
          "type": "uint256"
        },
        {
          "indexed": false,
          "internalType": "address",
          "name": "account",
          "type": "address"
        },
        {
          "indexed": false,
          "internalType": "uint256",
          "name": "amount",
          "type": "uint256"
        },
        {
          "indexed": false,
          "internalType": "uint256",
          "name": "epoch",
          "type": "uint256"
        }
      ],
      "name": "Claimed",
      "type": "event"
    },
    {
      "anonymous": false,
      "inputs": [
        {
          "indexed": false,
          "internalType": "uint256",
          "name": "epoch",
          "type": "uint256"
        }
      ],
      "name": "MerkleRootModified",
      "type": "event"
    },
    {
      "anonymous": false,
      "inputs": [
        {
          "indexed": false,
          "internalType": "address",
          "name": "oldOwner",
          "type": "address"
        },
        {
          "indexed": false,
          "internalType": "address",
          "name": "newOwner",
          "type": "address"
        }
      ],
      "name": "OwnerChanged",
      "type": "event"
    },
    {
      "anonymous": false,
      "inputs": [
        {
          "indexed": false,
          "internalType": "address",
          "name": "newOwner",
          "type": "address"
        }
      ],
      "name": "OwnerNominated",
      "type": "event"
    },
    {
      "inputs": [],
      "name": "acceptOwnership",
      "outputs": [],
      "stateMutability": "nonpayable",
      "type": "function"
    },
    {
      "inputs": [
        {
          "internalType": "uint256",
          "name": "index",
          "type": "uint256"
        },
        {
          "internalType": "address",
          "name": "account",
          "type": "address"
        },
        {
          "internalType": "uint256",
          "name": "amount",
          "type": "uint256"
        },
        {
          "internalType": "bytes32[]",
          "name": "merkleProof",
          "type": "bytes32[]"
        },
        {
          "internalType": "uint256",
          "name": "epoch",
          "type": "uint256"
        }
      ],
      "name": "claim",
      "outputs": [],
      "stateMutability": "nonpayable",
      "type": "function"
    },
    {
      "inputs": [
        {
          "components": [
            {
              "internalType": "uint256",
              "name": "index",
              "type": "uint256"
            },
            {
              "internalType": "address",
              "name": "account",
              "type": "address"
            },
            {
              "internalType": "uint256",
              "name": "amount",
              "type": "uint256"
            },
            {
              "internalType": "bytes32[]",
              "name": "merkleProof",
              "type": "bytes32[]"
            },
            {
              "internalType": "uint256",
              "name": "epoch",
              "type": "uint256"
            }
          ],
          "internalType": "struct IMultipleMerkleDistributor.Claims[]",
          "name": "claims",
          "type": "tuple[]"
        }
      ],
      "name": "claimMultiple",
      "outputs": [],
      "stateMutability": "nonpayable",
      "type": "function"
    },
    {
      "inputs": [
        {
          "internalType": "uint256",
          "name": "index",
          "type": "uint256"
        },
        {
          "internalType": "uint256",
          "name": "epoch",
          "type": "uint256"
        }
      ],
      "name": "isClaimed",
      "outputs": [
        {
          "internalType": "bool",
          "name": "",
          "type": "bool"
        }
      ],
      "stateMutability": "view",
      "type": "function"
    },
    {
      "inputs": [
        {
          "internalType": "uint256",
          "name": "",
          "type": "uint256"
        }
      ],
      "name": "merkleRoots",
      "outputs": [
        {
          "internalType": "bytes32",
          "name": "",
          "type": "bytes32"
        }
      ],
      "stateMutability": "view",
      "type": "function"
    },
    {
      "inputs": [
        {
          "internalType": "address",
          "name": "_owner",
          "type": "address"
        }
      ],
      "name": "nominateNewOwner",
      "outputs": [],
      "stateMutability": "nonpayable",
      "type": "function"
    },
    {
      "inputs": [],
      "name": "nominatedOwner",
      "outputs": [
        {
          "internalType": "address",
          "name": "",
          "type": "address"
        }
      ],
      "stateMutability": "view",
      "type": "function"
    },
    {
      "inputs": [],
      "name": "owner",
      "outputs": [
        {
          "internalType": "address",
          "name": "",
          "type": "address"
        }
      ],
      "stateMutability": "view",
      "type": "function"
    },
    {
      "inputs": [],
      "name": "rewardEscrow",
      "outputs": [
        {
          "internalType": "address",
          "name": "",
          "type": "address"
        }
      ],
      "stateMutability": "view",
      "type": "function"
    },
    {
      "inputs": [
        {
          "internalType": "bytes32",
          "name": "merkleRoot",
          "type": "bytes32"
        },
        {
          "internalType": "uint256",
          "name": "epoch",
          "type": "uint256"
        }
      ],
      "name": "setMerkleRootForEpoch",
      "outputs": [],
      "stateMutability": "nonpayable",
      "type": "function"
    },
    {
      "inputs": [],
      "name": "token",
      "outputs": [
        {
          "internalType": "address",
          "name": "",
          "type": "address"
        }
      ],
      "stateMutability": "view",
      "type": "function"
    }
  ],
  "numDeployments": 1,
  "solcInputHash": "83ff09c7e532e84abf52ec2446a68708",
  "bytecode": "0x60c060405234801561001057600080fd5b50604051610e4d380380610e4d83398101604081905261002f9161011d565b826001600160a01b03811661008a5760405162461bcd60e51b815260206004820152601960248201527f4f776e657220616464726573732063616e6e6f74206265203000000000000000604482015260640160405180910390fd5b600080546001600160a01b0319166001600160a01b03831690811782556040805192835260208301919091527fb532073b38c83145e3e5135377a08bf9aab55bc0fd7c1179cd4fb995d2a5159c910160405180910390a1506001600160601b0319606092831b811660a052911b1660805250610160565b80516001600160a01b038116811461011857600080fd5b919050565b60008060006060848603121561013257600080fd5b61013b84610101565b925061014960208501610101565b915061015760408501610101565b90509250925092565b60805160601c60a05160601c610cad6101a0600039600081816101e4015261065f0152600081816101610152818161063001526107250152610cad6000f3fe608060405234801561001057600080fd5b50600436106100c95760003560e01c8063a430be6c11610081578063d0b55e8c1161005b578063d0b55e8c146101a9578063f364c90c146101bc578063fc0c546a146101df57600080fd5b8063a430be6c1461015c578063ab5943db14610183578063c02bb7ba1461019657600080fd5b806371c5ecb1116100b257806371c5ecb11461011357806379ba5097146101415780638da5cb5b1461014957600080fd5b80631627540c146100ce57806353a47bb7146100e3575b600080fd5b6100e16100dc366004610a5f565b610206565b005b6001546100f6906001600160a01b031681565b6040516001600160a01b0390911681526020015b60405180910390f35b610133610121366004610b07565b60026020526000908152604090205481565b60405190815260200161010a565b6100e161026f565b6000546100f6906001600160a01b031681565b6100f67f000000000000000000000000000000000000000000000000000000000000000081565b6100e1610191366004610a81565b610373565b6100e16101a4366004610b20565b610471565b6100e16101b7366004610ae5565b6107db565b6101cf6101ca366004610ae5565b610832565b604051901515815260200161010a565b6100f67f000000000000000000000000000000000000000000000000000000000000000081565b61020e61087d565b6001805473ffffffffffffffffffffffffffffffffffffffff19166001600160a01b0383169081179091556040519081527f906a1c6bd7e3091ea86693dd029a831c19049ce77f1dce2ce0bab1cacbabce229060200160405180910390a150565b6001546001600160a01b031633146102f45760405162461bcd60e51b815260206004820152603560248201527f596f75206d757374206265206e6f6d696e61746564206265666f726520796f7560448201527f2063616e20616363657074206f776e657273686970000000000000000000000060648201526084015b60405180910390fd5b600054600154604080516001600160a01b0393841681529290911660208301527fb532073b38c83145e3e5135377a08bf9aab55bc0fd7c1179cd4fb995d2a5159c910160405180910390a1600180546000805473ffffffffffffffffffffffffffffffffffffffff199081166001600160a01b03841617909155169055565b8060005b8181101561046b5761046384848381811061039457610394610c61565b90506020028101906103a69190610bda565b358585848181106103b9576103b9610c61565b90506020028101906103cb9190610bda565b6103dc906040810190602001610a5f565b8686858181106103ee576103ee610c61565b90506020028101906104009190610bda565b6040013587878681811061041657610416610c61565b90506020028101906104289190610bda565b610436906060810190610b90565b89898881811061044857610448610c61565b905060200281019061045a9190610bda565b60800135610471565b600101610377565b50505050565b61047b8682610832565b156104ee5760405162461bcd60e51b815260206004820152603060248201527f4d756c7469706c654d65726b6c654469737472696275746f723a2044726f702060448201527f616c726561647920636c61696d65642e0000000000000000000000000000000060648201526084016102eb565b60408051602081018890526bffffffffffffffffffffffff19606088901b16918101919091526054810185905260009060740160405160208183030381529060405280519060200120905061058484848080602002602001604051908101604052809392919081815260200183836020028082843760009201829052508781526002602052604090205492508591506108ff9050565b6105f65760405162461bcd60e51b815260206004820152602960248201527f4d756c7469706c654d65726b6c654469737472696275746f723a20496e76616c60448201527f69642070726f6f662e000000000000000000000000000000000000000000000060648201526084016102eb565b61060087836109ae565b6040517f095ea7b30000000000000000000000000000000000000000000000000000000081526001600160a01b037f000000000000000000000000000000000000000000000000000000000000000081166004830152602482018790527f0000000000000000000000000000000000000000000000000000000000000000169063095ea7b390604401602060405180830381600087803b1580156106a357600080fd5b505af11580156106b7573d6000803e3d6000fd5b505050506040513d601f19601f820116820180604052508101906106db9190610ac3565b506040517fa0416ed30000000000000000000000000000000000000000000000000000000081526001600160a01b038781166004830152602482018790526301dfe20060448301527f0000000000000000000000000000000000000000000000000000000000000000169063a0416ed390606401600060405180830381600087803b15801561076957600080fd5b505af115801561077d573d6000803e3d6000fd5b5050604080518a81526001600160a01b038a166020820152908101889052606081018590527fd9cb1e2714d65a111c0f20f060176ad657496bd47a3de04ec7c3d4ca232112ac9250608001905060405180910390a150505050505050565b6107e361087d565b60008181526002602052604090819020839055517f7835b531ba83151bc18466c9b0ab4b168056cb422098530a34952b03f87ba519906108269083815260200190565b60405180910390a15050565b60008061084161010085610bfa565b9050600061085161010086610c37565b60009485526003602090815260408087209487529390529190932054600190911b908116149392505050565b6000546001600160a01b031633146108fd5760405162461bcd60e51b815260206004820152602f60248201527f4f6e6c792074686520636f6e7472616374206f776e6572206d6179207065726660448201527f6f726d207468697320616374696f6e000000000000000000000000000000000060648201526084016102eb565b565b600081815b85518110156109a357600086828151811061092157610921610c61565b60200260200101519050808311610963576040805160208101859052908101829052606001604051602081830303815290604052805190602001209250610990565b60408051602081018390529081018490526060016040516020818303038152906040528051906020012092505b508061099b81610c0e565b915050610904565b509092149392505050565b60006109bc61010084610bfa565b905060006109cc61010085610c37565b6000938452600360209081526040808620948652939052919092208054600190921b90911790555050565b80356001600160a01b0381168114610a0e57600080fd5b919050565b60008083601f840112610a2557600080fd5b50813567ffffffffffffffff811115610a3d57600080fd5b6020830191508360208260051b8501011115610a5857600080fd5b9250929050565b600060208284031215610a7157600080fd5b610a7a826109f7565b9392505050565b60008060208385031215610a9457600080fd5b823567ffffffffffffffff811115610aab57600080fd5b610ab785828601610a13565b90969095509350505050565b600060208284031215610ad557600080fd5b81518015158114610a7a57600080fd5b60008060408385031215610af857600080fd5b50508035926020909101359150565b600060208284031215610b1957600080fd5b5035919050565b60008060008060008060a08789031215610b3957600080fd5b86359550610b49602088016109f7565b945060408701359350606087013567ffffffffffffffff811115610b6c57600080fd5b610b7889828a01610a13565b979a9699509497949695608090950135949350505050565b6000808335601e19843603018112610ba757600080fd5b83018035915067ffffffffffffffff821115610bc257600080fd5b6020019150600581901b3603821315610a5857600080fd5b60008235609e19833603018112610bf057600080fd5b9190910192915050565b600082610c0957610c09610c4b565b500490565b6000600019821415610c3057634e487b7160e01b600052601160045260246000fd5b5060010190565b600082610c4657610c46610c4b565b500690565b634e487b7160e01b600052601260045260246000fd5b634e487b7160e01b600052603260045260246000fdfea2646970667358221220ee9c5e8a65d2752478613b7515ae8466d3313fcb7f267efebb8c6b351b316f9464736f6c63430008070033",
  "devdoc": {
    "author": "JaredBorders and JChiaramonte7",
    "kind": "dev",
    "methods": {
      "claim(uint256,address,uint256,bytes32[],uint256)": {
        "params": {
          "account": ": address used for escrow entry",
          "amount": ": $KWENTA amount to be escrowed",
          "epoch": ": distribution index to check",
          "index": ": used for merkle tree managment and verification",
          "merkleProof": ": off-chain generated proof of merkle tree inclusion"
        }
      },
      "claimMultiple((uint256,address,uint256,bytes32[],uint256)[])": {
        "params": {
          "claims": ": array of valid claims"
        }
      },
      "constructor": {
        "params": {
          "_owner": ": designated owner of this contract",
          "_rewardEscrow": ": address of kwenta escrow for tokens claimed",
          "_token": ": address of erc20 token to be distributed"
        }
      },
      "isClaimed(uint256,uint256)": {
        "params": {
          "epoch": ": distribution index to check",
          "index": ": used for claim managment"
        },
        "returns": {
          "_0": "true if indexed claim has been claimed"
        }
      }
    },
    "title": "Kwenta MultipleMerkleDistributor",
    "version": 1
  },
  "userdoc": {
    "events": {
      "Claimed(uint256,address,uint256,uint256)": {
        "notice": "event is triggered whenever a call to `claim` succeeds"
      },
      "MerkleRootModified(uint256)": {
        "notice": "event is triggered whenever a merkle root is set"
      }
    },
    "kind": "user",
    "methods": {
      "claim(uint256,address,uint256,bytes32[],uint256)": {
        "notice": "attempt to claim as `account` and escrow KWENTA for `account`"
      },
      "claimMultiple((uint256,address,uint256,bytes32[],uint256)[])": {
        "notice": "function that aggregates multiple claims"
      },
      "constructor": {
        "notice": "set addresses for deployed rewardEscrow and KWENTA. Establish merkle root for verification"
      },
      "isClaimed(uint256,uint256)": {
        "notice": "determine if indexed claim has been claimed"
      },
      "merkleRoots(uint256)": {
        "notice": "an epoch to merkle root mapping of a merkle tree containing account balances available to claim"
      },
      "rewardEscrow()": {
        "notice": "escrow for tokens claimed"
      },
      "setMerkleRootForEpoch(bytes32,uint256)": {
        "notice": "modify merkle root for existing distribution epoch"
      },
      "token()": {
        "notice": "token to be distributed (KWENTA)"
      }
    },
    "notice": "Facilitates trading incentives distribution over multiple periods.",
    "version": 1
  },
  "storageLayout": {
    "storage": [
      {
        "astId": 6226,
        "contract": "contracts/MultipleMerkleDistributor.sol:MultipleMerkleDistributor",
        "label": "owner",
        "offset": 0,
        "slot": "0",
        "type": "t_address"
      },
      {
        "astId": 6228,
        "contract": "contracts/MultipleMerkleDistributor.sol:MultipleMerkleDistributor",
        "label": "nominatedOwner",
        "offset": 0,
        "slot": "1",
        "type": "t_address"
      },
      {
        "astId": 1960,
        "contract": "contracts/MultipleMerkleDistributor.sol:MultipleMerkleDistributor",
        "label": "merkleRoots",
        "offset": 0,
        "slot": "2",
        "type": "t_mapping(t_uint256,t_bytes32)"
      },
      {
        "astId": 1967,
        "contract": "contracts/MultipleMerkleDistributor.sol:MultipleMerkleDistributor",
        "label": "claimedBitMaps",
        "offset": 0,
        "slot": "3",
        "type": "t_mapping(t_uint256,t_mapping(t_uint256,t_uint256))"
      }
    ],
    "types": {
      "t_address": {
        "encoding": "inplace",
        "label": "address",
        "numberOfBytes": "20"
      },
      "t_bytes32": {
        "encoding": "inplace",
        "label": "bytes32",
        "numberOfBytes": "32"
      },
      "t_mapping(t_uint256,t_bytes32)": {
        "encoding": "mapping",
        "key": "t_uint256",
        "label": "mapping(uint256 => bytes32)",
        "numberOfBytes": "32",
        "value": "t_bytes32"
      },
      "t_mapping(t_uint256,t_mapping(t_uint256,t_uint256))": {
        "encoding": "mapping",
        "key": "t_uint256",
        "label": "mapping(uint256 => mapping(uint256 => uint256))",
        "numberOfBytes": "32",
        "value": "t_mapping(t_uint256,t_uint256)"
      },
      "t_mapping(t_uint256,t_uint256)": {
        "encoding": "mapping",
        "key": "t_uint256",
        "label": "mapping(uint256 => uint256)",
        "numberOfBytes": "32",
        "value": "t_uint256"
      },
      "t_uint256": {
        "encoding": "inplace",
        "label": "uint256",
        "numberOfBytes": "32"
      }
    }
  }
}