{
  "address": "0x3e8b82326Ff5f2f10da8CEa117bD44343ccb9c26",
  "abi": [
    {
      "inputs": [
        {
          "internalType": "address",
          "name": "_owner",
          "type": "address"
        },
        {
          "internalType": "address",
          "name": "_treasuryDAO",
          "type": "address"
        }
      ],
      "stateMutability": "nonpayable",
      "type": "constructor"
    },
    {
      "anonymous": false,
      "inputs": [
        {
          "indexed": false,
          "internalType": "address",
          "name": "newAddress",
          "type": "address"
        }
      ],
      "name": "KwentaUpdated",
      "type": "event"
    },
    {
      "anonymous": false,
      "inputs": [
        {
          "indexed": false,
          "internalType": "uint256",
          "name": "newRewardAmount",
          "type": "uint256"
        }
      ],
      "name": "MinterRewardUpdated",
      "type": "event"
    },
    {
      "anonymous": false,
      "inputs": [
        {
          "indexed": false,
          "internalType": "address",
          "name": "oldOwner",
          "type": "address"
        },
        {
          "indexed": false,
          "internalType": "address",
          "name": "newOwner",
          "type": "address"
        }
      ],
      "name": "OwnerChanged",
      "type": "event"
    },
    {
      "anonymous": false,
      "inputs": [
        {
          "indexed": false,
          "internalType": "address",
          "name": "newOwner",
          "type": "address"
        }
      ],
      "name": "OwnerNominated",
      "type": "event"
    },
    {
      "anonymous": false,
      "inputs": [
        {
          "indexed": false,
          "internalType": "address",
          "name": "newAddress",
          "type": "address"
        }
      ],
      "name": "StakingRewardsUpdated",
      "type": "event"
    },
    {
      "anonymous": false,
      "inputs": [
        {
          "indexed": false,
          "internalType": "uint256",
          "name": "supplyMinted",
          "type": "uint256"
        },
        {
          "indexed": false,
          "internalType": "uint256",
          "name": "numberOfWeeksIssued",
          "type": "uint256"
        },
        {
          "indexed": false,
          "internalType": "uint256",
          "name": "lastMintEvent",
          "type": "uint256"
        }
      ],
      "name": "SupplyMinted",
      "type": "event"
    },
    {
      "anonymous": false,
      "inputs": [
        {
          "indexed": false,
          "internalType": "uint256",
          "name": "newPercentage",
          "type": "uint256"
        }
      ],
      "name": "TradingRewardsDiversionUpdated",
      "type": "event"
    },
    {
      "anonymous": false,
      "inputs": [
        {
          "indexed": false,
          "internalType": "address",
          "name": "newAddress",
          "type": "address"
        }
      ],
      "name": "TradingRewardsUpdated",
      "type": "event"
    },
    {
      "anonymous": false,
      "inputs": [
        {
          "indexed": false,
          "internalType": "address",
          "name": "treasuryDAO",
          "type": "address"
        }
      ],
      "name": "TreasuryDAOSet",
      "type": "event"
    },
    {
      "anonymous": false,
      "inputs": [
        {
          "indexed": false,
          "internalType": "uint256",
          "name": "newPercentage",
          "type": "uint256"
        }
      ],
      "name": "TreasuryDiversionUpdated",
      "type": "event"
    },
    {
      "inputs": [],
      "name": "DECAY_RATE",
      "outputs": [
        {
          "internalType": "uint256",
          "name": "",
          "type": "uint256"
        }
      ],
      "stateMutability": "view",
      "type": "function"
    },
    {
      "inputs": [],
      "name": "INITIAL_SUPPLY",
      "outputs": [
        {
          "internalType": "uint256",
          "name": "",
          "type": "uint256"
        }
      ],
      "stateMutability": "view",
      "type": "function"
    },
    {
      "inputs": [],
      "name": "INITIAL_WEEKLY_SUPPLY",
      "outputs": [
        {
          "internalType": "uint256",
          "name": "",
          "type": "uint256"
        }
      ],
      "stateMutability": "view",
      "type": "function"
    },
    {
      "inputs": [],
      "name": "MAX_MINTER_REWARD",
      "outputs": [
        {
          "internalType": "uint256",
          "name": "",
          "type": "uint256"
        }
      ],
      "stateMutability": "view",
      "type": "function"
    },
    {
      "inputs": [],
      "name": "MINT_BUFFER",
      "outputs": [
        {
          "internalType": "uint256",
          "name": "",
          "type": "uint256"
        }
      ],
      "stateMutability": "view",
      "type": "function"
    },
    {
      "inputs": [],
      "name": "MINT_PERIOD_DURATION",
      "outputs": [
        {
          "internalType": "uint256",
          "name": "",
          "type": "uint256"
        }
      ],
      "stateMutability": "view",
      "type": "function"
    },
    {
      "inputs": [],
      "name": "SUPPLY_DECAY_END",
      "outputs": [
        {
          "internalType": "uint8",
          "name": "",
          "type": "uint8"
        }
      ],
      "stateMutability": "view",
      "type": "function"
    },
    {
      "inputs": [],
      "name": "SUPPLY_DECAY_START",
      "outputs": [
        {
          "internalType": "uint8",
          "name": "",
          "type": "uint8"
        }
      ],
      "stateMutability": "view",
      "type": "function"
    },
    {
      "inputs": [],
      "name": "TERMINAL_SUPPLY_RATE_ANNUAL",
      "outputs": [
        {
          "internalType": "uint256",
          "name": "",
          "type": "uint256"
        }
      ],
      "stateMutability": "view",
      "type": "function"
    },
    {
      "inputs": [],
      "name": "acceptOwnership",
      "outputs": [],
      "stateMutability": "nonpayable",
      "type": "function"
    },
    {
      "inputs": [],
      "name": "inflationStartDate",
      "outputs": [
        {
          "internalType": "uint256",
          "name": "",
          "type": "uint256"
        }
      ],
      "stateMutability": "view",
      "type": "function"
    },
    {
      "inputs": [],
      "name": "isMintable",
      "outputs": [
        {
          "internalType": "bool",
          "name": "",
          "type": "bool"
        }
      ],
      "stateMutability": "view",
      "type": "function"
    },
    {
      "inputs": [],
      "name": "kwenta",
      "outputs": [
        {
          "internalType": "contract IKwenta",
          "name": "",
          "type": "address"
        }
      ],
      "stateMutability": "view",
      "type": "function"
    },
    {
      "inputs": [],
      "name": "lastMintEvent",
      "outputs": [
        {
          "internalType": "uint256",
          "name": "",
          "type": "uint256"
        }
      ],
      "stateMutability": "view",
      "type": "function"
    },
    {
      "inputs": [],
      "name": "mint",
      "outputs": [],
      "stateMutability": "nonpayable",
      "type": "function"
    },
    {
      "inputs": [],
      "name": "mintableSupply",
      "outputs": [
        {
          "internalType": "uint256",
          "name": "",
          "type": "uint256"
        }
      ],
      "stateMutability": "view",
      "type": "function"
    },
    {
      "inputs": [],
      "name": "minterReward",
      "outputs": [
        {
          "internalType": "uint256",
          "name": "",
          "type": "uint256"
        }
      ],
      "stateMutability": "view",
      "type": "function"
    },
    {
      "inputs": [
        {
          "internalType": "address",
          "name": "_owner",
          "type": "address"
        }
      ],
      "name": "nominateNewOwner",
      "outputs": [],
      "stateMutability": "nonpayable",
      "type": "function"
    },
    {
      "inputs": [],
      "name": "nominatedOwner",
      "outputs": [
        {
          "internalType": "address",
          "name": "",
          "type": "address"
        }
      ],
      "stateMutability": "view",
      "type": "function"
    },
    {
      "inputs": [],
      "name": "owner",
      "outputs": [
        {
          "internalType": "address",
          "name": "",
          "type": "address"
        }
      ],
      "stateMutability": "view",
      "type": "function"
    },
    {
      "inputs": [
        {
          "internalType": "contract IKwenta",
          "name": "_kwenta",
          "type": "address"
        }
      ],
      "name": "setKwenta",
      "outputs": [],
      "stateMutability": "nonpayable",
      "type": "function"
    },
    {
      "inputs": [
        {
          "internalType": "uint256",
          "name": "amount",
          "type": "uint256"
        }
      ],
      "name": "setMinterReward",
      "outputs": [],
      "stateMutability": "nonpayable",
      "type": "function"
    },
    {
      "inputs": [
        {
          "internalType": "address",
          "name": "_stakingRewards",
          "type": "address"
        }
      ],
      "name": "setStakingRewards",
      "outputs": [],
      "stateMutability": "nonpayable",
      "type": "function"
    },
    {
      "inputs": [
        {
          "internalType": "address",
          "name": "_tradingRewards",
          "type": "address"
        }
      ],
      "name": "setTradingRewards",
      "outputs": [],
      "stateMutability": "nonpayable",
      "type": "function"
    },
    {
      "inputs": [
        {
          "internalType": "uint256",
          "name": "_tradingRewardsDiversion",
          "type": "uint256"
        }
      ],
      "name": "setTradingRewardsDiversion",
      "outputs": [],
      "stateMutability": "nonpayable",
      "type": "function"
    },
    {
      "inputs": [
        {
          "internalType": "address",
          "name": "_treasuryDAO",
          "type": "address"
        }
      ],
      "name": "setTreasuryDAO",
      "outputs": [],
      "stateMutability": "nonpayable",
      "type": "function"
    },
    {
      "inputs": [
        {
          "internalType": "uint256",
          "name": "_treasuryDiversion",
          "type": "uint256"
        }
      ],
      "name": "setTreasuryDiversion",
      "outputs": [],
      "stateMutability": "nonpayable",
      "type": "function"
    },
    {
      "inputs": [],
      "name": "stakingRewards",
      "outputs": [
        {
          "internalType": "contract IStakingRewards",
          "name": "",
          "type": "address"
        }
      ],
      "stateMutability": "view",
      "type": "function"
    },
    {
      "inputs": [
        {
          "internalType": "uint256",
          "name": "totalSupply",
          "type": "uint256"
        },
        {
          "internalType": "uint256",
          "name": "numOfWeeks",
          "type": "uint256"
        }
      ],
      "name": "terminalInflationSupply",
      "outputs": [
        {
          "internalType": "uint256",
          "name": "",
          "type": "uint256"
        }
      ],
      "stateMutability": "pure",
      "type": "function"
    },
    {
      "inputs": [
        {
          "internalType": "uint256",
          "name": "counter",
          "type": "uint256"
        }
      ],
      "name": "tokenDecaySupplyForWeek",
      "outputs": [
        {
          "internalType": "uint256",
          "name": "",
          "type": "uint256"
        }
      ],
      "stateMutability": "pure",
      "type": "function"
    },
    {
      "inputs": [],
      "name": "tradingRewards",
      "outputs": [
        {
          "internalType": "contract IMultipleMerkleDistributor",
          "name": "",
          "type": "address"
        }
      ],
      "stateMutability": "view",
      "type": "function"
    },
    {
      "inputs": [],
      "name": "tradingRewardsDiversion",
      "outputs": [
        {
          "internalType": "uint256",
          "name": "",
          "type": "uint256"
        }
      ],
      "stateMutability": "view",
      "type": "function"
    },
    {
      "inputs": [],
      "name": "treasuryDAO",
      "outputs": [
        {
          "internalType": "address",
          "name": "",
          "type": "address"
        }
      ],
      "stateMutability": "view",
      "type": "function"
    },
    {
      "inputs": [],
      "name": "treasuryDiversion",
      "outputs": [
        {
          "internalType": "uint256",
          "name": "",
          "type": "uint256"
        }
      ],
      "stateMutability": "view",
      "type": "function"
    },
    {
      "inputs": [],
      "name": "weekCounter",
      "outputs": [
        {
          "internalType": "uint256",
          "name": "",
          "type": "uint256"
        }
      ],
      "stateMutability": "view",
      "type": "function"
    },
    {
      "inputs": [],
      "name": "weeksSinceLastIssuance",
      "outputs": [
        {
          "internalType": "uint256",
          "name": "",
          "type": "uint256"
        }
      ],
      "stateMutability": "view",
      "type": "function"
    }
  ],
  "numDeployments": 1,
  "solcInputHash": "b1aabb2d46588b62ce288280957a2b34",
  "bytecode": "0x60a0604052670de0b6b3a76400006007556107d06008556107d06009553480156200002957600080fd5b5060405162001920380380620019208339810160408190526200004c9162000152565b816001600160a01b038116620000a85760405162461bcd60e51b815260206004820152601960248201527f4f776e657220616464726573732063616e6e6f74206265203000000000000000604482015260640160405180910390fd5b600080546001600160a01b0319166001600160a01b03831690811782556040805192835260208301919091527fb532073b38c83145e3e5135377a08bf9aab55bc0fd7c1179cd4fb995d2a5159c910160405180910390a150600a80546001600160a01b0319166001600160a01b03929092169190911790555042608081905260055560006006556200018a565b80516001600160a01b03811681146200014d57600080fd5b919050565b600080604083850312156200016657600080fd5b620001718362000135565b9150620001816020840162000135565b90509250929050565b608051611773620001ad600039600081816102ef01526112e801526117736000f3fe608060405234801561001057600080fd5b506004361061025c5760003560e01c806379ba509711610145578063badef30a116100bd578063cc5c095c1161008c578063dbd3a6a711610071578063dbd3a6a7146104a0578063df5a9fc1146104a8578063f9fad053146104b257600080fd5b8063cc5c095c1461048f578063d3bd4bde1461049757600080fd5b8063badef30a1461046c578063bccdd03014610474578063be1ff71e1461047d578063be801f011461048657600080fd5b80639bdd7ac711610114578063a46eddcf116100f9578063a46eddcf14610433578063ad18e97e14610446578063b3b2bcc01461045957600080fd5b80639bdd7ac7146104175780639df92eb71461042057600080fd5b806379ba5097146103e15780637c060557146103e95780638da5cb5b146103f15780639034802b1461040457600080fd5b806346872a23116101d857806353a47bb7116101a7578063689fccc61161018c578063689fccc6146103a85780636fb83a57146103bb578063758b19d3146103ce57600080fd5b806353a47bb71461036a57806364b87a701461039557600080fd5b806346872a231461032257806346b45af71461032c5780634ae26521146103445780634e070f501461035757600080fd5b8063238fb77f1161022f578063255420641161021457806325542064146102dc57806326f75e05146102ea5780632ff2e9dc1461031157600080fd5b8063238fb77f146102af578063251330f1146102c257600080fd5b80631249c58b146102615780631627540c1461026b5780631de40e491461027e57806322af2bab1461029f575b600080fd5b6102696104c5565b005b6102696102793660046114d2565b61086b565b61028c6648d4a431e5400081565b6040519081526020015b60405180910390f35b61028c6801158e460913d0000081565b6102696102bd3660046114d2565b6108c8565b6102ca600281565b60405160ff9091168152602001610296565b61028c662386f26fc1000081565b61028c7f000000000000000000000000000000000000000000000000000000000000000081565b61028c69425bfbffaab01654000081565b61028c6201518081565b610334610974565b6040519015158152602001610296565b6102696103523660046114ef565b61098e565b61028c6103653660046114ef565b610a4a565b60015461037d906001600160a01b031681565b6040516001600160a01b039091168152602001610296565b60035461037d906001600160a01b031681565b6102696103b63660046114ef565b610b28565b6102696103c93660046114d2565b610bd4565b6102696103dc3660046114d2565b610c80565b610269610d2c565b6102ca60d081565b60005461037d906001600160a01b031681565b60025461037d906001600160a01b031681565b61028c60075481565b61026961042e3660046114ef565b610e1e565b6102696104413660046114d2565b610eca565b600a5461037d906001600160a01b031681565b61028c610467366004611521565b610f76565b61028c6110b1565b61028c60085481565b61028c60095481565b61028c60055481565b61028c6110e1565b61028c60065481565b61028c611289565b61028c62093a8081565b60045461037d906001600160a01b031681565b6003546001600160a01b03166105225760405162461bcd60e51b815260206004820152601760248201527f5374616b696e672072657761726473206e6f742073657400000000000000000060448201526064015b60405180910390fd5b6004546001600160a01b031661057a5760405162461bcd60e51b815260206004820152601760248201527f54726164696e672072657761726473206e6f74207365740000000000000000006044820152606401610519565b60006105846110e1565b9050600081116105d65760405162461bcd60e51b815260206004820152601560248201527f4e6f20737570706c79206973206d696e7461626c6500000000000000000000006044820152606401610519565b6105df816112af565b506000600754826105f09190611679565b9050600061271060085483610605919061165a565b61060f919061155b565b9050600061271060095484610624919061165a565b61062e919061155b565b905060008161063d8486611679565b6106479190611679565b600254600a546040516340c10f1960e01b81526001600160a01b0391821660048201526024810187905292935016906340c10f1990604401600060405180830381600087803b15801561069957600080fd5b505af11580156106ad573d6000803e3d6000fd5b5050600254600480546040516340c10f1960e01b81526001600160a01b03918216928101929092526024820187905290911692506340c10f199150604401600060405180830381600087803b15801561070557600080fd5b505af1158015610719573d6000803e3d6000fd5b50506002546003546040516340c10f1960e01b81526001600160a01b03918216600482015260248101869052911692506340c10f199150604401600060405180830381600087803b15801561076d57600080fd5b505af1158015610781573d6000803e3d6000fd5b50506003546040517f3c6b16ab000000000000000000000000000000000000000000000000000000008152600481018590526001600160a01b039091169250633c6b16ab9150602401600060405180830381600087803b1580156107e457600080fd5b505af11580156107f8573d6000803e3d6000fd5b50506002546007546040516340c10f1960e01b815233600482015260248101919091526001600160a01b0390911692506340c10f199150604401600060405180830381600087803b15801561084c57600080fd5b505af1158015610860573d6000803e3d6000fd5b505050505050505050565b610873611364565b600180546001600160a01b0319166001600160a01b0383169081179091556040519081527f906a1c6bd7e3091ea86693dd029a831c19049ce77f1dce2ce0bab1cacbabce22906020015b60405180910390a150565b6108d0611364565b6001600160a01b0381166109265760405162461bcd60e51b815260206004820152601f60248201527f537570706c795363686564756c653a20496e76616c69642041646472657373006044820152606401610519565b600480546001600160a01b0319166001600160a01b0383169081179091556040519081527f2600f737e588eec1a845714266bf64b2f65c9d3f624e452a2b64611c33108ab0906020016108bd565b600062093a80600554426109889190611679565b11905090565b610996611364565b6801158e460913d00000811115610a155760405162461bcd60e51b815260206004820152603660248201527f537570706c795363686564756c653a205265776172642063616e6e6f7420657860448201527f63656564206d6178206d696e74657220726577617264000000000000000000006064820152608401610519565b60078190556040518181527f036e0c635f8b7d9314bb6f2a577046108ef0f8b5e3869fbd29fd5a448ed99d30906020016108bd565b600080610ae5836648d4a431e5400073__$eafab6a382253e3d4dc0e94de940bead68$__63907af6c06040518163ffffffff1660e01b815260040160206040518083038186803b158015610a9d57600080fd5b505af4158015610ab1573d6000803e3d6000fd5b505050506040513d601f19601f82011682018060405250810190610ad59190611508565b610adf9190611679565b906113e6565b90506000610b208260346064610b0669425bfbffaab01654000060f061165a565b610b10919061155b565b610b1a919061155b565b906114b0565b949350505050565b610b30611364565b61271060085482610b419190611543565b10610b9f5760405162461bcd60e51b815260206004820152602860248201527f537570706c795363686564756c653a2043616e6e6f74206265206d6f7265207460448201526768616e203130302560c01b6064820152608401610519565b60098190556040518181527f3a6b6f816fda56a9f48af157a6f60d156254bc01c34e04fd31583013fb00a67f906020016108bd565b610bdc611364565b6001600160a01b038116610c325760405162461bcd60e51b815260206004820152601f60248201527f537570706c795363686564756c653a20496e76616c69642041646472657373006044820152606401610519565b600380546001600160a01b0319166001600160a01b0383169081179091556040519081527f551390b523f91b5d9df0281cbb04db779545fbfa265f5fcde47668f4d4e16006906020016108bd565b610c88611364565b6001600160a01b038116610cde5760405162461bcd60e51b815260206004820152601360248201527f416464726573732063616e6e6f742062652030000000000000000000000000006044820152606401610519565b600280546001600160a01b0319166001600160a01b0383169081179091556040519081527fc81d567f41a0910d7cd4117a2960e9fbdf9a232a48e6b6fc94033ac6c4db7aa4906020016108bd565b6001546001600160a01b03163314610dac5760405162461bcd60e51b815260206004820152603560248201527f596f75206d757374206265206e6f6d696e61746564206265666f726520796f7560448201527f2063616e20616363657074206f776e65727368697000000000000000000000006064820152608401610519565b600054600154604080516001600160a01b0393841681529290911660208301527fb532073b38c83145e3e5135377a08bf9aab55bc0fd7c1179cd4fb995d2a5159c910160405180910390a160018054600080546001600160a01b03199081166001600160a01b03841617909155169055565b610e26611364565b61271060095482610e379190611543565b10610e955760405162461bcd60e51b815260206004820152602860248201527f537570706c795363686564756c653a2043616e6e6f74206265206d6f7265207460448201526768616e203130302560c01b6064820152608401610519565b60088190556040518181527f57a9cd79e547e62257530ed181309acb795c4e6aab927735a3e2afe2ac4d9309906020016108bd565b610ed2611364565b6001600160a01b038116610f285760405162461bcd60e51b815260206004820152601c60248201527f537570706c795363686564756c653a205a65726f2041646472657373000000006044820152606401610519565b600a80546001600160a01b0319166001600160a01b0383169081179091556040519081527fd780e06c55efd6b3157e8c26704d2fd7bd2750bd9d0e71d2e5f675572dfad7a2906020016108bd565b60008061101583610f8f6034662386f26fc1000061155b565b73__$eafab6a382253e3d4dc0e94de940bead68$__63907af6c06040518163ffffffff1660e01b815260040160206040518083038186803b158015610fd357600080fd5b505af4158015610fe7573d6000803e3d6000fd5b505050506040513d601f19601f8201168201806040525081019061100b9190611508565b610adf9190611543565b90506110a773__$eafab6a382253e3d4dc0e94de940bead68$__63907af6c06040518163ffffffff1660e01b815260040160206040518083038186803b15801561105e57600080fd5b505af4158015611072573d6000803e3d6000fd5b505050506040513d601f19601f820116820180604052508101906110969190611508565b6110a09083611679565b85906114b0565b9150505b92915050565b603460646110ca69425bfbffaab01654000060f061165a565b6110d4919061155b565b6110de919061155b565b81565b6000806110ec610974565b6110f557919050565b60006110ff611289565b6006549091505b81156112815780611116816116ca565b915050600281101561116d576034606461113b69425bfbffaab01654000060f061165a565b611145919061155b565b61114f919061155b565b6111599084611543565b925081611165816116b3565b925050611106565b60d081116111ba57600061118360016002611690565b6111909060ff1683611679565b905061119b81610a4a565b6111a59085611543565b9350826111b1816116b3565b93505050611106565b600254604080517f18160ddd00000000000000000000000000000000000000000000000000000000815290516000926001600160a01b0316916318160ddd916004808301926020929190829003018186803b15801561121857600080fd5b505afa15801561122c573d6000803e3d6000fd5b505050506040513d601f19601f820116820180604052508101906112509190611508565b9050600061125e8583611543565b905061126a8185610f76565b6112749086611543565b9450600093505050611106565b509092915050565b6000806005544261129a9190611679565b90506112a962093a808261155b565b91505090565b6000806112ba611289565b9050806006546112ca9190611543565b600681905562015180906112e29062093a809061165a565b61130c907f0000000000000000000000000000000000000000000000000000000000000000611543565b6113169190611543565b6005819055604080518581526020810184905280820192909252517feae287c62f1ff4911334dee03f631d5dded5284b1b03ea7bc1d6282916c7249f9181900360600190a150600192915050565b6000546001600160a01b031633146113e45760405162461bcd60e51b815260206004820152602f60248201527f4f6e6c792074686520636f6e7472616374206f776e6572206d6179207065726660448201527f6f726d207468697320616374696f6e00000000000000000000000000000000006064820152608401610519565b565b60008073__$eafab6a382253e3d4dc0e94de940bead68$__63907af6c06040518163ffffffff1660e01b815260040160206040518083038186803b15801561142d57600080fd5b505af4158015611441573d6000803e3d6000fd5b505050506040513d601f19601f820116820180604052508101906114659190611508565b90505b82156114a9576114796002846116e5565b1561148b5761148881856114b0565b90505b61149584806114b0565b93506114a260028461155b565b9250611468565b9392505050565b60006114be6012600a6115b2565b6114c8838561165a565b6114a9919061155b565b6000602082840312156114e457600080fd5b81356114a981611725565b60006020828403121561150157600080fd5b5035919050565b60006020828403121561151a57600080fd5b5051919050565b6000806040838503121561153457600080fd5b50508035926020909101359150565b60008219821115611556576115566116f9565b500190565b60008261156a5761156a61170f565b500490565b600181815b808511156115aa578160001904821115611590576115906116f9565b8085161561159d57918102915b93841c9390800290611574565b509250929050565b60006114a983836000826115c8575060016110ab565b816115d5575060006110ab565b81600181146115eb57600281146115f557611611565b60019150506110ab565b60ff841115611606576116066116f9565b50506001821b6110ab565b5060208310610133831016604e8410600b8410161715611634575081810a6110ab565b61163e838361156f565b8060001904821115611652576116526116f9565b029392505050565b6000816000190483118215151615611674576116746116f9565b500290565b60008282101561168b5761168b6116f9565b500390565b600060ff821660ff8416808210156116aa576116aa6116f9565b90039392505050565b6000816116c2576116c26116f9565b506000190190565b60006000198214156116de576116de6116f9565b5060010190565b6000826116f4576116f461170f565b500690565b634e487b7160e01b600052601160045260246000fd5b634e487b7160e01b600052601260045260246000fd5b6001600160a01b038116811461173a57600080fd5b5056fea26469706673582212208efeb14274172d55c44f2b76ea3b2d6ce5836c90f6445369e117a24c874a67e864736f6c63430008070033",
  "devdoc": {
    "kind": "dev",
    "methods": {
      "isMintable()": {
        "returns": {
          "_0": "boolean whether the MINT_PERIOD_DURATION (7 days) has passed since the lastMintEvent. "
        }
      },
      "mintableSupply()": {
        "returns": {
          "_0": "The amount of KWENTA mintable for the inflationary supply"
        }
      },
      "setMinterReward(uint256)": {
        "params": {
          "amount": "the amount of KWENTA to reward the minter. "
        }
      },
      "setTreasuryDAO(address)": {
        "details": "only owner may change address"
      },
      "terminalInflationSupply(uint256,uint256)": {
        "details": "Weekly compound rate based on number of weeks",
        "returns": {
          "_0": "A unit amount of terminal inflation supply"
        }
      },
      "tokenDecaySupplyForWeek(uint256)": {
        "details": "New token supply reduces by the decay rate each week calculated as supply = INITIAL_WEEKLY_SUPPLY * ()",
        "returns": {
          "_0": "A unit amount of decaying inflationary supply from the INITIAL_WEEKLY_SUPPLY"
        }
      },
      "weeksSinceLastIssuance()": {
        "details": "Take timeDiff in seconds (Dividend) and MINT_PERIOD_DURATION as (Divisor)",
        "returns": {
          "_0": "Calculate the numberOfWeeks since last mint rounded down to 1 week"
        }
      }
    },
    "version": 1
  },
  "userdoc": {
    "events": {
      "KwentaUpdated(address)": {
        "notice": "Emitted when setKwenta is called changing the Kwenta Proxy address*"
      },
      "MinterRewardUpdated(uint256)": {
        "notice": "Emitted when the KWENTA minter reward amount is updated*"
      },
      "StakingRewardsUpdated(address)": {
        "notice": "Emitted when StakingRewards is changed*"
      },
      "SupplyMinted(uint256,uint256,uint256)": {
        "notice": "Emitted when the inflationary supply is minted*"
      },
      "TradingRewardsDiversionUpdated(uint256)": {
        "notice": "Emitted when trading rewards inflation share is changed*"
      },
      "TradingRewardsUpdated(address)": {
        "notice": "Emitted when TradingRewards is changed*"
      },
      "TreasuryDAOSet(address)": {
        "notice": "Emitted when treasuryDAO address is changed*"
      },
      "TreasuryDiversionUpdated(uint256)": {
        "notice": "Emitted when treasury inflation share is changed*"
      }
    },
    "kind": "user",
    "methods": {
      "mint()": {
        "notice": "Mints new inflationary supply weekly New KWENTA is distributed between the minter, treasury, and StakingRewards contract "
      },
      "setKwenta(address)": {
        "notice": "Set the Kwenta should it ever change. SupplySchedule requires Kwenta address as it has the authority to record mint event. "
      },
      "setMinterReward(uint256)": {
        "notice": "Sets the reward amount of KWENTA for the caller of the public function Kwenta.mint(). This incentivises anyone to mint the inflationary supply and the mintr Reward will be deducted from the inflationary supply and sent to the caller."
      },
      "setTreasuryDAO(address)": {
        "notice": "set treasuryDAO address"
      }
    },
    "version": 1
  },
  "storageLayout": {
    "storage": [
      {
        "astId": 5894,
        "contract": "contracts/SupplySchedule.sol:SupplySchedule",
        "label": "owner",
        "offset": 0,
        "slot": "0",
        "type": "t_address"
      },
      {
        "astId": 5896,
        "contract": "contracts/SupplySchedule.sol:SupplySchedule",
        "label": "nominatedOwner",
        "offset": 0,
        "slot": "1",
        "type": "t_address"
      },
      {
        "astId": 3922,
        "contract": "contracts/SupplySchedule.sol:SupplySchedule",
        "label": "kwenta",
        "offset": 0,
        "slot": "2",
        "type": "t_contract(IKwenta)4735"
      },
      {
        "astId": 3925,
        "contract": "contracts/SupplySchedule.sol:SupplySchedule",
        "label": "stakingRewards",
        "offset": 0,
        "slot": "3",
        "type": "t_contract(IStakingRewards)5070"
      },
      {
        "astId": 3928,
        "contract": "contracts/SupplySchedule.sol:SupplySchedule",
        "label": "tradingRewards",
        "offset": 0,
        "slot": "4",
        "type": "t_contract(IMultipleMerkleDistributor)4818"
      },
      {
        "astId": 3930,
        "contract": "contracts/SupplySchedule.sol:SupplySchedule",
        "label": "lastMintEvent",
        "offset": 0,
        "slot": "5",
        "type": "t_uint256"
      },
      {
        "astId": 3932,
        "contract": "contracts/SupplySchedule.sol:SupplySchedule",
        "label": "weekCounter",
        "offset": 0,
        "slot": "6",
        "type": "t_uint256"
      },
      {
        "astId": 3935,
        "contract": "contracts/SupplySchedule.sol:SupplySchedule",
        "label": "minterReward",
        "offset": 0,
        "slot": "7",
        "type": "t_uint256"
      },
      {
        "astId": 3975,
        "contract": "contracts/SupplySchedule.sol:SupplySchedule",
        "label": "treasuryDiversion",
        "offset": 0,
        "slot": "8",
        "type": "t_uint256"
      },
      {
        "astId": 3978,
        "contract": "contracts/SupplySchedule.sol:SupplySchedule",
        "label": "tradingRewardsDiversion",
        "offset": 0,
        "slot": "9",
        "type": "t_uint256"
      },
      {
        "astId": 3980,
        "contract": "contracts/SupplySchedule.sol:SupplySchedule",
        "label": "treasuryDAO",
        "offset": 0,
        "slot": "10",
        "type": "t_address"
      }
    ],
    "types": {
      "t_address": {
        "encoding": "inplace",
        "label": "address",
        "numberOfBytes": "20"
      },
      "t_contract(IKwenta)4735": {
        "encoding": "inplace",
        "label": "contract IKwenta",
        "numberOfBytes": "20"
      },
      "t_contract(IMultipleMerkleDistributor)4818": {
        "encoding": "inplace",
        "label": "contract IMultipleMerkleDistributor",
        "numberOfBytes": "20"
      },
      "t_contract(IStakingRewards)5070": {
        "encoding": "inplace",
        "label": "contract IStakingRewards",
        "numberOfBytes": "20"
      },
      "t_uint256": {
        "encoding": "inplace",
        "label": "uint256",
        "numberOfBytes": "32"
      }
    }
  }
}