{
  "address": "0x8132EE584bCD6f8Eb1bea141DB7a7AC1E72917b9",
  "abi": [
    {
      "inputs": [
        {
          "internalType": "address",
          "name": "_vToken",
          "type": "address"
        },
        {
          "internalType": "address",
          "name": "_token",
          "type": "address"
        }
      ],
      "stateMutability": "nonpayable",
      "type": "constructor"
    },
    {
      "anonymous": false,
      "inputs": [
        {
          "indexed": false,
          "internalType": "address",
          "name": "redeemer",
          "type": "address"
        },
        {
          "indexed": false,
          "internalType": "uint256",
          "name": "redeemedAmount",
          "type": "uint256"
        }
      ],
      "name": "Redeemed",
      "type": "event"
    },
    {
      "inputs": [],
      "name": "redeem",
      "outputs": [],
      "stateMutability": "nonpayable",
      "type": "function"
    },
    {
      "inputs": [],
      "name": "token",
      "outputs": [
        {
          "internalType": "address",
          "name": "",
          "type": "address"
        }
      ],
      "stateMutability": "view",
      "type": "function"
    },
    {
      "inputs": [],
      "name": "vToken",
      "outputs": [
        {
          "internalType": "address",
          "name": "",
          "type": "address"
        }
      ],
      "stateMutability": "view",
      "type": "function"
    }
  ],
  "numDeployments": 1,
  "solcInputHash": "b1aabb2d46588b62ce288280957a2b34",
  "bytecode": "0x60c060405234801561001057600080fd5b506040516106cd3803806106cd83398101604081905261002f91610069565b6001600160601b0319606092831b8116608052911b1660a05261009c565b80516001600160a01b038116811461006457600080fd5b919050565b6000806040838503121561007c57600080fd5b6100858361004d565b91506100936020840161004d565b90509250929050565b60805160601c60a05160601c6105ed6100e0600039600081816098015281816101e60152610443015260008181604b0152818160d2015261031801526105ed6000f3fe608060405234801561001057600080fd5b50600436106100415760003560e01c80639bb1a99c14610046578063be040fb014610089578063fc0c546a14610093575b600080fd5b61006d7f000000000000000000000000000000000000000000000000000000000000000081565b6040516001600160a01b03909116815260200160405180910390f35b6100916100ba565b005b61006d7f000000000000000000000000000000000000000000000000000000000000000081565b6040516370a0823160e01b81523360048201526000907f00000000000000000000000000000000000000000000000000000000000000006001600160a01b0316906370a082319060240160206040518083038186803b15801561011c57600080fd5b505afa158015610130573d6000803e3d6000fd5b505050506040513d601f19601f82011682018060405250810190610154919061059e565b9050600081116101d15760405162461bcd60e51b815260206004820152602560248201527f764b77656e746152656465656d65723a204e6f2062616c616e636520746f207260448201527f656465656d00000000000000000000000000000000000000000000000000000060648201526084015b60405180910390fd5b6040516370a0823160e01b81523060048201527f00000000000000000000000000000000000000000000000000000000000000006001600160a01b0316906370a082319060240160206040518083038186803b15801561023057600080fd5b505afa158015610244573d6000803e3d6000fd5b505050506040513d601f19601f82011682018060405250810190610268919061059e565b8111156102dd5760405162461bcd60e51b815260206004820152602e60248201527f764b77656e746152656465656d65723a20496e73756666696369656e7420636f60448201527f6e74726163742062616c616e636500000000000000000000000000000000000060648201526084016101c8565b6040517f23b872dd000000000000000000000000000000000000000000000000000000008152336004820152306024820152604481018290527f00000000000000000000000000000000000000000000000000000000000000006001600160a01b0316906323b872dd90606401602060405180830381600087803b15801561036457600080fd5b505af1158015610378573d6000803e3d6000fd5b505050506040513d601f19601f8201168201806040525081019061039c9190610575565b61040e5760405162461bcd60e51b815260206004820152602760248201527f764b77656e746152656465656d65723a2076546f6b656e207472616e7366657260448201527f206661696c65640000000000000000000000000000000000000000000000000060648201526084016101c8565b6040517fa9059cbb000000000000000000000000000000000000000000000000000000008152336004820152602481018290527f00000000000000000000000000000000000000000000000000000000000000006001600160a01b03169063a9059cbb90604401602060405180830381600087803b15801561048f57600080fd5b505af11580156104a3573d6000803e3d6000fd5b505050506040513d601f19601f820116820180604052508101906104c79190610575565b6105395760405162461bcd60e51b815260206004820152602660248201527f764b77656e746152656465656d65723a20746f6b656e207472616e736665722060448201527f6661696c6564000000000000000000000000000000000000000000000000000060648201526084016101c8565b60408051338152602081018390527f4896181ff8f4543cc00db9fe9b6fb7e6f032b7eb772c72ab1ec1b4d2e03b9369910160405180910390a150565b60006020828403121561058757600080fd5b8151801515811461059757600080fd5b9392505050565b6000602082840312156105b057600080fd5b505191905056fea2646970667358221220220d7b5000507628c14629a0b03daf83cb2b59f7a9ee3f87dff2f02cf6e4271f64736f6c63430008070033",
  "devdoc": {
    "details": "All vKwenta used for redemption is locked within this contract",
    "kind": "dev",
    "methods": {
      "redeem()": {
        "details": "caller must approve this contract to spend vToken"
      }
    },
    "title": "A redemption contract for Kwenta",
    "version": 1
  },
  "userdoc": {
    "kind": "user",
    "methods": {
      "redeem()": {
        "notice": "Allows caller to redeem an equivalent amount of token for vTokenvToken is locked within this contract prior to transfer of token"
      },
      "token()": {
        "notice": "token to be redeemed"
      },
      "vToken()": {
        "notice": "token to be burned"
      }
    },
    "version": 1
  },
  "storageLayout": {
    "storage": [],
    "types": null
  }
}