{
  "address": "0x289e0a1B55CA94699F5893698Faba7377e56cC5f",
  "abi": [
    {
      "inputs": [
        {
          "internalType": "address",
          "name": "_addressResolver",
          "type": "address"
        },
        {
          "internalType": "address",
          "name": "_stakingRewards",
          "type": "address"
        }
      ],
      "stateMutability": "nonpayable",
      "type": "constructor"
    },
    {
      "inputs": [
        {
          "internalType": "bytes32",
          "name": "sourceCurrencyKey",
          "type": "bytes32"
        },
        {
          "internalType": "uint256",
          "name": "sourceAmount",
          "type": "uint256"
        },
        {
          "internalType": "bytes32",
          "name": "destinationCurrencyKey",
          "type": "bytes32"
        },
        {
          "internalType": "address",
          "name": "rewardAddress",
          "type": "address"
        },
        {
          "internalType": "bytes32",
          "name": "trackingCode",
          "type": "bytes32"
        }
      ],
      "name": "exchangeOnBehalfWithTraderScoreTracking",
      "outputs": [
        {
          "internalType": "uint256",
          "name": "amountReceived",
          "type": "uint256"
        }
      ],
      "stateMutability": "nonpayable",
      "type": "function"
    }
  ],
  "numDeployments": 1,
  "solcInputHash": "ee7a47eef76e566acaa3fa51ec176ca2",
  "bytecode": "0x608060405234801561001057600080fd5b50604051610c0b380380610c0b833981810160405281019061003291906100cf565b816000806101000a81548173ffffffffffffffffffffffffffffffffffffffff021916908373ffffffffffffffffffffffffffffffffffffffff16021790555080600160006101000a81548173ffffffffffffffffffffffffffffffffffffffff021916908373ffffffffffffffffffffffffffffffffffffffff160217905550505061015d565b6000815190506100c981610146565b92915050565b600080604083850312156100e6576100e5610141565b5b60006100f4858286016100ba565b9250506020610105858286016100ba565b9150509250929050565b600061011a82610121565b9050919050565b600073ffffffffffffffffffffffffffffffffffffffff82169050919050565b600080fd5b61014f8161010f565b811461015a57600080fd5b50565b610a9f8061016c6000396000f3fe608060405234801561001057600080fd5b506004361061002b5760003560e01c80636986781614610030575b600080fd5b61004a6004803603810190610045919061061f565b610060565b60405161005791906108fb565b60405180910390f35b60008061006b610316565b73ffffffffffffffffffffffffffffffffffffffff1663f450aa348789886040518463ffffffff1660e01b81526004016100a793929190610916565b60606040518083038186803b1580156100bf57600080fd5b505afa1580156100d3573d6000803e3d6000fd5b505050506040513d601f19601f820116820180604052508101906100f791906106c7565b509150507f735553440000000000000000000000000000000000000000000000000000000085146101d95761012a6103e7565b73ffffffffffffffffffffffffffffffffffffffff1663654a60ac86837f73555344000000000000000000000000000000000000000000000000000000006040518463ffffffff1660e01b8152600401610186939291906108c4565b60206040518083038186803b15801561019e57600080fd5b505afa1580156101b2573d6000803e3d6000fd5b505050506040513d601f19601f820116820180604052508101906101d6919061069a565b90505b60006101e36104b8565b73ffffffffffffffffffffffffffffffffffffffff166391e56b68338a8a8a8a8a6040518763ffffffff1660e01b8152600401610225969594939291906107b0565b602060405180830381600087803b15801561023f57600080fd5b505af1158015610253573d6000803e3d6000fd5b505050506040513d601f19601f82011682018060405250810190610277919061069a565b9050600160009054906101000a900473ffffffffffffffffffffffffffffffffffffffff1673ffffffffffffffffffffffffffffffffffffffff1663b3502c9333846040518363ffffffff1660e01b81526004016102d6929190610811565b600060405180830381600087803b1580156102f057600080fd5b505af1158015610304573d6000803e3d6000fd5b50505050809250505095945050505050565b60008060009054906101000a900473ffffffffffffffffffffffffffffffffffffffff1673ffffffffffffffffffffffffffffffffffffffff1663dacb2d017f45786368616e67657200000000000000000000000000000000000000000000006040518263ffffffff1660e01b8152600401610392919061083a565b60206040518083038186803b1580156103aa57600080fd5b505afa1580156103be573d6000803e3d6000fd5b505050506040513d601f19601f820116820180604052508101906103e291906105f2565b905090565b60008060009054906101000a900473ffffffffffffffffffffffffffffffffffffffff1673ffffffffffffffffffffffffffffffffffffffff1663dacb2d017f45786368616e67655261746573000000000000000000000000000000000000006040518263ffffffff1660e01b81526004016104639190610896565b60206040518083038186803b15801561047b57600080fd5b505afa15801561048f573d6000803e3d6000fd5b505050506040513d601f19601f820116820180604052508101906104b391906105f2565b905090565b60008060009054906101000a900473ffffffffffffffffffffffffffffffffffffffff1673ffffffffffffffffffffffffffffffffffffffff1663dacb2d017f53796e74686574697800000000000000000000000000000000000000000000006040518263ffffffff1660e01b81526004016105349190610868565b60206040518083038186803b15801561054c57600080fd5b505afa158015610560573d6000803e3d6000fd5b505050506040513d601f19601f8201168201806040525081019061058491906105f2565b905090565b60008135905061059881610a24565b92915050565b6000815190506105ad81610a24565b92915050565b6000813590506105c281610a3b565b92915050565b6000813590506105d781610a52565b92915050565b6000815190506105ec81610a52565b92915050565b600060208284031215610608576106076109a4565b5b60006106168482850161059e565b91505092915050565b600080600080600060a0868803121561063b5761063a6109a4565b5b6000610649888289016105b3565b955050602061065a888289016105c8565b945050604061066b888289016105b3565b935050606061067c88828901610589565b925050608061068d888289016105b3565b9150509295509295909350565b6000602082840312156106b0576106af6109a4565b5b60006106be848285016105dd565b91505092915050565b6000806000606084860312156106e0576106df6109a4565b5b60006106ee868287016105dd565b93505060206106ff868287016105dd565b9250506040610710868287016105dd565b9150509250925092565b6107238161095e565b82525050565b61073281610970565b82525050565b600061074560178361094d565b9150610750826109a9565b602082019050919050565b600061076860178361094d565b9150610773826109d2565b602082019050919050565b600061078b601b8361094d565b9150610796826109fb565b602082019050919050565b6107aa8161099a565b82525050565b600060c0820190506107c5600083018961071a565b6107d26020830188610729565b6107df60408301876107a1565b6107ec6060830186610729565b6107f9608083018561071a565b61080660a0830184610729565b979650505050505050565b6000604082019050610826600083018561071a565b61083360208301846107a1565b9392505050565b600060408201905061084f6000830184610729565b818103602083015261086081610738565b905092915050565b600060408201905061087d6000830184610729565b818103602083015261088e8161075b565b905092915050565b60006040820190506108ab6000830184610729565b81810360208301526108bc8161077e565b905092915050565b60006060820190506108d96000830186610729565b6108e660208301856107a1565b6108f36040830184610729565b949350505050565b600060208201905061091060008301846107a1565b92915050565b600060608201905061092b60008301866107a1565b6109386020830185610729565b6109456040830184610729565b949350505050565b600082825260208201905092915050565b60006109698261097a565b9050919050565b6000819050919050565b600073ffffffffffffffffffffffffffffffffffffffff82169050919050565b6000819050919050565b600080fd5b7f436f756c64206e6f74206765742045786368616e676572000000000000000000600082015250565b7f436f756c64206e6f74206765742053796e746865746978000000000000000000600082015250565b7f436f756c64206e6f74206765742045786368616e676552617465730000000000600082015250565b610a2d8161095e565b8114610a3857600080fd5b50565b610a4481610970565b8114610a4f57600080fd5b50565b610a5b8161099a565b8114610a6657600080fd5b5056fea2646970667358221220d44c4dedf7f586afbbcb9cb4e0354bc7280d40bdd328d3750fd1fcda644fbfce64736f6c63430008070033",
  "devdoc": {
    "kind": "dev",
    "methods": {},
    "version": 1
  },
  "userdoc": {
    "kind": "user",
    "methods": {},
    "version": 1
  },
  "storageLayout": {
    "storage": [
      {
        "astId": 3614,
        "contract": "contracts/ExchangerProxy.sol:ExchangerProxy",
        "label": "addressResolver",
        "offset": 0,
        "slot": "0",
        "type": "t_contract(IAddressResolver)7086"
      },
      {
        "astId": 3617,
        "contract": "contracts/ExchangerProxy.sol:ExchangerProxy",
        "label": "stakingRewards",
        "offset": 0,
        "slot": "1",
        "type": "t_contract(IStakingRewards)7691"
      }
    ],
    "types": {
      "t_contract(IAddressResolver)7086": {
        "encoding": "inplace",
        "label": "contract IAddressResolver",
        "numberOfBytes": "20"
      },
      "t_contract(IStakingRewards)7691": {
        "encoding": "inplace",
        "label": "contract IStakingRewards",
        "numberOfBytes": "20"
      }
    }
  }
}