{
  "address": "0xeca80E19Db179356359CB88f79a0ceC3C18b4921",
  "abi": [
    {
      "inputs": [],
      "name": "fixed_e",
      "outputs": [
        {
          "internalType": "int256",
          "name": "",
          "type": "int256"
        }
      ],
      "stateMutability": "view",
      "type": "function"
    },
    {
      "inputs": [],
      "name": "fixed_exp_10",
      "outputs": [
        {
          "internalType": "int256",
          "name": "",
          "type": "int256"
        }
      ],
      "stateMutability": "view",
      "type": "function"
    },
    {
      "inputs": [],
      "name": "fixed_pi",
      "outputs": [
        {
          "internalType": "int256",
          "name": "",
          "type": "int256"
        }
      ],
      "stateMutability": "view",
      "type": "function"
    },
    {
      "inputs": [],
      "name": "initial_digits",
      "outputs": [
        {
          "internalType": "uint8",
          "name": "",
          "type": "uint8"
        }
      ],
      "stateMutability": "view",
      "type": "function"
    }
  ],
  "numDeployments": 1,
  "solcInputHash": "ee7a47eef76e566acaa3fa51ec176ca2",
  "bytecode": "0x610ffc610053600b82828239805160001a607314610046577f4e487b7100000000000000000000000000000000000000000000000000000000600052600060045260246000fd5b30600052607381538281f3fe73000000000000000000000000000000000000000030146080604052600436106100ff5760003560e01c806380ff93e4116100a1578063a74b0fff11610070578063a74b0fff146102d7578063bc8bde7a14610307578063d593db8914610337578063ea71c72014610355576100ff565b806380ff93e4146102295780638c5494df1461025957806391c78fa114610289578063a0c91898146102b9576100ff565b806336406a5c116100dd57806336406a5c146101825780636ab3e995146101a057806373cf14bd146101d05780637b0cc576146101f9576100ff565b806316da8425146101045780631f4c902e146101345780631fbf952414610152575b600080fd5b61011e60048036038101906101199190610873565b610385565b60405161012b91906109b7565b60405180910390f35b61013c6103ae565b60405161014991906109b7565b60405180910390f35b61016c60048036038101906101679190610906565b6103c2565b60405161017991906109b7565b60405180910390f35b61018a610402565b60405161019791906109b7565b60405180910390f35b6101ba60048036038101906101b59190610873565b610417565b6040516101c791906109b7565b60405180910390f35b8180156101dc57600080fd5b506101f760048036038101906101f29190610959565b61043d565b005b610213600480360381019061020e9190610873565b610518565b60405161022091906109b7565b60405180910390f35b610243600480360381019061023e91906108b3565b610564565b60405161025091906109b7565b60405180910390f35b610273600480360381019061026e91906108b3565b61065a565b60405161028091906109b7565b60405180910390f35b6102a3600480360381019061029e9190610906565b610691565b6040516102b091906109b7565b60405180910390f35b6102c16106ea565b6040516102ce91906109b7565b60405180910390f35b6102f160048036038101906102ec91906108b3565b6106fe565b6040516102fe91906109b7565b60405180910390f35b610321600480360381019061031c9190610906565b610735565b60405161032e91906109b7565b60405180910390f35b61033f6107e9565b60405161034c91906109d2565b60405180910390f35b61036f600480360381019061036a91906108b3565b6107ee565b60405161037c91906109b7565b60405180910390f35b6000826001015483600101548361039c9190610a81565b6103a69190610ca7565b905092915050565b6f020b85a438b48462e4212f98f0ebc9e281565b6000808260ff16116103d6578290506103fb565b81600a6103e39190610b89565b6103ee858585610735565b6103f89190610a81565b90505b9392505050565b7040badf011b5fc35ab64f29c13ff3528d0081565b600061043583838560000160009054906101000a900460ff16610735565b905092915050565b60248160ff161061045157610450610ee2565b5b808260000160006101000a81548160ff021916908360ff1602179055508060ff16600a61047e9190610b3e565b826001018190555060008160246104959190610e52565b60ff16600a6104a49190610b3e565b9050806f020b85a438b48462e4212f98f0ebc9e26104c29190610a81565b8360020181905550806f025d0c79fe247f31777d922627a746246104e69190610a81565b8360030181905550807040badf011b5fc35ab64f29c13ff3528d0061050b9190610a81565b8360040181905550505050565b6000600a610552848486600101548760010154600a6105379190610ca7565b6105419190610ca7565b61054b9190610a81565b6001610735565b61055c9190610a81565b905092915050565b6000836001015482141561057a57829050610653565b600084600101548461058c9190610a81565b905060008186600101546105a09190610ca7565b856105ab9190610dbe565b905060008660010154856105bf9190610a81565b905060008188600101546105d39190610ca7565b866105de9190610dbe565b9050876001015481846105f19190610ca7565b6105fb9190610a81565b82846106079190610ca7565b82866106139190610ca7565b84878c600101546106249190610ca7565b61062e9190610ca7565b61063891906109ed565b61064291906109ed565b61064c91906109ed565b9450505050505b9392505050565b60008082846106699190610dbe565b905082848261067891906109ed565b1461068657610685610ee2565b5b809150509392505050565b60008360000160009054906101000a900460ff1660ff168260ff16106106ba576106b9610ee2565b5b6106e18484848760000160009054906101000a900460ff166106dc9190610e52565b610735565b90509392505050565b6f025d0c79fe247f31777d922627a7462481565b600080828461070d91906109ed565b905082848261071c9190610dbe565b1461072a57610729610ee2565b5b809150509392505050565b6000808260ff16600a6107489190610b3e565b9050600060019050600085121561078c577fffffffffffffffffffffffffffffffffffffffffffffffffffffffffffffffff90508460006107899190610dbe565b94505b6002826107999190610a81565b82866107a59190610eb1565b126107cf5781856107b69190610eb1565b82866107c291906109ed565b6107cc9190610dbe565b94505b8060000b856107de9190610ca7565b925050509392505050565b602481565b600083600101548214156108045782905061082d565b600082141561081657610815610ee2565b5b61082a84846108258786610518565b610564565b90505b9392505050565b60008135905061084381610f81565b92915050565b60008135905061085881610f98565b92915050565b60008135905061086d81610faf565b92915050565b6000806040838503121561088a57610889610f6f565b5b600061089885828601610849565b92505060206108a985828601610834565b9150509250929050565b6000806000606084860312156108cc576108cb610f6f565b5b60006108da86828701610849565b93505060206108eb86828701610834565b92505060406108fc86828701610834565b9150509250925092565b60008060006060848603121561091f5761091e610f6f565b5b600061092d86828701610849565b935050602061093e86828701610834565b925050604061094f8682870161085e565b9150509250925092565b600080604083850312156109705761096f610f6f565b5b600061097e85828601610849565b925050602061098f8582860161085e565b9150509250929050565b6109a281610e86565b82525050565b6109b181610ea4565b82525050565b60006020820190506109cc6000830184610999565b92915050565b60006020820190506109e760008301846109a8565b92915050565b60006109f882610e86565b9150610a0383610e86565b9250817f7fffffffffffffffffffffffffffffffffffffffffffffffffffffffffffffff03831360008312151615610a3e57610a3d610f11565b5b817f8000000000000000000000000000000000000000000000000000000000000000038312600083121615610a7657610a75610f11565b5b828201905092915050565b6000610a8c82610e86565b9150610a9783610e86565b925082610aa757610aa6610f40565b5b600160000383147f800000000000000000000000000000000000000000000000000000000000000083141615610ae057610adf610f11565b5b828205905092915050565b6000808291508390505b6001851115610b3557808604811115610b1157610b10610f11565b5b6001851615610b205780820291505b8081029050610b2e85610f74565b9450610af5565b94509492505050565b6000610b4982610e9a565b9150610b5483610e9a565b9250610b817fffffffffffffffffffffffffffffffffffffffffffffffffffffffffffffffff8484610bd4565b905092915050565b6000610b9482610e9a565b9150610b9f83610ea4565b9250610bcc7fffffffffffffffffffffffffffffffffffffffffffffffffffffffffffffffff8484610bd4565b905092915050565b600082610be45760019050610ca0565b81610bf25760009050610ca0565b8160018114610c085760028114610c1257610c41565b6001915050610ca0565b60ff841115610c2457610c23610f11565b5b8360020a915084821115610c3b57610c3a610f11565b5b50610ca0565b5060208310610133831016604e8410600b8410161715610c765782820a905083811115610c7157610c70610f11565b5b610ca0565b610c838484846001610aeb565b92509050818404811115610c9a57610c99610f11565b5b81810290505b9392505050565b6000610cb282610e86565b9150610cbd83610e86565b9250827f7fffffffffffffffffffffffffffffffffffffffffffffffffffffffffffffff0482116000841360008413161615610cfc57610cfb610f11565b5b817f80000000000000000000000000000000000000000000000000000000000000000583126000841260008413161615610d3957610d38610f11565b5b827f80000000000000000000000000000000000000000000000000000000000000000582126000841360008412161615610d7657610d75610f11565b5b827f7fffffffffffffffffffffffffffffffffffffffffffffffffffffffffffffff0582126000841260008412161615610db357610db2610f11565b5b828202905092915050565b6000610dc982610e86565b9150610dd483610e86565b9250827f800000000000000000000000000000000000000000000000000000000000000001821260008412151615610e0f57610e0e610f11565b5b827f7fffffffffffffffffffffffffffffffffffffffffffffffffffffffffffffff018213600084121615610e4757610e46610f11565b5b828203905092915050565b6000610e5d82610ea4565b9150610e6883610ea4565b925082821015610e7b57610e7a610f11565b5b828203905092915050565b6000819050919050565b6000819050919050565b6000819050919050565b600060ff82169050919050565b6000610ebc82610e86565b9150610ec783610e86565b925082610ed757610ed6610f40565b5b828207905092915050565b7f4e487b7100000000000000000000000000000000000000000000000000000000600052600160045260246000fd5b7f4e487b7100000000000000000000000000000000000000000000000000000000600052601160045260246000fd5b7f4e487b7100000000000000000000000000000000000000000000000000000000600052601260045260246000fd5b600080fd5b60008160011c9050919050565b610f8a81610e86565b8114610f9557600080fd5b50565b610fa181610e90565b8114610fac57600080fd5b50565b610fb881610ea4565b8114610fc357600080fd5b5056fea264697066735822122083a9ddd458ac6b4c2d14df872f9b97da4d44ade37abd39719e384dea0b976a5464736f6c63430008070033",
  "devdoc": {
    "kind": "dev",
    "methods": {},
    "version": 1
  },
  "userdoc": {
    "kind": "user",
    "methods": {},
    "version": 1
  },
  "storageLayout": {
    "storage": [],
    "types": null
  }
}