{
  "address": "0xDA0C33402Fc1e10d18c532F0Ed9c1A6c5C9e386C",
  "abi": [
    {
      "inputs": [
        {
          "internalType": "address",
          "name": "_token",
          "type": "address"
        },
        {
          "internalType": "address",
          "name": "_rewardEscrow",
          "type": "address"
        },
        {
          "internalType": "bytes32",
          "name": "_merkleRoot",
          "type": "bytes32"
        }
      ],
      "stateMutability": "nonpayable",
      "type": "constructor"
    },
    {
      "anonymous": false,
      "inputs": [
        {
          "indexed": false,
          "internalType": "uint256",
          "name": "index",
          "type": "uint256"
        },
        {
          "indexed": false,
          "internalType": "address",
          "name": "account",
          "type": "address"
        },
        {
          "indexed": false,
          "internalType": "uint256",
          "name": "amount",
          "type": "uint256"
        }
      ],
      "name": "Claimed",
      "type": "event"
    },
    {
      "inputs": [
        {
          "internalType": "uint256",
          "name": "index",
          "type": "uint256"
        },
        {
          "internalType": "address",
          "name": "account",
          "type": "address"
        },
        {
          "internalType": "uint256",
          "name": "amount",
          "type": "uint256"
        },
        {
          "internalType": "bytes32[]",
          "name": "merkleProof",
          "type": "bytes32[]"
        }
      ],
      "name": "claim",
      "outputs": [],
      "stateMutability": "nonpayable",
      "type": "function"
    },
    {
      "inputs": [
        {
          "internalType": "uint256",
          "name": "index",
          "type": "uint256"
        },
        {
          "internalType": "address",
          "name": "destAccount",
          "type": "address"
        },
        {
          "internalType": "uint256",
          "name": "amount",
          "type": "uint256"
        },
        {
          "internalType": "bytes32[]",
          "name": "merkleProof",
          "type": "bytes32[]"
        }
      ],
      "name": "claimToAddress",
      "outputs": [],
      "stateMutability": "nonpayable",
      "type": "function"
    },
    {
      "inputs": [
        {
          "internalType": "uint256",
          "name": "index",
          "type": "uint256"
        }
      ],
      "name": "isClaimed",
      "outputs": [
        {
          "internalType": "bool",
          "name": "",
          "type": "bool"
        }
      ],
      "stateMutability": "view",
      "type": "function"
    },
    {
      "inputs": [],
      "name": "merkleRoot",
      "outputs": [
        {
          "internalType": "bytes32",
          "name": "",
          "type": "bytes32"
        }
      ],
      "stateMutability": "view",
      "type": "function"
    },
    {
      "inputs": [],
      "name": "rewardEscrow",
      "outputs": [
        {
          "internalType": "address",
          "name": "",
          "type": "address"
        }
      ],
      "stateMutability": "view",
      "type": "function"
    },
    {
      "inputs": [],
      "name": "token",
      "outputs": [
        {
          "internalType": "address",
          "name": "",
          "type": "address"
        }
      ],
      "stateMutability": "view",
      "type": "function"
    }
  ],
  "numDeployments": 1,
  "solcInputHash": "d7edc465b567a909b27bc1c3baab1ca8",
  "bytecode": "0x60e06040527342000000000000000000000000000000000000076000806101000a81548173ffffffffffffffffffffffffffffffffffffffff021916908373ffffffffffffffffffffffffffffffffffffffff1602179055503480156200006557600080fd5b50604051620014423803806200144283398181016040528101906200008b919062000138565b8273ffffffffffffffffffffffffffffffffffffffff1660a08173ffffffffffffffffffffffffffffffffffffffff1660601b815250508173ffffffffffffffffffffffffffffffffffffffff1660808173ffffffffffffffffffffffffffffffffffffffff1660601b815250508060c081815250505050506200020b565b6000815190506200011b81620001d7565b92915050565b6000815190506200013281620001f1565b92915050565b600080600060608486031215620001545762000153620001d2565b5b600062000164868287016200010a565b935050602062000177868287016200010a565b92505060406200018a8682870162000121565b9150509250925092565b6000620001a182620001b2565b9050919050565b6000819050919050565b600073ffffffffffffffffffffffffffffffffffffffff82169050919050565b600080fd5b620001e28162000194565b8114620001ee57600080fd5b50565b620001fc81620001a8565b81146200020857600080fd5b50565b60805160601c60a05160601c60c0516111c962000279600039600081816101e8015281816103fb015261060d0152600081816102570152818161067c015261089b01526000818161029301528181610325015281816106b80152818161074a015261087701526111c96000f3fe608060405234801561001057600080fd5b50600436106100625760003560e01c80632e7ba6ef146100675780632eb4a7ab1461008357806383bfcccc146100a15780639e34070f146100bd578063a430be6c146100ed578063fc0c546a1461010b575b600080fd5b610081600480360381019061007c9190610afe565b610129565b005b61008b6103f9565b6040516100989190610d7e565b60405180910390f35b6100bb60048036038101906100b69190610afe565b61041d565b005b6100d760048036038101906100d29190610ad1565b61081f565b6040516100e49190610d63565b60405180910390f35b6100f5610875565b6040516101029190610ce8565b60405180910390f35b610113610899565b6040516101209190610ce8565b60405180910390f35b6101328561081f565b15610172576040517f08c379a000000000000000000000000000000000000000000000000000000000815260040161016990610db9565b60405180910390fd5b600085858560405160200161018993929190610cab565b60405160208183030381529060405280519060200120905061020d838380806020026020016040519081016040528093929190818152602001838360200280828437600081840152601f19601f820116905080830192505050505050507f0000000000000000000000000000000000000000000000000000000000000000836108bd565b61024c576040517f08c379a000000000000000000000000000000000000000000000000000000000815260040161024390610dd9565b60405180910390fd5b61025586610973565b7f000000000000000000000000000000000000000000000000000000000000000073ffffffffffffffffffffffffffffffffffffffff1663095ea7b37f0000000000000000000000000000000000000000000000000000000000000000866040518363ffffffff1660e01b81526004016102d0929190610d03565b602060405180830381600087803b1580156102ea57600080fd5b505af11580156102fe573d6000803e3d6000fd5b505050506040513d601f19601f820116820180604052508101906103229190610aa4565b507f000000000000000000000000000000000000000000000000000000000000000073ffffffffffffffffffffffffffffffffffffffff1663a0416ed386866301dfe2006040518463ffffffff1660e01b815260040161038493929190610d2c565b600060405180830381600087803b15801561039e57600080fd5b505af11580156103b2573d6000803e3d6000fd5b505050507f4ec90e965519d92681267467f775ada5bd214aa92c0dc93d90a5e880ce9ed0268686866040516103e993929190610df9565b60405180910390a1505050505050565b7f000000000000000000000000000000000000000000000000000000000000000081565b6104268561081f565b15610466576040517f08c379a000000000000000000000000000000000000000000000000000000000815260040161045d90610db9565b60405180910390fd5b60008054906101000a900473ffffffffffffffffffffffffffffffffffffffff1673ffffffffffffffffffffffffffffffffffffffff163373ffffffffffffffffffffffffffffffffffffffff16146104f4576040517f08c379a00000000000000000000000000000000000000000000000000000000081526004016104eb90610d99565b60405180910390fd5b60008060009054906101000a900473ffffffffffffffffffffffffffffffffffffffff1673ffffffffffffffffffffffffffffffffffffffff16636e296e456040518163ffffffff1660e01b815260040160206040518083038186803b15801561055d57600080fd5b505afa158015610571573d6000803e3d6000fd5b505050506040513d601f19601f820116820180604052508101906105959190610a77565b905060008682866040516020016105ae93929190610cab565b604051602081830303815290604052805190602001209050610632848480806020026020016040519081016040528093929190818152602001838360200280828437600081840152601f19601f820116905080830192505050505050507f0000000000000000000000000000000000000000000000000000000000000000836108bd565b610671576040517f08c379a000000000000000000000000000000000000000000000000000000000815260040161066890610dd9565b60405180910390fd5b61067a87610973565b7f000000000000000000000000000000000000000000000000000000000000000073ffffffffffffffffffffffffffffffffffffffff1663095ea7b37f0000000000000000000000000000000000000000000000000000000000000000876040518363ffffffff1660e01b81526004016106f5929190610d03565b602060405180830381600087803b15801561070f57600080fd5b505af1158015610723573d6000803e3d6000fd5b505050506040513d601f19601f820116820180604052508101906107479190610aa4565b507f000000000000000000000000000000000000000000000000000000000000000073ffffffffffffffffffffffffffffffffffffffff1663a0416ed387876301dfe2006040518463ffffffff1660e01b81526004016107a993929190610d2c565b600060405180830381600087803b1580156107c357600080fd5b505af11580156107d7573d6000803e3d6000fd5b505050507f4ec90e965519d92681267467f775ada5bd214aa92c0dc93d90a5e880ce9ed02687838760405161080e93929190610df9565b60405180910390a150505050505050565b600080610100836108309190610e41565b90506000610100846108429190610f57565b90506000600160008481526020019081526020016000205490506000826001901b90508081831614945050505050919050565b7f000000000000000000000000000000000000000000000000000000000000000081565b7f000000000000000000000000000000000000000000000000000000000000000081565b60008082905060005b85518110156109655760008682815181106108e4576108e3610fe6565b5b60200260200101519050808311610925578281604051602001610908929190610c7f565b604051602081830303815290604052805190602001209250610951565b8083604051602001610938929190610c7f565b6040516020818303038152906040528051906020012092505b50808061095d90610ed6565b9150506108c6565b508381149150509392505050565b6000610100826109839190610e41565b90506000610100836109959190610f57565b9050806001901b6001600084815260200190815260200160002054176001600084815260200190815260200160002081905550505050565b6000813590506109dc8161114e565b92915050565b6000815190506109f18161114e565b92915050565b60008083601f840112610a0d57610a0c61101a565b5b8235905067ffffffffffffffff811115610a2a57610a29611015565b5b602083019150836020820283011115610a4657610a4561101f565b5b9250929050565b600081519050610a5c81611165565b92915050565b600081359050610a718161117c565b92915050565b600060208284031215610a8d57610a8c611029565b5b6000610a9b848285016109e2565b91505092915050565b600060208284031215610aba57610ab9611029565b5b6000610ac884828501610a4d565b91505092915050565b600060208284031215610ae757610ae6611029565b5b6000610af584828501610a62565b91505092915050565b600080600080600060808688031215610b1a57610b19611029565b5b6000610b2888828901610a62565b9550506020610b39888289016109cd565b9450506040610b4a88828901610a62565b935050606086013567ffffffffffffffff811115610b6b57610b6a611024565b5b610b77888289016109f7565b92509250509295509295909350565b610b8f81610e72565b82525050565b610ba6610ba182610e72565b610f1f565b82525050565b610bb581610e84565b82525050565b610bc481610e90565b82525050565b610bdb610bd682610e90565b610f31565b82525050565b610bea81610ec4565b82525050565b6000610bfd604c83610e30565b9150610c088261103b565b606082019050919050565b6000610c20602883610e30565b9150610c2b826110b0565b604082019050919050565b6000610c43602183610e30565b9150610c4e826110ff565b604082019050919050565b610c6281610eba565b82525050565b610c79610c7482610eba565b610f4d565b82525050565b6000610c8b8285610bca565b602082019150610c9b8284610bca565b6020820191508190509392505050565b6000610cb78286610c68565b602082019150610cc78285610b95565b601482019150610cd78284610c68565b602082019150819050949350505050565b6000602082019050610cfd6000830184610b86565b92915050565b6000604082019050610d186000830185610b86565b610d256020830184610c59565b9392505050565b6000606082019050610d416000830186610b86565b610d4e6020830185610c59565b610d5b6040830184610be1565b949350505050565b6000602082019050610d786000830184610bac565b92915050565b6000602082019050610d936000830184610bbb565b92915050565b60006020820190508181036000830152610db281610bf0565b9050919050565b60006020820190508181036000830152610dd281610c13565b9050919050565b60006020820190508181036000830152610df281610c36565b9050919050565b6000606082019050610e0e6000830186610c59565b610e1b6020830185610b86565b610e286040830184610c59565b949350505050565b600082825260208201905092915050565b6000610e4c82610eba565b9150610e5783610eba565b925082610e6757610e66610fb7565b5b828204905092915050565b6000610e7d82610e9a565b9050919050565b60008115159050919050565b6000819050919050565b600073ffffffffffffffffffffffffffffffffffffffff82169050919050565b6000819050919050565b6000610ecf82610eba565b9050919050565b6000610ee182610eba565b91507fffffffffffffffffffffffffffffffffffffffffffffffffffffffffffffffff821415610f1457610f13610f88565b5b600182019050919050565b6000610f2a82610f3b565b9050919050565b6000819050919050565b6000610f468261102e565b9050919050565b6000819050919050565b6000610f6282610eba565b9150610f6d83610eba565b925082610f7d57610f7c610fb7565b5b828206905092915050565b7f4e487b7100000000000000000000000000000000000000000000000000000000600052601160045260246000fd5b7f4e487b7100000000000000000000000000000000000000000000000000000000600052601260045260246000fd5b7f4e487b7100000000000000000000000000000000000000000000000000000000600052603260045260246000fd5b600080fd5b600080fd5b600080fd5b600080fd5b600080fd5b60008160601b9050919050565b7f4d65726b6c654469737472696275746f723a204f6e6c7920746865204f564d2d60008201527f4943726f7373446f6d61696e4d657373656e6765722063616e2063616c6c207460208201527f6869732066756e6374696f6e0000000000000000000000000000000000000000604082015250565b7f4d65726b6c654469737472696275746f723a2044726f7020616c72656164792060008201527f636c61696d65642e000000000000000000000000000000000000000000000000602082015250565b7f4d65726b6c654469737472696275746f723a20496e76616c69642070726f6f6660008201527f2e00000000000000000000000000000000000000000000000000000000000000602082015250565b61115781610e72565b811461116257600080fd5b50565b61116e81610e84565b811461117957600080fd5b50565b61118581610eba565b811461119057600080fd5b5056fea26469706673582212207990db1dd167be03a5c68d1a1b45a6b1a95ff26bf4ed0a7105d963f441f15d3564736f6c63430008070033",
  "devdoc": {
    "kind": "dev",
    "methods": {},
    "version": 1
  },
  "userdoc": {
    "kind": "user",
    "methods": {},
    "version": 1
  },
  "storageLayout": {
    "storage": [
      {
        "astId": 364,
        "contract": "contracts/MerkleDistributor.sol:MerkleDistributor",
        "label": "crossDomainMessengerAddr",
        "offset": 0,
        "slot": "0",
        "type": "t_address"
      },
      {
        "astId": 368,
        "contract": "contracts/MerkleDistributor.sol:MerkleDistributor",
        "label": "claimedBitMap",
        "offset": 0,
        "slot": "1",
        "type": "t_mapping(t_uint256,t_uint256)"
      }
    ],
    "types": {
      "t_address": {
        "encoding": "inplace",
        "label": "address",
        "numberOfBytes": "20"
      },
      "t_mapping(t_uint256,t_uint256)": {
        "encoding": "mapping",
        "key": "t_uint256",
        "label": "mapping(uint256 => uint256)",
        "numberOfBytes": "32",
        "value": "t_uint256"
      },
      "t_uint256": {
        "encoding": "inplace",
        "label": "uint256",
        "numberOfBytes": "32"
      }
    }
  }
}