{
  "address": "0xE8429d0b564aaDF2974888b366A526159CE084b4",
  "abi": [
    {
      "inputs": [],
      "name": "PRECISE_UNIT",
      "outputs": [
        {
          "internalType": "uint256",
          "name": "",
          "type": "uint256"
        }
      ],
      "stateMutability": "view",
      "type": "function"
    },
    {
      "inputs": [],
      "name": "UNIT",
      "outputs": [
        {
          "internalType": "uint256",
          "name": "",
          "type": "uint256"
        }
      ],
      "stateMutability": "view",
      "type": "function"
    },
    {
      "inputs": [],
      "name": "decimals",
      "outputs": [
        {
          "internalType": "uint8",
          "name": "",
          "type": "uint8"
        }
      ],
      "stateMutability": "view",
      "type": "function"
    },
    {
      "inputs": [],
      "name": "highPrecisionDecimals",
      "outputs": [
        {
          "internalType": "uint8",
          "name": "",
          "type": "uint8"
        }
      ],
      "stateMutability": "view",
      "type": "function"
    },
    {
      "inputs": [],
      "name": "preciseUnit",
      "outputs": [
        {
          "internalType": "uint256",
          "name": "",
          "type": "uint256"
        }
      ],
      "stateMutability": "pure",
      "type": "function"
    },
    {
      "inputs": [],
      "name": "unit",
      "outputs": [
        {
          "internalType": "uint256",
          "name": "",
          "type": "uint256"
        }
      ],
      "stateMutability": "pure",
      "type": "function"
    }
  ],
  "numDeployments": 1,
  "solcInputHash": "ee7a47eef76e566acaa3fa51ec176ca2",
  "bytecode": "0x6103d5610053600b82828239805160001a607314610046577f4e487b7100000000000000000000000000000000000000000000000000000000600052600060045260246000fd5b30600052607381538281f3fe730000000000000000000000000000000000000000301460806040526004361061006c5760003560e01c8063313ce56714610071578063864029e71461008f578063907af6c0146100ad5780639d8e2177146100cb578063d5e5e6e6146100e9578063def4419d14610107575b600080fd5b610079610125565b60405161008691906101c0565b60405180910390f35b61009761012a565b6040516100a491906101a5565b60405180910390f35b6100b561013e565b6040516100c291906101a5565b60405180910390f35b6100d3610156565b6040516100e091906101a5565b60405180910390f35b6100f161016a565b6040516100fe91906101a5565b60405180910390f35b61010f610182565b60405161011c91906101c0565b60405180910390f35b601281565b601b60ff16600a61013b919061022e565b81565b6000601260ff16600a610151919061022e565b905090565b601260ff16600a610167919061022e565b81565b6000601b60ff16600a61017d919061022e565b905090565b601b81565b6101908161034c565b82525050565b61019f81610356565b82525050565b60006020820190506101ba6000830184610187565b92915050565b60006020820190506101d56000830184610196565b92915050565b6000808291508390505b60018511156102255780860481111561020157610200610363565b5b60018516156102105780820291505b808102905061021e85610392565b94506101e5565b94509492505050565b60006102398261034c565b91506102448361034c565b92506102717fffffffffffffffffffffffffffffffffffffffffffffffffffffffffffffffff8484610279565b905092915050565b6000826102895760019050610345565b816102975760009050610345565b81600181146102ad57600281146102b7576102e6565b6001915050610345565b60ff8411156102c9576102c8610363565b5b8360020a9150848211156102e0576102df610363565b5b50610345565b5060208310610133831016604e8410600b841016171561031b5782820a90508381111561031657610315610363565b5b610345565b61032884848460016101db565b9250905081840481111561033f5761033e610363565b5b81810290505b9392505050565b6000819050919050565b600060ff82169050919050565b7f4e487b7100000000000000000000000000000000000000000000000000000000600052601160045260246000fd5b60008160011c905091905056fea26469706673582212204fedf6dd4c5a4889ba113116149033139ea9241b558139d79a859d7a2c0ea35464736f6c63430008070033",
  "devdoc": {
    "kind": "dev",
    "methods": {
      "preciseUnit()": {
        "returns": {
          "_0": "Provides an interface to PRECISE_UNIT."
        }
      },
      "unit()": {
        "returns": {
          "_0": "Provides an interface to UNIT."
        }
      }
    },
    "version": 1
  },
  "userdoc": {
    "kind": "user",
    "methods": {},
    "version": 1
  },
  "storageLayout": {
    "storage": [],
    "types": null
  }
}