{
  "address": "0xe12942B4a8e1f6E5bB4c5e7AA64C1fc4BBB7e76B",
  "abi": [
    {
      "anonymous": false,
      "inputs": [
        {
          "indexed": false,
          "internalType": "address",
          "name": "previousAdmin",
          "type": "address"
        },
        {
          "indexed": false,
          "internalType": "address",
          "name": "newAdmin",
          "type": "address"
        }
      ],
      "name": "AdminChanged",
      "type": "event"
    },
    {
      "anonymous": false,
      "inputs": [
        {
          "indexed": true,
          "internalType": "address",
          "name": "beacon",
          "type": "address"
        }
      ],
      "name": "BeaconUpgraded",
      "type": "event"
    },
    {
      "anonymous": false,
      "inputs": [
        {
          "indexed": false,
          "internalType": "address",
          "name": "account",
          "type": "address"
        },
        {
          "indexed": false,
          "internalType": "uint256",
          "name": "amount",
          "type": "uint256"
        }
      ],
      "name": "EscrowStaked",
      "type": "event"
    },
    {
      "anonymous": false,
      "inputs": [
        {
          "indexed": false,
          "internalType": "address",
          "name": "account",
          "type": "address"
        },
        {
          "indexed": false,
          "internalType": "uint256",
          "name": "amount",
          "type": "uint256"
        }
      ],
      "name": "EscrowUnstaked",
      "type": "event"
    },
    {
      "anonymous": false,
      "inputs": [
        {
          "indexed": false,
          "internalType": "address",
          "name": "account",
          "type": "address"
        }
      ],
      "name": "ExchangerProxyUpdated",
      "type": "event"
    },
    {
      "anonymous": false,
      "inputs": [
        {
          "indexed": false,
          "internalType": "address",
          "name": "oldOwner",
          "type": "address"
        },
        {
          "indexed": false,
          "internalType": "address",
          "name": "newOwner",
          "type": "address"
        }
      ],
      "name": "OwnerChanged",
      "type": "event"
    },
    {
      "anonymous": false,
      "inputs": [
        {
          "indexed": false,
          "internalType": "address",
          "name": "newOwner",
          "type": "address"
        }
      ],
      "name": "OwnerNominated",
      "type": "event"
    },
    {
      "anonymous": false,
      "inputs": [
        {
          "indexed": false,
          "internalType": "bool",
          "name": "isPaused",
          "type": "bool"
        }
      ],
      "name": "PauseChanged",
      "type": "event"
    },
    {
      "anonymous": false,
      "inputs": [
        {
          "indexed": false,
          "internalType": "address",
          "name": "token",
          "type": "address"
        },
        {
          "indexed": false,
          "internalType": "uint256",
          "name": "amount",
          "type": "uint256"
        }
      ],
      "name": "Recovered",
      "type": "event"
    },
    {
      "anonymous": false,
      "inputs": [
        {
          "indexed": false,
          "internalType": "uint256",
          "name": "reward",
          "type": "uint256"
        }
      ],
      "name": "RewardAdded",
      "type": "event"
    },
    {
      "anonymous": false,
      "inputs": [
        {
          "indexed": false,
          "internalType": "address",
          "name": "account",
          "type": "address"
        }
      ],
      "name": "RewardEscrowUpdated",
      "type": "event"
    },
    {
      "anonymous": false,
      "inputs": [
        {
          "indexed": true,
          "internalType": "address",
          "name": "user",
          "type": "address"
        },
        {
          "indexed": false,
          "internalType": "uint256",
          "name": "reward",
          "type": "uint256"
        }
      ],
      "name": "RewardPaid",
      "type": "event"
    },
    {
      "anonymous": false,
      "inputs": [
        {
          "indexed": false,
          "internalType": "uint256",
          "name": "newDuration",
          "type": "uint256"
        }
      ],
      "name": "RewardsDurationUpdated",
      "type": "event"
    },
    {
      "anonymous": false,
      "inputs": [
        {
          "indexed": true,
          "internalType": "address",
          "name": "user",
          "type": "address"
        },
        {
          "indexed": false,
          "internalType": "uint256",
          "name": "amount",
          "type": "uint256"
        }
      ],
      "name": "Staked",
      "type": "event"
    },
    {
      "anonymous": false,
      "inputs": [
        {
          "indexed": true,
          "internalType": "address",
          "name": "implementation",
          "type": "address"
        }
      ],
      "name": "Upgraded",
      "type": "event"
    },
    {
      "anonymous": false,
      "inputs": [
        {
          "indexed": true,
          "internalType": "address",
          "name": "user",
          "type": "address"
        },
        {
          "indexed": false,
          "internalType": "uint256",
          "name": "amount",
          "type": "uint256"
        }
      ],
      "name": "Withdrawn",
      "type": "event"
    },
    {
      "inputs": [],
      "name": "FEES_PAID_SAFETY_MINIMUM",
      "outputs": [
        {
          "internalType": "uint256",
          "name": "",
          "type": "uint256"
        }
      ],
      "stateMutability": "view",
      "type": "function"
    },
    {
      "inputs": [],
      "name": "PERCENTAGE_STAKING",
      "outputs": [
        {
          "internalType": "uint256",
          "name": "",
          "type": "uint256"
        }
      ],
      "stateMutability": "view",
      "type": "function"
    },
    {
      "inputs": [],
      "name": "PERCENTAGE_TRADING",
      "outputs": [
        {
          "internalType": "uint256",
          "name": "",
          "type": "uint256"
        }
      ],
      "stateMutability": "view",
      "type": "function"
    },
    {
      "inputs": [],
      "name": "STAKING_SAFETY_MINIMUM",
      "outputs": [
        {
          "internalType": "uint256",
          "name": "",
          "type": "uint256"
        }
      ],
      "stateMutability": "view",
      "type": "function"
    },
    {
      "inputs": [],
      "name": "WEIGHT_FEES",
      "outputs": [
        {
          "internalType": "int256",
          "name": "",
          "type": "int256"
        }
      ],
      "stateMutability": "view",
      "type": "function"
    },
    {
      "inputs": [],
      "name": "WEIGHT_STAKING",
      "outputs": [
        {
          "internalType": "int256",
          "name": "",
          "type": "int256"
        }
      ],
      "stateMutability": "view",
      "type": "function"
    },
    {
      "inputs": [
        {
          "internalType": "address",
          "name": "_owner",
          "type": "address"
        }
      ],
      "name": "__Owned_init",
      "outputs": [],
      "stateMutability": "nonpayable",
      "type": "function"
    },
    {
      "inputs": [
        {
          "internalType": "address",
          "name": "_owner",
          "type": "address"
        }
      ],
      "name": "__Pausable_init",
      "outputs": [],
      "stateMutability": "nonpayable",
      "type": "function"
    },
    {
      "inputs": [],
      "name": "acceptOwnership",
      "outputs": [],
      "stateMutability": "nonpayable",
      "type": "function"
    },
    {
      "inputs": [],
      "name": "currentEpoch",
      "outputs": [
        {
          "internalType": "uint256",
          "name": "",
          "type": "uint256"
        }
      ],
      "stateMutability": "view",
      "type": "function"
    },
    {
      "inputs": [
        {
          "internalType": "address",
          "name": "account",
          "type": "address"
        }
      ],
      "name": "earned",
      "outputs": [
        {
          "internalType": "uint256",
          "name": "",
          "type": "uint256"
        }
      ],
      "stateMutability": "view",
      "type": "function"
    },
    {
      "inputs": [
        {
          "internalType": "address",
          "name": "account",
          "type": "address"
        }
      ],
      "name": "escrowedBalanceOf",
      "outputs": [
        {
          "internalType": "uint256",
          "name": "",
          "type": "uint256"
        }
      ],
      "stateMutability": "view",
      "type": "function"
    },
    {
      "inputs": [],
      "name": "exchangerProxy",
      "outputs": [
        {
          "internalType": "address",
          "name": "",
          "type": "address"
        }
      ],
      "stateMutability": "view",
      "type": "function"
    },
    {
      "inputs": [],
      "name": "exit",
      "outputs": [],
      "stateMutability": "nonpayable",
      "type": "function"
    },
    {
      "inputs": [
        {
          "internalType": "address",
          "name": "account",
          "type": "address"
        }
      ],
      "name": "feesPaidBy",
      "outputs": [
        {
          "internalType": "uint256",
          "name": "",
          "type": "uint256"
        }
      ],
      "stateMutability": "view",
      "type": "function"
    },
    {
      "inputs": [],
      "name": "getReward",
      "outputs": [],
      "stateMutability": "nonpayable",
      "type": "function"
    },
    {
      "inputs": [
        {
          "internalType": "address",
          "name": "_owner",
          "type": "address"
        },
        {
          "internalType": "address",
          "name": "_stakingToken",
          "type": "address"
        },
        {
          "internalType": "address",
          "name": "_rewardEscrow",
          "type": "address"
        },
        {
          "internalType": "address",
          "name": "_supplySchedule",
          "type": "address"
        },
        {
          "internalType": "uint256",
          "name": "_weeklyStartRewards",
          "type": "uint256"
        }
      ],
      "name": "initialize",
      "outputs": [],
      "stateMutability": "nonpayable",
      "type": "function"
    },
    {
      "inputs": [],
      "name": "lastPauseTime",
      "outputs": [
        {
          "internalType": "uint256",
          "name": "",
          "type": "uint256"
        }
      ],
      "stateMutability": "view",
      "type": "function"
    },
    {
      "inputs": [],
      "name": "lastTimeRewardApplicable",
      "outputs": [
        {
          "internalType": "uint256",
          "name": "",
          "type": "uint256"
        }
      ],
      "stateMutability": "view",
      "type": "function"
    },
    {
      "inputs": [
        {
          "internalType": "address",
          "name": "_owner",
          "type": "address"
        }
      ],
      "name": "nominateNewOwner",
      "outputs": [],
      "stateMutability": "nonpayable",
      "type": "function"
    },
    {
      "inputs": [],
      "name": "nominatedOwner",
      "outputs": [
        {
          "internalType": "address",
          "name": "",
          "type": "address"
        }
      ],
      "stateMutability": "view",
      "type": "function"
    },
    {
      "inputs": [],
      "name": "owner",
      "outputs": [
        {
          "internalType": "address",
          "name": "",
          "type": "address"
        }
      ],
      "stateMutability": "view",
      "type": "function"
    },
    {
      "inputs": [],
      "name": "paused",
      "outputs": [
        {
          "internalType": "bool",
          "name": "",
          "type": "bool"
        }
      ],
      "stateMutability": "view",
      "type": "function"
    },
    {
      "inputs": [],
      "name": "periodFinish",
      "outputs": [
        {
          "internalType": "uint256",
          "name": "",
          "type": "uint256"
        }
      ],
      "stateMutability": "view",
      "type": "function"
    },
    {
      "inputs": [
        {
          "internalType": "address",
          "name": "tokenAddress",
          "type": "address"
        },
        {
          "internalType": "uint256",
          "name": "tokenAmount",
          "type": "uint256"
        }
      ],
      "name": "recoverERC20",
      "outputs": [],
      "stateMutability": "nonpayable",
      "type": "function"
    },
    {
      "inputs": [],
      "name": "rewardEscrow",
      "outputs": [
        {
          "internalType": "contract RewardEscrow",
          "name": "",
          "type": "address"
        }
      ],
      "stateMutability": "view",
      "type": "function"
    },
    {
      "inputs": [
        {
          "internalType": "uint256",
          "name": "_epoch",
          "type": "uint256"
        }
      ],
      "name": "rewardPerRewardScoreOfEpoch",
      "outputs": [
        {
          "internalType": "uint256",
          "name": "",
          "type": "uint256"
        }
      ],
      "stateMutability": "view",
      "type": "function"
    },
    {
      "inputs": [],
      "name": "rewardPerToken",
      "outputs": [
        {
          "internalType": "uint256",
          "name": "",
          "type": "uint256"
        }
      ],
      "stateMutability": "view",
      "type": "function"
    },
    {
      "inputs": [],
      "name": "rewardRate",
      "outputs": [
        {
          "internalType": "uint256",
          "name": "",
          "type": "uint256"
        }
      ],
      "stateMutability": "view",
      "type": "function"
    },
    {
      "inputs": [],
      "name": "rewardRateStaking",
      "outputs": [
        {
          "internalType": "uint256",
          "name": "",
          "type": "uint256"
        }
      ],
      "stateMutability": "view",
      "type": "function"
    },
    {
      "inputs": [],
      "name": "rewardRateTrading",
      "outputs": [
        {
          "internalType": "uint256",
          "name": "",
          "type": "uint256"
        }
      ],
      "stateMutability": "view",
      "type": "function"
    },
    {
      "inputs": [
        {
          "internalType": "address",
          "name": "account",
          "type": "address"
        }
      ],
      "name": "rewardScoreOf",
      "outputs": [
        {
          "internalType": "uint256",
          "name": "",
          "type": "uint256"
        }
      ],
      "stateMutability": "view",
      "type": "function"
    },
    {
      "inputs": [
        {
          "internalType": "address",
          "name": "",
          "type": "address"
        }
      ],
      "name": "rewards",
      "outputs": [
        {
          "internalType": "uint256",
          "name": "",
          "type": "uint256"
        }
      ],
      "stateMutability": "view",
      "type": "function"
    },
    {
      "inputs": [
        {
          "internalType": "address",
          "name": "_exchangerProxy",
          "type": "address"
        }
      ],
      "name": "setExchangerProxy",
      "outputs": [],
      "stateMutability": "nonpayable",
      "type": "function"
    },
    {
      "inputs": [
        {
          "internalType": "bool",
          "name": "_paused",
          "type": "bool"
        }
      ],
      "name": "setPaused",
      "outputs": [],
      "stateMutability": "nonpayable",
      "type": "function"
    },
    {
      "inputs": [
        {
          "internalType": "uint256",
          "name": "_percentageStaking",
          "type": "uint256"
        },
        {
          "internalType": "uint256",
          "name": "_percentageTrading",
          "type": "uint256"
        }
      ],
      "name": "setPercentageRewards",
      "outputs": [],
      "stateMutability": "nonpayable",
      "type": "function"
    },
    {
      "inputs": [
        {
          "internalType": "address",
          "name": "_rewardEscrow",
          "type": "address"
        }
      ],
      "name": "setRewardEscrow",
      "outputs": [],
      "stateMutability": "nonpayable",
      "type": "function"
    },
    {
      "inputs": [
        {
          "internalType": "uint256",
          "name": "reward",
          "type": "uint256"
        }
      ],
      "name": "setRewards",
      "outputs": [],
      "stateMutability": "nonpayable",
      "type": "function"
    },
    {
      "inputs": [
        {
          "internalType": "uint256",
          "name": "newWeeklyStart",
          "type": "uint256"
        }
      ],
      "name": "setWeeklyStartRewards",
      "outputs": [],
      "stateMutability": "nonpayable",
      "type": "function"
    },
    {
      "inputs": [
        {
          "internalType": "uint256",
          "name": "_amount",
          "type": "uint256"
        }
      ],
      "name": "stake",
      "outputs": [],
      "stateMutability": "nonpayable",
      "type": "function"
    },
    {
      "inputs": [
        {
          "internalType": "address",
          "name": "_account",
          "type": "address"
        },
        {
          "internalType": "uint256",
          "name": "_amount",
          "type": "uint256"
        }
      ],
      "name": "stakeEscrow",
      "outputs": [],
      "stateMutability": "nonpayable",
      "type": "function"
    },
    {
      "inputs": [
        {
          "internalType": "address",
          "name": "account",
          "type": "address"
        }
      ],
      "name": "stakedBalanceOf",
      "outputs": [
        {
          "internalType": "uint256",
          "name": "",
          "type": "uint256"
        }
      ],
      "stateMutability": "view",
      "type": "function"
    },
    {
      "inputs": [],
      "name": "stakingToken",
      "outputs": [
        {
          "internalType": "contract IERC20",
          "name": "",
          "type": "address"
        }
      ],
      "stateMutability": "view",
      "type": "function"
    },
    {
      "inputs": [],
      "name": "supplySchedule",
      "outputs": [
        {
          "internalType": "contract ISupplySchedule",
          "name": "",
          "type": "address"
        }
      ],
      "stateMutability": "view",
      "type": "function"
    },
    {
      "inputs": [
        {
          "internalType": "address",
          "name": "account",
          "type": "address"
        }
      ],
      "name": "totalBalanceOf",
      "outputs": [
        {
          "internalType": "uint256",
          "name": "",
          "type": "uint256"
        }
      ],
      "stateMutability": "view",
      "type": "function"
    },
    {
      "inputs": [],
      "name": "totalRewardScore",
      "outputs": [
        {
          "internalType": "uint256",
          "name": "",
          "type": "uint256"
        }
      ],
      "stateMutability": "view",
      "type": "function"
    },
    {
      "inputs": [
        {
          "internalType": "address",
          "name": "_account",
          "type": "address"
        },
        {
          "internalType": "uint256",
          "name": "_amount",
          "type": "uint256"
        }
      ],
      "name": "unstakeEscrow",
      "outputs": [],
      "stateMutability": "nonpayable",
      "type": "function"
    },
    {
      "inputs": [
        {
          "internalType": "address",
          "name": "_trader",
          "type": "address"
        },
        {
          "internalType": "uint256",
          "name": "_newFeesPaid",
          "type": "uint256"
        }
      ],
      "name": "updateTraderScore",
      "outputs": [],
      "stateMutability": "nonpayable",
      "type": "function"
    },
    {
      "inputs": [
        {
          "internalType": "address",
          "name": "newImplementation",
          "type": "address"
        }
      ],
      "name": "upgradeTo",
      "outputs": [],
      "stateMutability": "nonpayable",
      "type": "function"
    },
    {
      "inputs": [
        {
          "internalType": "address",
          "name": "newImplementation",
          "type": "address"
        },
        {
          "internalType": "bytes",
          "name": "data",
          "type": "bytes"
        }
      ],
      "name": "upgradeToAndCall",
      "outputs": [],
      "stateMutability": "payable",
      "type": "function"
    },
    {
      "inputs": [],
      "name": "weeklyStartRewards",
      "outputs": [
        {
          "internalType": "uint256",
          "name": "",
          "type": "uint256"
        }
      ],
      "stateMutability": "view",
      "type": "function"
    },
    {
      "inputs": [
        {
          "internalType": "uint256",
          "name": "_amount",
          "type": "uint256"
        }
      ],
      "name": "withdraw",
      "outputs": [],
      "stateMutability": "nonpayable",
      "type": "function"
    }
  ],
  "numDeployments": 1,
  "solcInputHash": "ee7a47eef76e566acaa3fa51ec176ca2",
  "bytecode": "0x60a06040523073ffffffffffffffffffffffffffffffffffffffff1660809073ffffffffffffffffffffffffffffffffffffffff1660601b81525034801561004657600080fd5b5060805160601c61518461007a60003960008181611493015281816115220152818161193301526119c201526151846000f3fe6080604052600436106102fe5760003560e01c80637667180811610190578063a430be6c116100dc578063c7a29c6f11610095578063e9fad8ee1161006f578063e9fad8ee14610b4c578063ebe2b12b14610b63578063f7013ef614610b8e578063fac902a514610bb7576102fe565b8063c7a29c6f14610acf578063c9c7da1614610af8578063cd3daf9d14610b21576102fe565b8063a430be6c146109d1578063a694fc3a146109fc578063ad6621df14610a25578063b3502c9314610a50578063c0376c7f14610a79578063c40dd66f14610aa4576102fe565b80638980f11f1161014957806391fda50f1161012357806391fda50f14610905578063985134fb146109425780639e1b9aa21461096b578063a40ec3d514610994576102fe565b80638980f11f146108865780638da5cb5b146108af57806391b4ded9146108da576102fe565b8063766718081461079857806376699292146107c357806379ba5097146107ee5780637b0a47ee146108055780637e076c791461083057806380faa57d1461085b576102fe565b80633659cfe61161024f57806352db467a116102085780635de39934116101e25780635de39934146106f257806360ff1fc81461071b57806369b75fa31461074457806372f702f31461076d576102fe565b806352db467a1461067157806353a47bb71461069c5780635c975abb146106c7576102fe565b80633659cfe6146105825780633821fc9f146105ab5780633d18b912146105d65780634b0ee02a146105ed5780634e2dc4c51461062a5780634f1ef28614610655576102fe565b806316765391116102bc578063273128451161029657806327312845146104dc5780632caf8c63146105055780632e1a7d4d146105305780632f3cca4e14610559576102fe565b8063167653911461043957806316c38b3c14610476578063232150181461049f576102fe565b80628cc26214610303578063057a601b146103405780630700037d1461037d57806310b4dedb146103ba578063140db5ce146103e55780631627540c14610410575b600080fd5b34801561030f57600080fd5b5061032a60048036038101906103259190613f45565b610be2565b60405161033791906148dc565b60405180910390f35b34801561034c57600080fd5b5061036760048036038101906103629190613f45565b610dfd565b60405161037491906148dc565b60405180910390f35b34801561038957600080fd5b506103a4600480360381019061039f9190613f45565b610e46565b6040516103b191906148dc565b60405180910390f35b3480156103c657600080fd5b506103cf610e5e565b6040516103dc91906148dc565b60405180910390f35b3480156103f157600080fd5b506103fa610e64565b60405161040791906148dc565b60405180910390f35b34801561041c57600080fd5b5061043760048036038101906104329190613f45565b610e6a565b005b34801561044557600080fd5b50610460600480360381019061045b9190613f45565b610eed565b60405161046d91906148dc565b60405180910390f35b34801561048257600080fd5b5061049d60048036038101906104989190614089565b610f80565b005b3480156104ab57600080fd5b506104c660048036038101906104c19190613f45565b611029565b6040516104d391906148dc565b60405180910390f35b3480156104e857600080fd5b5061050360048036038101906104fe919061416a565b611072565b005b34801561051157600080fd5b5061051a6110a5565b604051610527919061463f565b60405180910390f35b34801561053c57600080fd5b506105576004803603810190610552919061413d565b6110ab565b005b34801561056557600080fd5b50610580600480360381019061057b9190613f45565b61131c565b005b34801561058e57600080fd5b506105a960048036038101906105a49190613f45565b611491565b005b3480156105b757600080fd5b506105c061161a565b6040516105cd919061463f565b60405180910390f35b3480156105e257600080fd5b506105eb611620565b005b3480156105f957600080fd5b50610614600480360381019061060f9190613f45565b6118cb565b60405161062191906148dc565b60405180910390f35b34801561063657600080fd5b5061063f611914565b60405161064c91906148dc565b60405180910390f35b61066f600480360381019061066a9190613fed565b611931565b005b34801561067d57600080fd5b50610686611a6e565b60405161069391906148dc565b60405180910390f35b3480156106a857600080fd5b506106b1611a74565b6040516106be91906144f8565b60405180910390f35b3480156106d357600080fd5b506106dc611a9a565b6040516106e991906145d3565b60405180910390f35b3480156106fe57600080fd5b5061071960048036038101906107149190613f45565b611aad565b005b34801561072757600080fd5b50610742600480360381019061073d919061413d565b611c3d565b005b34801561075057600080fd5b5061076b60048036038101906107669190613f45565b611c5c565b005b34801561077957600080fd5b50610782611cdf565b60405161078f91906145ee565b60405180910390f35b3480156107a457600080fd5b506107ad611d05565b6040516107ba91906148dc565b60405180910390f35b3480156107cf57600080fd5b506107d8611d0b565b6040516107e591906148dc565b60405180910390f35b3480156107fa57600080fd5b50610803611d11565b005b34801561081157600080fd5b5061081a611ec5565b60405161082791906148dc565b60405180910390f35b34801561083c57600080fd5b50610845611ecb565b60405161085291906148dc565b60405180910390f35b34801561086757600080fd5b50610870611ed1565b60405161087d91906148dc565b60405180910390f35b34801561089257600080fd5b506108ad60048036038101906108a89190614049565b611ee4565b005b3480156108bb57600080fd5b506108c4612034565b6040516108d191906144f8565b60405180910390f35b3480156108e657600080fd5b506108ef61205a565b6040516108fc91906148dc565b60405180910390f35b34801561091157600080fd5b5061092c60048036038101906109279190613f45565b612060565b60405161093991906148dc565b60405180910390f35b34801561094e57600080fd5b5061096960048036038101906109649190614049565b6120bc565b005b34801561097757600080fd5b50610992600480360381019061098d9190613f45565b61221a565b005b3480156109a057600080fd5b506109bb60048036038101906109b6919061413d565b6123df565b6040516109c891906148dc565b60405180910390f35b3480156109dd57600080fd5b506109e66123fc565b6040516109f39190614624565b60405180910390f35b348015610a0857600080fd5b50610a236004803603810190610a1e919061413d565b612422565b005b348015610a3157600080fd5b50610a3a612652565b604051610a4791906148dc565b60405180910390f35b348015610a5c57600080fd5b50610a776004803603810190610a729190614049565b61265b565b005b348015610a8557600080fd5b50610a8e6127f4565b604051610a9b91906148dc565b60405180910390f35b348015610ab057600080fd5b50610ab96127fa565b604051610ac69190614609565b60405180910390f35b348015610adb57600080fd5b50610af66004803603810190610af1919061413d565b612820565b005b348015610b0457600080fd5b50610b1f6004803603810190610b1a9190614049565b61293a565b005b348015610b2d57600080fd5b50610b36612b39565b604051610b4391906148dc565b60405180910390f35b348015610b5857600080fd5b50610b61612ba9565b005b348015610b6f57600080fd5b50610b78612bc4565b604051610b8591906148dc565b60405180910390f35b348015610b9a57600080fd5b50610bb56004803603810190610bb09190613f72565b612bca565b005b348015610bc357600080fd5b50610bcc612e30565b604051610bd991906144f8565b60405180910390f35b6000806c0c9f2c9cd04674edea4000000060ae60008573ffffffffffffffffffffffffffffffffffffffff1673ffffffffffffffffffffffffffffffffffffffff16815260200190815260200160002054610c3b612b39565b610c459190614a60565b60b460008673ffffffffffffffffffffffffffffffffffffffff1673ffffffffffffffffffffffffffffffffffffffff16815260200190815260200160002054610c8f9190614a06565b610c9991906149d5565b9050600060ab5460ac60008673ffffffffffffffffffffffffffffffffffffffff1673ffffffffffffffffffffffffffffffffffffffff168152602001908152602001600020541015610d9e576c0c9f2c9cd04674edea4000000060ad600060ac60008873ffffffffffffffffffffffffffffffffffffffff1673ffffffffffffffffffffffffffffffffffffffff1681526020019081526020016000205481526020019081526020016000205460b560008773ffffffffffffffffffffffffffffffffffffffff1673ffffffffffffffffffffffffffffffffffffffff16815260200190815260200160002054610d919190614a06565b610d9b91906149d5565b90505b60af60008573ffffffffffffffffffffffffffffffffffffffff1673ffffffffffffffffffffffffffffffffffffffff168152602001908152602001600020548183610dea919061497f565b610df4919061497f565b92505050919050565b600060b260008373ffffffffffffffffffffffffffffffffffffffff1673ffffffffffffffffffffffffffffffffffffffff168152602001908152602001600020549050919050565b60af6020528060005260406000206000915090505481565b60b65481565b61271081565b610e72612e56565b80603460006101000a81548173ffffffffffffffffffffffffffffffffffffffff021916908373ffffffffffffffffffffffffffffffffffffffff1602179055507f906a1c6bd7e3091ea86693dd029a831c19049ce77f1dce2ce0bab1cacbabce2281604051610ee291906144f8565b60405180910390a150565b600060b260008373ffffffffffffffffffffffffffffffffffffffff1673ffffffffffffffffffffffffffffffffffffffff1681526020019081526020016000205460b460008473ffffffffffffffffffffffffffffffffffffffff1673ffffffffffffffffffffffffffffffffffffffff16815260200190815260200160002054610f799190614a60565b9050919050565b610f88612e56565b603660009054906101000a900460ff1615158115151415610fa857611026565b80603660006101000a81548160ff021916908315150217905550603660009054906101000a900460ff1615610fdf57426035819055505b7f8fb6c181ee25a520cf3dd6565006ef91229fcfe5a989566c2a3b8c115570cec5603660009054906101000a900460ff1660405161101d91906145d3565b60405180910390a15b50565b600060b360008373ffffffffffffffffffffffffffffffffffffffff1673ffffffffffffffffffffffffffffffffffffffff168152602001908152602001600020549050919050565b61107a612e56565b6127108282611089919061497f565b1461109357600080fd5b8160b6819055508060b7819055505050565b60b85481565b600260015414156110f1576040517f08c379a00000000000000000000000000000000000000000000000000000000081526004016110e89061485c565b60405180910390fd5b60026001819055503361110381612ee8565b60008211611146576040517f08c379a000000000000000000000000000000000000000000000000000000000815260040161113d9061477c565b60405180910390fd5b8161115033610eed565b101561115b57600080fd5b8160b460003373ffffffffffffffffffffffffffffffffffffffff1673ffffffffffffffffffffffffffffffffffffffff16815260200190815260200160002060008282546111aa9190614a60565b925050819055508160b160008282546111c39190614a60565b925050819055506112133360b560003373ffffffffffffffffffffffffffffffffffffffff1673ffffffffffffffffffffffffffffffffffffffff16815260200190815260200160002054613065565b60a360009054906101000a900473ffffffffffffffffffffffffffffffffffffffff1673ffffffffffffffffffffffffffffffffffffffff1663a9059cbb33846040518363ffffffff1660e01b8152600401611270929190614573565b602060405180830381600087803b15801561128a57600080fd5b505af115801561129e573d6000803e3d6000fd5b505050506040513d601f19601f820116820180604052508101906112c291906140b6565b503373ffffffffffffffffffffffffffffffffffffffff167f7084f5476618d8e60b11ef0d7d3f06914655adb8793e28ff7f018d4c76d505d58360405161130991906148dc565b60405180910390a2506001808190555050565b600060019054906101000a900460ff1680611342575060008054906101000a900460ff16155b611381576040517f08c379a0000000000000000000000000000000000000000000000000000000008152600401611378906146fc565b60405180910390fd5b60008060019054906101000a900460ff1615905080156113d1576001600060016101000a81548160ff02191690831515021790555060016000806101000a81548160ff0219169083151502179055505b6113da8261221a565b600073ffffffffffffffffffffffffffffffffffffffff16603360009054906101000a900473ffffffffffffffffffffffffffffffffffffffff1673ffffffffffffffffffffffffffffffffffffffff16141561146c576040517f08c379a00000000000000000000000000000000000000000000000000000000081526004016114639061481c565b60405180910390fd5b801561148d5760008060016101000a81548160ff0219169083151502179055505b5050565b7f000000000000000000000000000000000000000000000000000000000000000073ffffffffffffffffffffffffffffffffffffffff163073ffffffffffffffffffffffffffffffffffffffff161415611520576040517f08c379a0000000000000000000000000000000000000000000000000000000008152600401611517906146bc565b60405180910390fd5b7f000000000000000000000000000000000000000000000000000000000000000073ffffffffffffffffffffffffffffffffffffffff1661155f6134fb565b73ffffffffffffffffffffffffffffffffffffffff16146115b5576040517f08c379a00000000000000000000000000000000000000000000000000000000081526004016115ac906146dc565b60405180910390fd5b6115be81613552565b61161781600067ffffffffffffffff8111156115dd576115dc614c54565b5b6040519080825280601f01601f19166020018201604052801561160f5781602001600182028036833780820191505090505b50600061355d565b50565b60b95481565b3361162a81612ee8565b60026001541415611670576040517f08c379a00000000000000000000000000000000000000000000000000000000081526004016116679061485c565b60405180910390fd5b6002600181905550600060af60003373ffffffffffffffffffffffffffffffffffffffff1673ffffffffffffffffffffffffffffffffffffffff16815260200190815260200160002054905060008111156118c057600060af60003373ffffffffffffffffffffffffffffffffffffffff1673ffffffffffffffffffffffffffffffffffffffff1681526020019081526020016000208190555060a360009054906101000a900473ffffffffffffffffffffffffffffffffffffffff1673ffffffffffffffffffffffffffffffffffffffff1663a9059cbb60a060009054906101000a900473ffffffffffffffffffffffffffffffffffffffff16836040518363ffffffff1660e01b8152600401611789929190614573565b602060405180830381600087803b1580156117a357600080fd5b505af11580156117b7573d6000803e3d6000fd5b505050506040513d601f19601f820116820180604052508101906117db91906140b6565b5060a060009054906101000a900473ffffffffffffffffffffffffffffffffffffffff1673ffffffffffffffffffffffffffffffffffffffff16631bb47b4433836301dfe2006040518463ffffffff1660e01b815260040161183f9392919061459c565b600060405180830381600087803b15801561185957600080fd5b505af115801561186d573d6000803e3d6000fd5b505050503373ffffffffffffffffffffffffffffffffffffffff167fe2403640ba68fed3a2f88b7557551d1993f84b99bb10ff833f0cf8db0c5e0486826040516118b791906148dc565b60405180910390a25b506001808190555050565b600060b460008373ffffffffffffffffffffffffffffffffffffffff1673ffffffffffffffffffffffffffffffffffffffff168152602001908152602001600020549050919050565b6000670de0b6b3a764000060b05461192c91906149d5565b905090565b7f000000000000000000000000000000000000000000000000000000000000000073ffffffffffffffffffffffffffffffffffffffff163073ffffffffffffffffffffffffffffffffffffffff1614156119c0576040517f08c379a00000000000000000000000000000000000000000000000000000000081526004016119b7906146bc565b60405180910390fd5b7f000000000000000000000000000000000000000000000000000000000000000073ffffffffffffffffffffffffffffffffffffffff166119ff6134fb565b73ffffffffffffffffffffffffffffffffffffffff1614611a55576040517f08c379a0000000000000000000000000000000000000000000000000000000008152600401611a4c906146dc565b60405180910390fd5b611a5e82613552565b611a6a8282600161355d565b5050565b60b75481565b603460009054906101000a900473ffffffffffffffffffffffffffffffffffffffff1681565b603660009054906101000a900460ff1681565b611ab5612e56565b60a360009054906101000a900473ffffffffffffffffffffffffffffffffffffffff1673ffffffffffffffffffffffffffffffffffffffff168173ffffffffffffffffffffffffffffffffffffffff16639034802b6040518163ffffffff1660e01b815260040160206040518083038186803b158015611b3457600080fd5b505afa158015611b48573d6000803e3d6000fd5b505050506040513d601f19601f82011682018060405250810190611b6c91906140e3565b73ffffffffffffffffffffffffffffffffffffffff1614611bc2576040517f08c379a0000000000000000000000000000000000000000000000000000000008152600401611bb9906147bc565b60405180910390fd5b8060a060006101000a81548173ffffffffffffffffffffffffffffffffffffffff021916908373ffffffffffffffffffffffffffffffffffffffff1602179055507f49e357bac6fcb3c303debe16e178b6d540dbbb2257f766b410ad2188a5e2fd2381604051611c3291906144f8565b60405180910390a150565b611c45612e56565b60078110611c5257600080fd5b8060a58190555050565b611c64612e56565b8060a260006101000a81548173ffffffffffffffffffffffffffffffffffffffff021916908373ffffffffffffffffffffffffffffffffffffffff1602179055507fb424d06ab3c62d2b4de6f8ca0de9e7afe2d6dc4736620764402079c1c0a4823781604051611cd491906144f8565b60405180910390a150565b60a360009054906101000a900473ffffffffffffffffffffffffffffffffffffffff1681565b60ab5481565b60a85481565b603460009054906101000a900473ffffffffffffffffffffffffffffffffffffffff1673ffffffffffffffffffffffffffffffffffffffff163373ffffffffffffffffffffffffffffffffffffffff1614611da1576040517f08c379a0000000000000000000000000000000000000000000000000000000008152600401611d989061467c565b60405180910390fd5b7fb532073b38c83145e3e5135377a08bf9aab55bc0fd7c1179cd4fb995d2a5159c603360009054906101000a900473ffffffffffffffffffffffffffffffffffffffff16603460009054906101000a900473ffffffffffffffffffffffffffffffffffffffff16604051611e16929190614513565b60405180910390a1603460009054906101000a900473ffffffffffffffffffffffffffffffffffffffff16603360006101000a81548173ffffffffffffffffffffffffffffffffffffffff021916908373ffffffffffffffffffffffffffffffffffffffff1602179055506000603460006101000a81548173ffffffffffffffffffffffffffffffffffffffff021916908373ffffffffffffffffffffffffffffffffffffffff160217905550565b60a65481565b60a75481565b6000611edf4260a45461372e565b905090565b611eec612e56565b60a360009054906101000a900473ffffffffffffffffffffffffffffffffffffffff1673ffffffffffffffffffffffffffffffffffffffff168273ffffffffffffffffffffffffffffffffffffffff161415611f4757600080fd5b8173ffffffffffffffffffffffffffffffffffffffff1663a9059cbb603360009054906101000a900473ffffffffffffffffffffffffffffffffffffffff16836040518363ffffffff1660e01b8152600401611fa4929190614573565b602060405180830381600087803b158015611fbe57600080fd5b505af1158015611fd2573d6000803e3d6000fd5b505050506040513d601f19601f82011682018060405250810190611ff691906140b6565b507f8c1256b8896378cd5044f80c202f9772b9d77dc85c8a6eb51967210b09bfaa288282604051612028929190614573565b60405180910390a15050565b603360009054906101000a900473ffffffffffffffffffffffffffffffffffffffff1681565b60355481565b6000670de0b6b3a764000060b560008473ffffffffffffffffffffffffffffffffffffffff1673ffffffffffffffffffffffffffffffffffffffff168152602001908152602001600020546120b591906149d5565b9050919050565b6120c4613747565b816120ce81612ee8565b8160b460008573ffffffffffffffffffffffffffffffffffffffff1673ffffffffffffffffffffffffffffffffffffffff168152602001908152602001600020600082825461211d919061497f565b925050819055508160b16000828254612136919061497f565b925050819055508160b260008573ffffffffffffffffffffffffffffffffffffffff1673ffffffffffffffffffffffffffffffffffffffff168152602001908152602001600020600082825461218c919061497f565b925050819055506121dc3360b560003373ffffffffffffffffffffffffffffffffffffffff1673ffffffffffffffffffffffffffffffffffffffff16815260200190815260200160002054613065565b7f945856e466506640ce955f1ec0de49513761175bad680d8503f7c8d45beabb20838360405161220d929190614573565b60405180910390a1505050565b600060019054906101000a900460ff1680612240575060008054906101000a900460ff16155b61227f576040517f08c379a0000000000000000000000000000000000000000000000000000000008152600401612276906146fc565b60405180910390fd5b60008060019054906101000a900460ff1615905080156122cf576001600060016101000a81548160ff02191690831515021790555060016000806101000a81548160ff0219169083151502179055505b600073ffffffffffffffffffffffffffffffffffffffff168273ffffffffffffffffffffffffffffffffffffffff16141561233f576040517f08c379a00000000000000000000000000000000000000000000000000000000081526004016123369061483c565b60405180910390fd5b81603360006101000a81548173ffffffffffffffffffffffffffffffffffffffff021916908373ffffffffffffffffffffffffffffffffffffffff1602179055507fb532073b38c83145e3e5135377a08bf9aab55bc0fd7c1179cd4fb995d2a5159c6000836040516123b2929190614513565b60405180910390a180156123db5760008060016101000a81548160ff0219169083151502179055505b5050565b600060ad6000838152602001908152602001600020549050919050565b60a060009054906101000a900473ffffffffffffffffffffffffffffffffffffffff1681565b60026001541415612468576040517f08c379a000000000000000000000000000000000000000000000000000000000815260040161245f9061485c565b60405180910390fd5b60026001819055506124786137a9565b3361248281612ee8565b6000821161248f57600080fd5b8160b460003373ffffffffffffffffffffffffffffffffffffffff1673ffffffffffffffffffffffffffffffffffffffff16815260200190815260200160002060008282546124de919061497f565b925050819055508160b160008282546124f7919061497f565b925050819055506125473360b560003373ffffffffffffffffffffffffffffffffffffffff1673ffffffffffffffffffffffffffffffffffffffff16815260200190815260200160002054613065565b60a360009054906101000a900473ffffffffffffffffffffffffffffffffffffffff1673ffffffffffffffffffffffffffffffffffffffff166323b872dd3330856040518463ffffffff1660e01b81526004016125a69392919061453c565b602060405180830381600087803b1580156125c057600080fd5b505af11580156125d4573d6000803e3d6000fd5b505050506040513d601f19601f820116820180604052508101906125f891906140b6565b503373ffffffffffffffffffffffffffffffffffffffff167f9e71bc8eea02a63969f509818f2dafb9254532904319f9dbda79b67bd34a5f3d8360405161263f91906148dc565b60405180910390a2506001808190555050565b64e8d4a5100081565b6126636137fb565b8161266d81612ee8565b600060b560008573ffffffffffffffffffffffffffffffffffffffff1673ffffffffffffffffffffffffffffffffffffffff16815260200190815260200160002054905060ab5460ac60008673ffffffffffffffffffffffffffffffffffffffff1673ffffffffffffffffffffffffffffffffffffffff16815260200190815260200160002054101561278d578260b360008673ffffffffffffffffffffffffffffffffffffffff1673ffffffffffffffffffffffffffffffffffffffff1681526020019081526020016000208190555060ab5460ac60008673ffffffffffffffffffffffffffffffffffffffff1673ffffffffffffffffffffffffffffffffffffffff16815260200190815260200160002081905550600090506127e4565b8260b360008673ffffffffffffffffffffffffffffffffffffffff1673ffffffffffffffffffffffffffffffffffffffff16815260200190815260200160002060008282546127dc919061497f565b925050819055505b6127ee8482613065565b50505050565b60a55481565b60a160009054906101000a900473ffffffffffffffffffffffffffffffffffffffff1681565b61282861385d565b600061283381612ee8565b60a45442106128565762093a808261284b91906149d5565b60a68190555061289d565b60004260a4546128669190614a60565b9050600060a654826128789190614a06565b905062093a808161288991906149d5565b84612894919061497f565b60a68190555050505b61271060b65460a6546128b09190614a06565b6128ba91906149d5565b60a78190555061271060b75460a6546128d39190614a06565b6128dd91906149d5565b60a8819055504260a98190555062093a80426128f9919061497f565b60a4819055507fde88a922e0d3b88b24e9623efeb464919c6bf9f66857a65e2bfcf2ce87a9433d8260405161292e91906148dc565b60405180910390a15050565b60026001541415612980576040517f08c379a00000000000000000000000000000000000000000000000000000000081526004016129779061485c565b60405180910390fd5b6002600181905550612990613747565b8161299a81612ee8565b8160b260008573ffffffffffffffffffffffffffffffffffffffff1673ffffffffffffffffffffffffffffffffffffffff1681526020019081526020016000205410156129e657600080fd5b8160b460008573ffffffffffffffffffffffffffffffffffffffff1673ffffffffffffffffffffffffffffffffffffffff1681526020019081526020016000206000828254612a359190614a60565b925050819055508160b16000828254612a4e9190614a60565b925050819055508160b260008573ffffffffffffffffffffffffffffffffffffffff1673ffffffffffffffffffffffffffffffffffffffff1681526020019081526020016000206000828254612aa49190614a60565b92505081905550612af43360b560003373ffffffffffffffffffffffffffffffffffffffff1673ffffffffffffffffffffffffffffffffffffffff16815260200190815260200160002054613065565b7fbd0d30ac1729a6f57b09c27c8f39102f2704fbbf708747dcd198e45cf27f52828383604051612b25929190614573565b60405180910390a150600180819055505050565b60008060b1541415612b4f5760aa549050612ba6565b60b1546c0c9f2c9cd04674edea4000000060a75460a954612b6e611ed1565b612b789190614a60565b612b829190614a06565b612b8c9190614a06565b612b9691906149d5565b60aa54612ba3919061497f565b90505b90565b612bba612bb533610eed565b6110ab565b612bc2611620565b565b60a45481565b600060019054906101000a900460ff1680612bf0575060008054906101000a900460ff16155b612c2f576040517f08c379a0000000000000000000000000000000000000000000000000000000008152600401612c26906146fc565b60405180910390fd5b60008060019054906101000a900460ff161590508015612c7f576001600060016101000a81548160ff02191690831515021790555060016000806101000a81548160ff0219169083151502179055505b612c888661131c565b612c906138bf565b600060a481905550600060a6819055508460a360006101000a81548173ffffffffffffffffffffffffffffffffffffffff021916908373ffffffffffffffffffffffffffffffffffffffff160217905550609b73__$58bf06b23003f263f89da1a87991e621d6$__6373cf14bd909160126040518363ffffffff1660e01b8152600401612d1e9291906148b3565b60006040518083038186803b158015612d3657600080fd5b505af4158015612d4a573d6000803e3d6000fd5b505050508360a060006101000a81548173ffffffffffffffffffffffffffffffffffffffff021916908373ffffffffffffffffffffffffffffffffffffffff1602179055508260a160006101000a81548173ffffffffffffffffffffffffffffffffffffffff021916908373ffffffffffffffffffffffffffffffffffffffff160217905550611f4060b6819055506107d060b781905550670429d069189e000060b9819055506709b6e64a8ec6000060b8819055508160a5819055508015612e285760008060016101000a81548160ff0219169083151502179055505b505050505050565b60a260009054906101000a900473ffffffffffffffffffffffffffffffffffffffff1681565b603360009054906101000a900473ffffffffffffffffffffffffffffffffffffffff1673ffffffffffffffffffffffffffffffffffffffff163373ffffffffffffffffffffffffffffffffffffffff1614612ee6576040517f08c379a0000000000000000000000000000000000000000000000000000000008152600401612edd9061473c565b60405180910390fd5b565b612ef0612b39565b60aa81905550612efe611ed1565b60a981905550612f0c6139a0565b600073ffffffffffffffffffffffffffffffffffffffff168173ffffffffffffffffffffffffffffffffffffffff161461306257612f4981610be2565b60af60008373ffffffffffffffffffffffffffffffffffffffff1673ffffffffffffffffffffffffffffffffffffffff1681526020019081526020016000208190555060ab5460ac60003373ffffffffffffffffffffffffffffffffffffffff1673ffffffffffffffffffffffffffffffffffffffff16815260200190815260200160002054101561301b57600060b560003373ffffffffffffffffffffffffffffffffffffffff1673ffffffffffffffffffffffffffffffffffffffff168152602001908152602001600020819055505b60aa5460ae60008373ffffffffffffffffffffffffffffffffffffffff1673ffffffffffffffffffffffffffffffffffffffff168152602001908152602001600020819055505b50565b600060b460008473ffffffffffffffffffffffffffffffffffffffff1673ffffffffffffffffffffffffffffffffffffffff1681526020019081526020016000205414806130f4575061271060b460008473ffffffffffffffffffffffffffffffffffffffff1673ffffffffffffffffffffffffffffffffffffffff1681526020019081526020016000205410155b613133576040517f08c379a000000000000000000000000000000000000000000000000000000000815260040161312a9061475c565b60405180910390fd5b600060b360008473ffffffffffffffffffffffffffffffffffffffff1673ffffffffffffffffffffffffffffffffffffffff1681526020019081526020016000205414806131c5575064e8d4a5100060b360008473ffffffffffffffffffffffffffffffffffffffff1673ffffffffffffffffffffffffffffffffffffffff1681526020019081526020016000205410155b613204576040517f08c379a00000000000000000000000000000000000000000000000000000000081526004016131fb9061471c565b60405180910390fd5b600060ab5460ac60008573ffffffffffffffffffffffffffffffffffffffff1673ffffffffffffffffffffffffffffffffffffffff168152602001908152602001600020541480156132955750600060b460008573ffffffffffffffffffffffffffffffffffffffff1673ffffffffffffffffffffffffffffffffffffffff16815260200190815260200160002054115b1561344557609b73__$5caaad119dd87e5673627738f390a7d315$__633d37f8b2909160b360008773ffffffffffffffffffffffffffffffffffffffff1673ffffffffffffffffffffffffffffffffffffffff1681526020019081526020016000205460b8546040518463ffffffff1660e01b81526004016133199392919061487c565b60206040518083038186803b15801561333157600080fd5b505af4158015613345573d6000803e3d6000fd5b505050506040513d601f19601f820116820180604052508101906133699190614110565b609b73__$5caaad119dd87e5673627738f390a7d315$__633d37f8b2909160b460008873ffffffffffffffffffffffffffffffffffffffff1673ffffffffffffffffffffffffffffffffffffffff1681526020019081526020016000205460b9546040518463ffffffff1660e01b81526004016133e89392919061487c565b60206040518083038186803b15801561340057600080fd5b505af4158015613414573d6000803e3d6000fd5b505050506040513d601f19601f820116820180604052508101906134389190614110565b6134429190614a06565b90505b60ab5460ac60008573ffffffffffffffffffffffffffffffffffffffff1673ffffffffffffffffffffffffffffffffffffffff16815260200190815260200160002054101561349357600091505b8060b560008573ffffffffffffffffffffffffffffffffffffffff1673ffffffffffffffffffffffffffffffffffffffff16815260200190815260200160002081905550808260b0546134e69190614a60565b6134f0919061497f565b60b081905550505050565b60006135297f360894a13ba1a3210667c828492db98dca3e2076cc3735a920a3ca505d382bbc60001b613a3c565b60000160009054906101000a900473ffffffffffffffffffffffffffffffffffffffff16905090565b61355a612e56565b50565b60006135676134fb565b905061357284613a46565b60008351118061357f5750815b156135905761358e8484613aff565b505b60006135be7f4910fdfa16fed3260ed0e7147f7cc6da11a60208b5b9406d12a635614ffd914360001b613be3565b90508060000160009054906101000a900460ff166137275760018160000160006101000a81548160ff02191690831515021790555061368a858360405160240161360891906144f8565b6040516020818303038152906040527f3659cfe6000000000000000000000000000000000000000000000000000000007bffffffffffffffffffffffffffffffffffffffffffffffffffffffff19166020820180517bffffffffffffffffffffffffffffffffffffffffffffffffffffffff8381831617835250505050613aff565b5060008160000160006101000a81548160ff0219169083151502179055506136b06134fb565b73ffffffffffffffffffffffffffffffffffffffff168273ffffffffffffffffffffffffffffffffffffffff161461371d576040517f08c379a00000000000000000000000000000000000000000000000000000000081526004016137149061469c565b60405180910390fd5b61372685613bed565b5b5050505050565b600081831061373d578161373f565b825b905092915050565b600060a060009054906101000a900473ffffffffffffffffffffffffffffffffffffffff1673ffffffffffffffffffffffffffffffffffffffff163373ffffffffffffffffffffffffffffffffffffffff16149050806137a657600080fd5b50565b603660009054906101000a900460ff16156137f9576040517f08c379a00000000000000000000000000000000000000000000000000000000081526004016137f0906147dc565b60405180910390fd5b565b600060a260009054906101000a900473ffffffffffffffffffffffffffffffffffffffff1673ffffffffffffffffffffffffffffffffffffffff163373ffffffffffffffffffffffffffffffffffffffff161490508061385a57600080fd5b50565b600060a160009054906101000a900473ffffffffffffffffffffffffffffffffffffffff1673ffffffffffffffffffffffffffffffffffffffff163373ffffffffffffffffffffffffffffffffffffffff16149050806138bc57600080fd5b50565b600060019054906101000a900460ff16806138e5575060008054906101000a900460ff16155b613924576040517f08c379a000000000000000000000000000000000000000000000000000000000815260040161391b906146fc565b60405180910390fd5b60008060019054906101000a900460ff161590508015613974576001600060016101000a81548160ff02191690831515021790555060016000806101000a81548160ff0219169083151502179055505b61397c613c3c565b801561399d5760008060016101000a81548160ff0219169083151502179055505b50565b60006139ab42613d1c565b905060ab54811115613a3957600060b0541180156139d457506139cf60a454613d1c565b60ab54105b15613a295760b0546c0c9f2c9cd04674edea4000000062093a8060a8546139fb9190614a06565b613a059190614a06565b613a0f91906149d5565b60ad600060ab548152602001908152602001600020819055505b600060b0819055508060ab819055505b50565b6000819050919050565b613a4f81613ddd565b613a8e576040517f08c379a0000000000000000000000000000000000000000000000000000000008152600401613a859061479c565b60405180910390fd5b80613abb7f360894a13ba1a3210667c828492db98dca3e2076cc3735a920a3ca505d382bbc60001b613a3c565b60000160006101000a81548173ffffffffffffffffffffffffffffffffffffffff021916908373ffffffffffffffffffffffffffffffffffffffff16021790555050565b6060613b0a83613ddd565b613b49576040517f08c379a0000000000000000000000000000000000000000000000000000000008152600401613b40906147fc565b60405180910390fd5b6000808473ffffffffffffffffffffffffffffffffffffffff1684604051613b7191906144e1565b600060405180830381855af49150503d8060008114613bac576040519150601f19603f3d011682016040523d82523d6000602084013e613bb1565b606091505b5091509150613bd9828260405180606001604052806027815260200161512860279139613df0565b9250505092915050565b6000819050919050565b613bf681613a46565b8073ffffffffffffffffffffffffffffffffffffffff167fbc7cd75a20ee27fd9adebab32041f755214dbc6bffa90cc0225b39da2e5c2d3b60405160405180910390a250565b600060019054906101000a900460ff1680613c62575060008054906101000a900460ff16155b613ca1576040517f08c379a0000000000000000000000000000000000000000000000000000000008152600401613c98906146fc565b60405180910390fd5b60008060019054906101000a900460ff161590508015613cf1576001600060016101000a81548160ff02191690831515021790555060016000806101000a81548160ff0219169083151502179055505b600180819055508015613d195760008060016101000a81548160ff0219169083151502179055505b50565b6000620151808083613d2e91906149d5565b613d389190614a06565b9150600062093a808084613d4c91906149d5565b613d569190614a06565b90506201518060a5546007613d6b9190614a60565b613d759190614a06565b8184613d819190614a60565b10613db8576201518060a554613d979190614a06565b62093a8082613da6919061497f565b613db09190614a60565b915050613dd8565b6201518060a554613dc99190614a06565b81613dd49190614a60565b9150505b919050565b600080823b905060008111915050919050565b60608315613e0057829050613e50565b600083511115613e135782518084602001fd5b816040517f08c379a0000000000000000000000000000000000000000000000000000000008152600401613e47919061465a565b60405180910390fd5b9392505050565b6000613e6a613e658461491c565b6148f7565b905082815260208101848484011115613e8657613e85614c88565b5b613e91848285614b83565b509392505050565b600081359050613ea8816150b4565b92915050565b600081359050613ebd816150cb565b92915050565b600081519050613ed2816150cb565b92915050565b600082601f830112613eed57613eec614c83565b5b8135613efd848260208601613e57565b91505092915050565b600081519050613f15816150e2565b92915050565b600081519050613f2a816150f9565b92915050565b600081359050613f3f81615110565b92915050565b600060208284031215613f5b57613f5a614c92565b5b6000613f6984828501613e99565b91505092915050565b600080600080600060a08688031215613f8e57613f8d614c92565b5b6000613f9c88828901613e99565b9550506020613fad88828901613e99565b9450506040613fbe88828901613e99565b9350506060613fcf88828901613e99565b9250506080613fe088828901613f30565b9150509295509295909350565b6000806040838503121561400457614003614c92565b5b600061401285828601613e99565b925050602083013567ffffffffffffffff81111561403357614032614c8d565b5b61403f85828601613ed8565b9150509250929050565b600080604083850312156140605761405f614c92565b5b600061406e85828601613e99565b925050602061407f85828601613f30565b9150509250929050565b60006020828403121561409f5761409e614c92565b5b60006140ad84828501613eae565b91505092915050565b6000602082840312156140cc576140cb614c92565b5b60006140da84828501613ec3565b91505092915050565b6000602082840312156140f9576140f8614c92565b5b600061410784828501613f06565b91505092915050565b60006020828403121561412657614125614c92565b5b600061413484828501613f1b565b91505092915050565b60006020828403121561415357614152614c92565b5b600061416184828501613f30565b91505092915050565b6000806040838503121561418157614180614c92565b5b600061418f85828601613f30565b92505060206141a085828601613f30565b9150509250929050565b6141b381614a94565b82525050565b6141c281614aa6565b82525050565b60006141d38261494d565b6141dd8185614963565b93506141ed818560208601614b92565b80840191505092915050565b61420281614b05565b82525050565b61421181614b17565b82525050565b61422081614b29565b82525050565b61422f81614ac4565b82525050565b61423e81614ac4565b82525050565b61424d81614b3b565b82525050565b61425c81614b4d565b82525050565b600061426d82614958565b614277818561496e565b9350614287818560208601614b92565b61429081614c97565b840191505092915050565b60006142a860358361496e565b91506142b382614ca8565b604082019050919050565b60006142cb602f8361496e565b91506142d682614cf7565b604082019050919050565b60006142ee602c8361496e565b91506142f982614d46565b604082019050919050565b6000614311602c8361496e565b915061431c82614d95565b604082019050919050565b6000614334602e8361496e565b915061433f82614de4565b604082019050919050565b600061435760188361496e565b915061436282614e33565b602082019050919050565b600061437a602f8361496e565b915061438582614e5c565b604082019050919050565b600061439d60168361496e565b91506143a882614eab565b602082019050919050565b60006143c060118361496e565b91506143cb82614ed4565b602082019050919050565b60006143e3602d8361496e565b91506143ee82614efd565b604082019050919050565b6000614406603e8361496e565b915061441182614f4c565b604082019050919050565b6000614429603c8361496e565b915061443482614f9b565b604082019050919050565b600061444c60268361496e565b915061445782614fea565b604082019050919050565b600061446f60118361496e565b915061447a82615039565b602082019050919050565b600061449260198361496e565b915061449d82615062565b602082019050919050565b60006144b5601f8361496e565b91506144c08261508b565b602082019050919050565b8082525050565b6144db81614aee565b82525050565b60006144ed82846141c8565b915081905092915050565b600060208201905061450d60008301846141aa565b92915050565b600060408201905061452860008301856141aa565b61453560208301846141aa565b9392505050565b600060608201905061455160008301866141aa565b61455e60208301856141aa565b61456b60408301846144d2565b949350505050565b600060408201905061458860008301856141aa565b61459560208301846144d2565b9392505050565b60006060820190506145b160008301866141aa565b6145be60208301856144d2565b6145cb6040830184614253565b949350505050565b60006020820190506145e860008301846141b9565b92915050565b600060208201905061460360008301846141f9565b92915050565b600060208201905061461e6000830184614208565b92915050565b60006020820190506146396000830184614217565b92915050565b60006020820190506146546000830184614226565b92915050565b600060208201905081810360008301526146748184614262565b905092915050565b600060208201905081810360008301526146958161429b565b9050919050565b600060208201905081810360008301526146b5816142be565b9050919050565b600060208201905081810360008301526146d5816142e1565b9050919050565b600060208201905081810360008301526146f581614304565b9050919050565b6000602082019050818103600083015261471581614327565b9050919050565b600060208201905081810360008301526147358161434a565b9050919050565b600060208201905081810360008301526147558161436d565b9050919050565b6000602082019050818103600083015261477581614390565b9050919050565b60006020820190508181036000830152614795816143b3565b9050919050565b600060208201905081810360008301526147b5816143d6565b9050919050565b600060208201905081810360008301526147d5816143f9565b9050919050565b600060208201905081810360008301526147f58161441c565b9050919050565b600060208201905081810360008301526148158161443f565b9050919050565b6000602082019050818103600083015261483581614462565b9050919050565b6000602082019050818103600083015261485581614485565b9050919050565b60006020820190508181036000830152614875816144a8565b9050919050565b600060608201905061489160008301866144cb565b61489e6020830185614235565b6148ab6040830184614235565b949350505050565b60006040820190506148c860008301856144cb565b6148d56020830184614244565b9392505050565b60006020820190506148f160008301846144d2565b92915050565b6000614901614912565b905061490d8282614bc5565b919050565b6000604051905090565b600067ffffffffffffffff82111561493757614936614c54565b5b61494082614c97565b9050602081019050919050565b600081519050919050565b600081519050919050565b600081905092915050565b600082825260208201905092915050565b600061498a82614aee565b915061499583614aee565b9250827fffffffffffffffffffffffffffffffffffffffffffffffffffffffffffffffff038211156149ca576149c9614bf6565b5b828201905092915050565b60006149e082614aee565b91506149eb83614aee565b9250826149fb576149fa614c25565b5b828204905092915050565b6000614a1182614aee565b9150614a1c83614aee565b9250817fffffffffffffffffffffffffffffffffffffffffffffffffffffffffffffffff0483118215151615614a5557614a54614bf6565b5b828202905092915050565b6000614a6b82614aee565b9150614a7683614aee565b925082821015614a8957614a88614bf6565b5b828203905092915050565b6000614a9f82614ace565b9050919050565b60008115159050919050565b6000614abd82614a94565b9050919050565b6000819050919050565b600073ffffffffffffffffffffffffffffffffffffffff82169050919050565b6000819050919050565b600060ff82169050919050565b6000614b1082614b5f565b9050919050565b6000614b2282614b5f565b9050919050565b6000614b3482614b5f565b9050919050565b6000614b4682614af8565b9050919050565b6000614b5882614aee565b9050919050565b6000614b6a82614b71565b9050919050565b6000614b7c82614ace565b9050919050565b82818337600083830152505050565b60005b83811015614bb0578082015181840152602081019050614b95565b83811115614bbf576000848401525b50505050565b614bce82614c97565b810181811067ffffffffffffffff82111715614bed57614bec614c54565b5b80604052505050565b7f4e487b7100000000000000000000000000000000000000000000000000000000600052601160045260246000fd5b7f4e487b7100000000000000000000000000000000000000000000000000000000600052601260045260246000fd5b7f4e487b7100000000000000000000000000000000000000000000000000000000600052604160045260246000fd5b600080fd5b600080fd5b600080fd5b600080fd5b6000601f19601f8301169050919050565b7f596f75206d757374206265206e6f6d696e61746564206265666f726520796f7560008201527f2063616e20616363657074206f776e6572736869700000000000000000000000602082015250565b7f45524331393637557067726164653a207570677261646520627265616b73206660008201527f7572746865722075706772616465730000000000000000000000000000000000602082015250565b7f46756e6374696f6e206d7573742062652063616c6c6564207468726f7567682060008201527f64656c656761746563616c6c0000000000000000000000000000000000000000602082015250565b7f46756e6374696f6e206d7573742062652063616c6c6564207468726f7567682060008201527f6163746976652070726f78790000000000000000000000000000000000000000602082015250565b7f496e697469616c697a61626c653a20636f6e747261637420697320616c72656160008201527f647920696e697469616c697a6564000000000000000000000000000000000000602082015250565b7f464545535f504149445f5341464554595f4d494e494d554d0000000000000000600082015250565b7f4f6e6c792074686520636f6e7472616374206f776e6572206d6179207065726660008201527f6f726d207468697320616374696f6e0000000000000000000000000000000000602082015250565b7f5354414b494e475f5341464554595f4d494e494d554d00000000000000000000600082015250565b7f43616e6e6f742077697468647261772030000000000000000000000000000000600082015250565b7f455243313936373a206e657720696d706c656d656e746174696f6e206973206e60008201527f6f74206120636f6e747261637400000000000000000000000000000000000000602082015250565b7f7374616b696e6720746f6b656e2061646472657373206e6f7420657175616c2060008201527f746f20526577617264457363726f77204b57454e544120616464726573730000602082015250565b7f5468697320616374696f6e2063616e6e6f7420626520706572666f726d65642060008201527f7768696c652074686520636f6e74726163742069732070617573656400000000602082015250565b7f416464726573733a2064656c65676174652063616c6c20746f206e6f6e2d636f60008201527f6e74726163740000000000000000000000000000000000000000000000000000602082015250565b7f4f776e6572206d75737420626520736574000000000000000000000000000000600082015250565b7f4f776e657220616464726573732063616e6e6f74206265203000000000000000600082015250565b7f5265656e7472616e637947756172643a207265656e7472616e742063616c6c00600082015250565b6150bd81614a94565b81146150c857600080fd5b50565b6150d481614aa6565b81146150df57600080fd5b50565b6150eb81614ab2565b81146150f657600080fd5b50565b61510281614ac4565b811461510d57600080fd5b50565b61511981614aee565b811461512457600080fd5b5056fe416464726573733a206c6f772d6c6576656c2064656c65676174652063616c6c206661696c6564a2646970667358221220dd6ec5f0a00456716a0ee073e9892ff399c330700d5bcf8163cba0200a3821a564736f6c63430008070033",
  "devdoc": {
    "kind": "dev",
    "methods": {
      "setPaused(bool)": {
        "details": "Only the contract owner may call this."
      },
      "setPercentageRewards(uint256,uint256)": {
        "details": "Only the owner can use this function and parameters should be in base 10_000 (80% = 8_000)",
        "params": {
          "_percentageStaking": "the % of rewards to distribute to staking scores",
          "_percentageTrading": "the % of rewards to distribute to reward scores"
        }
      },
      "setWeeklyStartRewards(uint256)": {
        "details": "As UNIX times started on a Thursday (January 1st 1970), shift n days as necessary, e.g. to start on a Monday go 3 days prior (Wednesday, Tuesday, Monday), the remaining options are: Friday: 6 Saturday: 5 Sunday: 4  Monday: 3 Tuesday: 2 Wednesday: 1 Thursday: 0",
        "params": {
          "newWeeklyStart": "the number of days to shift"
        }
      },
      "upgradeTo(address)": {
        "details": "Upgrade the implementation of the proxy to `newImplementation`. Calls {_authorizeUpgrade}. Emits an {Upgraded} event."
      },
      "upgradeToAndCall(address,bytes)": {
        "details": "Upgrade the implementation of the proxy to `newImplementation`, and subsequently execute the function call encoded in `data`. Calls {_authorizeUpgrade}. Emits an {Upgraded} event."
      }
    },
    "version": 1
  },
  "userdoc": {
    "kind": "user",
    "methods": {
      "setPaused(bool)": {
        "notice": "Change the paused state of the contract"
      },
      "setPercentageRewards(uint256,uint256)": {
        "notice": "Set the % distribution between staking and trading"
      },
      "setWeeklyStartRewards(uint256)": {
        "notice": "Set the day of the week the reward epochs start"
      }
    },
    "version": 1
  },
  "storageLayout": {
    "storage": [
      {
        "astId": 413,
        "contract": "contracts/StakingRewards.sol:StakingRewards",
        "label": "_initialized",
        "offset": 0,
        "slot": "0",
        "type": "t_bool"
      },
      {
        "astId": 416,
        "contract": "contracts/StakingRewards.sol:StakingRewards",
        "label": "_initializing",
        "offset": 1,
        "slot": "0",
        "type": "t_bool"
      },
      {
        "astId": 578,
        "contract": "contracts/StakingRewards.sol:StakingRewards",
        "label": "_status",
        "offset": 0,
        "slot": "1",
        "type": "t_uint256"
      },
      {
        "astId": 621,
        "contract": "contracts/StakingRewards.sol:StakingRewards",
        "label": "__gap",
        "offset": 0,
        "slot": "2",
        "type": "t_array(t_uint256)49_storage"
      },
      {
        "astId": 10202,
        "contract": "contracts/StakingRewards.sol:StakingRewards",
        "label": "owner",
        "offset": 0,
        "slot": "51",
        "type": "t_address"
      },
      {
        "astId": 10204,
        "contract": "contracts/StakingRewards.sol:StakingRewards",
        "label": "nominatedOwner",
        "offset": 0,
        "slot": "52",
        "type": "t_address"
      },
      {
        "astId": 10315,
        "contract": "contracts/StakingRewards.sol:StakingRewards",
        "label": "lastPauseTime",
        "offset": 0,
        "slot": "53",
        "type": "t_uint256"
      },
      {
        "astId": 10317,
        "contract": "contracts/StakingRewards.sol:StakingRewards",
        "label": "paused",
        "offset": 0,
        "slot": "54",
        "type": "t_bool"
      },
      {
        "astId": 396,
        "contract": "contracts/StakingRewards.sol:StakingRewards",
        "label": "__gap",
        "offset": 0,
        "slot": "55",
        "type": "t_array(t_uint256)50_storage"
      },
      {
        "astId": 563,
        "contract": "contracts/StakingRewards.sol:StakingRewards",
        "label": "__gap",
        "offset": 0,
        "slot": "105",
        "type": "t_array(t_uint256)50_storage"
      },
      {
        "astId": 5115,
        "contract": "contracts/StakingRewards.sol:StakingRewards",
        "label": "fixidity",
        "offset": 0,
        "slot": "155",
        "type": "t_struct(Fixidity)8339_storage"
      },
      {
        "astId": 5118,
        "contract": "contracts/StakingRewards.sol:StakingRewards",
        "label": "rewardEscrow",
        "offset": 0,
        "slot": "160",
        "type": "t_contract(RewardEscrow)5084"
      },
      {
        "astId": 5121,
        "contract": "contracts/StakingRewards.sol:StakingRewards",
        "label": "supplySchedule",
        "offset": 0,
        "slot": "161",
        "type": "t_contract(ISupplySchedule)7717"
      },
      {
        "astId": 5123,
        "contract": "contracts/StakingRewards.sol:StakingRewards",
        "label": "exchangerProxy",
        "offset": 0,
        "slot": "162",
        "type": "t_address"
      },
      {
        "astId": 5126,
        "contract": "contracts/StakingRewards.sol:StakingRewards",
        "label": "stakingToken",
        "offset": 0,
        "slot": "163",
        "type": "t_contract(IERC20)7186"
      },
      {
        "astId": 5128,
        "contract": "contracts/StakingRewards.sol:StakingRewards",
        "label": "periodFinish",
        "offset": 0,
        "slot": "164",
        "type": "t_uint256"
      },
      {
        "astId": 5130,
        "contract": "contracts/StakingRewards.sol:StakingRewards",
        "label": "weeklyStartRewards",
        "offset": 0,
        "slot": "165",
        "type": "t_uint256"
      },
      {
        "astId": 5132,
        "contract": "contracts/StakingRewards.sol:StakingRewards",
        "label": "rewardRate",
        "offset": 0,
        "slot": "166",
        "type": "t_uint256"
      },
      {
        "astId": 5134,
        "contract": "contracts/StakingRewards.sol:StakingRewards",
        "label": "rewardRateStaking",
        "offset": 0,
        "slot": "167",
        "type": "t_uint256"
      },
      {
        "astId": 5136,
        "contract": "contracts/StakingRewards.sol:StakingRewards",
        "label": "rewardRateTrading",
        "offset": 0,
        "slot": "168",
        "type": "t_uint256"
      },
      {
        "astId": 5138,
        "contract": "contracts/StakingRewards.sol:StakingRewards",
        "label": "lastUpdateTime",
        "offset": 0,
        "slot": "169",
        "type": "t_uint256"
      },
      {
        "astId": 5140,
        "contract": "contracts/StakingRewards.sol:StakingRewards",
        "label": "rewardPerTokenStored",
        "offset": 0,
        "slot": "170",
        "type": "t_uint256"
      },
      {
        "astId": 5142,
        "contract": "contracts/StakingRewards.sol:StakingRewards",
        "label": "currentEpoch",
        "offset": 0,
        "slot": "171",
        "type": "t_uint256"
      },
      {
        "astId": 5146,
        "contract": "contracts/StakingRewards.sol:StakingRewards",
        "label": "lastTradeUserEpoch",
        "offset": 0,
        "slot": "172",
        "type": "t_mapping(t_address,t_uint256)"
      },
      {
        "astId": 5150,
        "contract": "contracts/StakingRewards.sol:StakingRewards",
        "label": "epochRewardPerRewardScore",
        "offset": 0,
        "slot": "173",
        "type": "t_mapping(t_uint256,t_uint256)"
      },
      {
        "astId": 5154,
        "contract": "contracts/StakingRewards.sol:StakingRewards",
        "label": "userRewardPerTokenPaid",
        "offset": 0,
        "slot": "174",
        "type": "t_mapping(t_address,t_uint256)"
      },
      {
        "astId": 5158,
        "contract": "contracts/StakingRewards.sol:StakingRewards",
        "label": "rewards",
        "offset": 0,
        "slot": "175",
        "type": "t_mapping(t_address,t_uint256)"
      },
      {
        "astId": 5160,
        "contract": "contracts/StakingRewards.sol:StakingRewards",
        "label": "_totalRewardScore",
        "offset": 0,
        "slot": "176",
        "type": "t_uint256"
      },
      {
        "astId": 5162,
        "contract": "contracts/StakingRewards.sol:StakingRewards",
        "label": "_totalSupply",
        "offset": 0,
        "slot": "177",
        "type": "t_uint256"
      },
      {
        "astId": 5166,
        "contract": "contracts/StakingRewards.sol:StakingRewards",
        "label": "_escrowedBalances",
        "offset": 0,
        "slot": "178",
        "type": "t_mapping(t_address,t_uint256)"
      },
      {
        "astId": 5170,
        "contract": "contracts/StakingRewards.sol:StakingRewards",
        "label": "_feesPaid",
        "offset": 0,
        "slot": "179",
        "type": "t_mapping(t_address,t_uint256)"
      },
      {
        "astId": 5174,
        "contract": "contracts/StakingRewards.sol:StakingRewards",
        "label": "_totalBalances",
        "offset": 0,
        "slot": "180",
        "type": "t_mapping(t_address,t_uint256)"
      },
      {
        "astId": 5178,
        "contract": "contracts/StakingRewards.sol:StakingRewards",
        "label": "_rewardScores",
        "offset": 0,
        "slot": "181",
        "type": "t_mapping(t_address,t_uint256)"
      },
      {
        "astId": 5180,
        "contract": "contracts/StakingRewards.sol:StakingRewards",
        "label": "PERCENTAGE_STAKING",
        "offset": 0,
        "slot": "182",
        "type": "t_uint256"
      },
      {
        "astId": 5182,
        "contract": "contracts/StakingRewards.sol:StakingRewards",
        "label": "PERCENTAGE_TRADING",
        "offset": 0,
        "slot": "183",
        "type": "t_uint256"
      },
      {
        "astId": 5193,
        "contract": "contracts/StakingRewards.sol:StakingRewards",
        "label": "WEIGHT_FEES",
        "offset": 0,
        "slot": "184",
        "type": "t_int256"
      },
      {
        "astId": 5195,
        "contract": "contracts/StakingRewards.sol:StakingRewards",
        "label": "WEIGHT_STAKING",
        "offset": 0,
        "slot": "185",
        "type": "t_int256"
      }
    ],
    "types": {
      "t_address": {
        "encoding": "inplace",
        "label": "address",
        "numberOfBytes": "20"
      },
      "t_array(t_uint256)49_storage": {
        "base": "t_uint256",
        "encoding": "inplace",
        "label": "uint256[49]",
        "numberOfBytes": "1568"
      },
      "t_array(t_uint256)50_storage": {
        "base": "t_uint256",
        "encoding": "inplace",
        "label": "uint256[50]",
        "numberOfBytes": "1600"
      },
      "t_bool": {
        "encoding": "inplace",
        "label": "bool",
        "numberOfBytes": "1"
      },
      "t_contract(IERC20)7186": {
        "encoding": "inplace",
        "label": "contract IERC20",
        "numberOfBytes": "20"
      },
      "t_contract(ISupplySchedule)7717": {
        "encoding": "inplace",
        "label": "contract ISupplySchedule",
        "numberOfBytes": "20"
      },
      "t_contract(RewardEscrow)5084": {
        "encoding": "inplace",
        "label": "contract RewardEscrow",
        "numberOfBytes": "20"
      },
      "t_int256": {
        "encoding": "inplace",
        "label": "int256",
        "numberOfBytes": "32"
      },
      "t_mapping(t_address,t_uint256)": {
        "encoding": "mapping",
        "key": "t_address",
        "label": "mapping(address => uint256)",
        "numberOfBytes": "32",
        "value": "t_uint256"
      },
      "t_mapping(t_uint256,t_uint256)": {
        "encoding": "mapping",
        "key": "t_uint256",
        "label": "mapping(uint256 => uint256)",
        "numberOfBytes": "32",
        "value": "t_uint256"
      },
      "t_struct(Fixidity)8339_storage": {
        "encoding": "inplace",
        "label": "struct FixidityLib.Fixidity",
        "members": [
          {
            "astId": 8330,
            "contract": "contracts/StakingRewards.sol:StakingRewards",
            "label": "digits",
            "offset": 0,
            "slot": "0",
            "type": "t_uint8"
          },
          {
            "astId": 8332,
            "contract": "contracts/StakingRewards.sol:StakingRewards",
            "label": "fixed_1",
            "offset": 0,
            "slot": "1",
            "type": "t_int256"
          },
          {
            "astId": 8334,
            "contract": "contracts/StakingRewards.sol:StakingRewards",
            "label": "fixed_e",
            "offset": 0,
            "slot": "2",
            "type": "t_int256"
          },
          {
            "astId": 8336,
            "contract": "contracts/StakingRewards.sol:StakingRewards",
            "label": "fixed_pi",
            "offset": 0,
            "slot": "3",
            "type": "t_int256"
          },
          {
            "astId": 8338,
            "contract": "contracts/StakingRewards.sol:StakingRewards",
            "label": "fixed_exp_10",
            "offset": 0,
            "slot": "4",
            "type": "t_int256"
          }
        ],
        "numberOfBytes": "160"
      },
      "t_uint256": {
        "encoding": "inplace",
        "label": "uint256",
        "numberOfBytes": "32"
      },
      "t_uint8": {
        "encoding": "inplace",
        "label": "uint8",
        "numberOfBytes": "1"
      }
    }
  }
}