{
  "address": "0x5FbDB2315678afecb367f032d93F642f64180aa3",
  "abi": [
    {
      "inputs": [
        {
          "internalType": "address",
          "name": "_owner",
          "type": "address"
        },
        {
          "internalType": "address",
          "name": "_token",
          "type": "address"
        }
      ],
      "stateMutability": "nonpayable",
      "type": "constructor"
    },
    {
      "anonymous": false,
      "inputs": [
        {
          "indexed": false,
          "internalType": "uint256",
          "name": "index",
          "type": "uint256"
        },
        {
          "indexed": false,
          "internalType": "address",
          "name": "account",
          "type": "address"
        },
        {
          "indexed": false,
          "internalType": "uint256",
          "name": "amount",
          "type": "uint256"
        },
        {
          "indexed": false,
          "internalType": "uint256",
          "name": "epoch",
          "type": "uint256"
        }
      ],
      "name": "Claimed",
      "type": "event"
    },
    {
      "anonymous": false,
      "inputs": [
        {
          "indexed": false,
          "internalType": "uint256",
          "name": "epoch",
          "type": "uint256"
        }
      ],
      "name": "MerkleRootModified",
      "type": "event"
    },
    {
      "anonymous": false,
      "inputs": [
        {
          "indexed": false,
          "internalType": "address",
          "name": "oldOwner",
          "type": "address"
        },
        {
          "indexed": false,
          "internalType": "address",
          "name": "newOwner",
          "type": "address"
        }
      ],
      "name": "OwnerChanged",
      "type": "event"
    },
    {
      "anonymous": false,
      "inputs": [
        {
          "indexed": false,
          "internalType": "address",
          "name": "newOwner",
          "type": "address"
        }
      ],
      "name": "OwnerNominated",
      "type": "event"
    },
    {
      "inputs": [],
      "name": "acceptOwnership",
      "outputs": [],
      "stateMutability": "nonpayable",
      "type": "function"
    },
    {
      "inputs": [
        {
          "internalType": "uint256",
          "name": "index",
          "type": "uint256"
        },
        {
          "internalType": "address",
          "name": "account",
          "type": "address"
        },
        {
          "internalType": "uint256",
          "name": "amount",
          "type": "uint256"
        },
        {
          "internalType": "bytes32[]",
          "name": "merkleProof",
          "type": "bytes32[]"
        },
        {
          "internalType": "uint256",
          "name": "epoch",
          "type": "uint256"
        }
      ],
      "name": "claim",
      "outputs": [],
      "stateMutability": "nonpayable",
      "type": "function"
    },
    {
      "inputs": [
        {
          "components": [
            {
              "internalType": "uint256",
              "name": "index",
              "type": "uint256"
            },
            {
              "internalType": "address",
              "name": "account",
              "type": "address"
            },
            {
              "internalType": "uint256",
              "name": "amount",
              "type": "uint256"
            },
            {
              "internalType": "bytes32[]",
              "name": "merkleProof",
              "type": "bytes32[]"
            },
            {
              "internalType": "uint256",
              "name": "epoch",
              "type": "uint256"
            }
          ],
          "internalType": "struct IMultipleMerkleDistributor.Claims[]",
          "name": "claims",
          "type": "tuple[]"
        }
      ],
      "name": "claimMultiple",
      "outputs": [],
      "stateMutability": "nonpayable",
      "type": "function"
    },
    {
      "inputs": [
        {
          "internalType": "uint256",
          "name": "index",
          "type": "uint256"
        },
        {
          "internalType": "uint256",
          "name": "epoch",
          "type": "uint256"
        }
      ],
      "name": "isClaimed",
      "outputs": [
        {
          "internalType": "bool",
          "name": "",
          "type": "bool"
        }
      ],
      "stateMutability": "view",
      "type": "function"
    },
    {
      "inputs": [
        {
          "internalType": "uint256",
          "name": "",
          "type": "uint256"
        }
      ],
      "name": "merkleRoots",
      "outputs": [
        {
          "internalType": "bytes32",
          "name": "",
          "type": "bytes32"
        }
      ],
      "stateMutability": "view",
      "type": "function"
    },
    {
      "inputs": [
        {
          "internalType": "address",
          "name": "_owner",
          "type": "address"
        }
      ],
      "name": "nominateNewOwner",
      "outputs": [],
      "stateMutability": "nonpayable",
      "type": "function"
    },
    {
      "inputs": [],
      "name": "nominatedOwner",
      "outputs": [
        {
          "internalType": "address",
          "name": "",
          "type": "address"
        }
      ],
      "stateMutability": "view",
      "type": "function"
    },
    {
      "inputs": [],
      "name": "owner",
      "outputs": [
        {
          "internalType": "address",
          "name": "",
          "type": "address"
        }
      ],
      "stateMutability": "view",
      "type": "function"
    },
    {
      "inputs": [
        {
          "internalType": "bytes32",
          "name": "merkleRoot",
          "type": "bytes32"
        },
        {
          "internalType": "uint256",
          "name": "epoch",
          "type": "uint256"
        }
      ],
      "name": "setMerkleRootForEpoch",
      "outputs": [],
      "stateMutability": "nonpayable",
      "type": "function"
    },
    {
      "inputs": [],
      "name": "token",
      "outputs": [
        {
          "internalType": "address",
          "name": "",
          "type": "address"
        }
      ],
      "stateMutability": "view",
      "type": "function"
    }
  ],
  "numDeployments": 1,
  "solcInputHash": "d555d26ac0da219695b289ac115a6830",
  "bytecode": "0x60a060405234801561001057600080fd5b50604051610d21380380610d2183398101604081905261002f91610114565b816001600160a01b03811661008a5760405162461bcd60e51b815260206004820152601960248201527f4f776e657220616464726573732063616e6e6f74206265203000000000000000604482015260640160405180910390fd5b600080546001600160a01b0319166001600160a01b03831690811782556040805192835260208301919091527fb532073b38c83145e3e5135377a08bf9aab55bc0fd7c1179cd4fb995d2a5159c910160405180910390a15060601b6001600160601b03191660805250610147565b80516001600160a01b038116811461010f57600080fd5b919050565b6000806040838503121561012757600080fd5b610130836100f8565b915061013e602084016100f8565b90509250929050565b60805160601c610bb561016c600039600081816101b2015261060d0152610bb56000f3fe608060405234801561001057600080fd5b50600436106100be5760003560e01c8063ab5943db11610076578063d0b55e8c1161005b578063d0b55e8c14610177578063f364c90c1461018a578063fc0c546a146101ad57600080fd5b8063ab5943db14610151578063c02bb7ba1461016457600080fd5b806371c5ecb1116100a757806371c5ecb11461010857806379ba5097146101365780638da5cb5b1461013e57600080fd5b80631627540c146100c357806353a47bb7146100d8575b600080fd5b6100d66100d1366004610967565b6101d4565b005b6001546100eb906001600160a01b031681565b6040516001600160a01b0390911681526020015b60405180910390f35b610128610116366004610a0f565b60026020526000908152604090205481565b6040519081526020016100ff565b6100d661023d565b6000546100eb906001600160a01b031681565b6100d661015f366004610989565b610341565b6100d6610172366004610a28565b61043f565b6100d66101853660046109ed565b6106e3565b61019d6101983660046109ed565b61073a565b60405190151581526020016100ff565b6100eb7f000000000000000000000000000000000000000000000000000000000000000081565b6101dc610785565b6001805473ffffffffffffffffffffffffffffffffffffffff19166001600160a01b0383169081179091556040519081527f906a1c6bd7e3091ea86693dd029a831c19049ce77f1dce2ce0bab1cacbabce229060200160405180910390a150565b6001546001600160a01b031633146102c25760405162461bcd60e51b815260206004820152603560248201527f596f75206d757374206265206e6f6d696e61746564206265666f726520796f7560448201527f2063616e20616363657074206f776e657273686970000000000000000000000060648201526084015b60405180910390fd5b600054600154604080516001600160a01b0393841681529290911660208301527fb532073b38c83145e3e5135377a08bf9aab55bc0fd7c1179cd4fb995d2a5159c910160405180910390a1600180546000805473ffffffffffffffffffffffffffffffffffffffff199081166001600160a01b03841617909155169055565b8060005b818110156104395761043184848381811061036257610362610b69565b90506020028101906103749190610ae2565b3585858481811061038757610387610b69565b90506020028101906103999190610ae2565b6103aa906040810190602001610967565b8686858181106103bc576103bc610b69565b90506020028101906103ce9190610ae2565b604001358787868181106103e4576103e4610b69565b90506020028101906103f69190610ae2565b610404906060810190610a98565b89898881811061041657610416610b69565b90506020028101906104289190610ae2565b6080013561043f565b600101610345565b50505050565b610449868261073a565b156104bc5760405162461bcd60e51b815260206004820152603060248201527f4d756c7469706c654d65726b6c654469737472696275746f723a2044726f702060448201527f616c726561647920636c61696d65642e0000000000000000000000000000000060648201526084016102b9565b60408051602081018890526bffffffffffffffffffffffff19606088901b16918101919091526054810185905260009060740160405160208183030381529060405280519060200120905061055284848080602002602001604051908101604052809392919081815260200183836020028082843760009201829052508781526002602052604090205492508591506108079050565b6105c45760405162461bcd60e51b815260206004820152602960248201527f4d756c7469706c654d65726b6c654469737472696275746f723a20496e76616c60448201527f69642070726f6f662e000000000000000000000000000000000000000000000060648201526084016102b9565b6105ce87836108b6565b6040517fa9059cbb0000000000000000000000000000000000000000000000000000000081526001600160a01b038781166004830152602482018790527f0000000000000000000000000000000000000000000000000000000000000000169063a9059cbb90604401602060405180830381600087803b15801561065157600080fd5b505af1158015610665573d6000803e3d6000fd5b505050506040513d601f19601f8201168201806040525081019061068991906109cb565b50604080518881526001600160a01b0388166020820152908101869052606081018390527fd9cb1e2714d65a111c0f20f060176ad657496bd47a3de04ec7c3d4ca232112ac9060800160405180910390a150505050505050565b6106eb610785565b60008181526002602052604090819020839055517f7835b531ba83151bc18466c9b0ab4b168056cb422098530a34952b03f87ba5199061072e9083815260200190565b60405180910390a15050565b60008061074961010085610b02565b9050600061075961010086610b3f565b60009485526003602090815260408087209487529390529190932054600190911b908116149392505050565b6000546001600160a01b031633146108055760405162461bcd60e51b815260206004820152602f60248201527f4f6e6c792074686520636f6e7472616374206f776e6572206d6179207065726660448201527f6f726d207468697320616374696f6e000000000000000000000000000000000060648201526084016102b9565b565b600081815b85518110156108ab57600086828151811061082957610829610b69565b6020026020010151905080831161086b576040805160208101859052908101829052606001604051602081830303815290604052805190602001209250610898565b60408051602081018390529081018490526060016040516020818303038152906040528051906020012092505b50806108a381610b16565b91505061080c565b509092149392505050565b60006108c461010084610b02565b905060006108d461010085610b3f565b6000938452600360209081526040808620948652939052919092208054600190921b90911790555050565b80356001600160a01b038116811461091657600080fd5b919050565b60008083601f84011261092d57600080fd5b50813567ffffffffffffffff81111561094557600080fd5b6020830191508360208260051b850101111561096057600080fd5b9250929050565b60006020828403121561097957600080fd5b610982826108ff565b9392505050565b6000806020838503121561099c57600080fd5b823567ffffffffffffffff8111156109b357600080fd5b6109bf8582860161091b565b90969095509350505050565b6000602082840312156109dd57600080fd5b8151801515811461098257600080fd5b60008060408385031215610a0057600080fd5b50508035926020909101359150565b600060208284031215610a2157600080fd5b5035919050565b60008060008060008060a08789031215610a4157600080fd5b86359550610a51602088016108ff565b945060408701359350606087013567ffffffffffffffff811115610a7457600080fd5b610a8089828a0161091b565b979a9699509497949695608090950135949350505050565b6000808335601e19843603018112610aaf57600080fd5b83018035915067ffffffffffffffff821115610aca57600080fd5b6020019150600581901b360382131561096057600080fd5b60008235609e19833603018112610af857600080fd5b9190910192915050565b600082610b1157610b11610b53565b500490565b6000600019821415610b3857634e487b7160e01b600052601160045260246000fd5b5060010190565b600082610b4e57610b4e610b53565b500690565b634e487b7160e01b600052601260045260246000fd5b634e487b7160e01b600052603260045260246000fdfea2646970667358221220ad1709aafb24b20fb811f0139f79cb22565827c0c6261fa80b37adcb63014d4c64736f6c63430008070033",
  "devdoc": {
    "author": "JaredBorders and JChiaramonte7",
    "kind": "dev",
    "methods": {
      "claim(uint256,address,uint256,bytes32[],uint256)": {
        "params": {
          "account": ": address used for escrow entry",
          "amount": ": token amount to be escrowed",
          "epoch": ": distribution index to check",
          "index": ": used for merkle tree managment and verification",
          "merkleProof": ": off-chain generated proof of merkle tree inclusion"
        }
      },
      "claimMultiple((uint256,address,uint256,bytes32[],uint256)[])": {
        "params": {
          "claims": ": array of valid claims"
        }
      },
      "constructor": {
        "params": {
          "_owner": ": designated owner of this contract",
          "_token": ": address of erc20 token to be distributed"
        }
      },
      "isClaimed(uint256,uint256)": {
        "params": {
          "epoch": ": distribution index to check",
          "index": ": used for claim managment"
        },
        "returns": {
          "_0": "true if indexed claim has been claimed"
        }
      }
    },
    "title": "Kwenta MultipleMerkleDistributor",
    "version": 1
  },
  "userdoc": {
    "events": {
      "Claimed(uint256,address,uint256,uint256)": {
        "notice": "event is triggered whenever a call to `claim` succeeds"
      },
      "MerkleRootModified(uint256)": {
        "notice": "event is triggered whenever a merkle root is set"
      }
    },
    "kind": "user",
    "methods": {
      "claim(uint256,address,uint256,bytes32[],uint256)": {
        "notice": "attempt to claim as `account` and transfer `amount` to `account`"
      },
      "claimMultiple((uint256,address,uint256,bytes32[],uint256)[])": {
        "notice": "function that aggregates multiple claims"
      },
      "constructor": {
        "notice": "set addresses ERC20 contract Establish merkle root for verification"
      },
      "isClaimed(uint256,uint256)": {
        "notice": "determine if indexed claim has been claimed"
      },
      "merkleRoots(uint256)": {
        "notice": "an epoch to merkle root mapping of a merkle tree containing account balances available to claim"
      },
      "setMerkleRootForEpoch(bytes32,uint256)": {
        "notice": "modify merkle root for existing distribution epoch"
      },
      "token()": {
        "notice": "token to be distributed"
      }
    },
    "notice": "Facilitates trading incentives distribution over multiple periods.",
    "version": 1
  },
  "storageLayout": {
    "storage": [
      {
        "astId": 2422,
        "contract": "contracts/MultipleMerkleDistributor.sol:MultipleMerkleDistributor",
        "label": "owner",
        "offset": 0,
        "slot": "0",
        "type": "t_address"
      },
      {
        "astId": 2424,
        "contract": "contracts/MultipleMerkleDistributor.sol:MultipleMerkleDistributor",
        "label": "nominatedOwner",
        "offset": 0,
        "slot": "1",
        "type": "t_address"
      },
      {
        "astId": 653,
        "contract": "contracts/MultipleMerkleDistributor.sol:MultipleMerkleDistributor",
        "label": "merkleRoots",
        "offset": 0,
        "slot": "2",
        "type": "t_mapping(t_uint256,t_bytes32)"
      },
      {
        "astId": 660,
        "contract": "contracts/MultipleMerkleDistributor.sol:MultipleMerkleDistributor",
        "label": "claimedBitMaps",
        "offset": 0,
        "slot": "3",
        "type": "t_mapping(t_uint256,t_mapping(t_uint256,t_uint256))"
      }
    ],
    "types": {
      "t_address": {
        "encoding": "inplace",
        "label": "address",
        "numberOfBytes": "20"
      },
      "t_bytes32": {
        "encoding": "inplace",
        "label": "bytes32",
        "numberOfBytes": "32"
      },
      "t_mapping(t_uint256,t_bytes32)": {
        "encoding": "mapping",
        "key": "t_uint256",
        "label": "mapping(uint256 => bytes32)",
        "numberOfBytes": "32",
        "value": "t_bytes32"
      },
      "t_mapping(t_uint256,t_mapping(t_uint256,t_uint256))": {
        "encoding": "mapping",
        "key": "t_uint256",
        "label": "mapping(uint256 => mapping(uint256 => uint256))",
        "numberOfBytes": "32",
        "value": "t_mapping(t_uint256,t_uint256)"
      },
      "t_mapping(t_uint256,t_uint256)": {
        "encoding": "mapping",
        "key": "t_uint256",
        "label": "mapping(uint256 => uint256)",
        "numberOfBytes": "32",
        "value": "t_uint256"
      },
      "t_uint256": {
        "encoding": "inplace",
        "label": "uint256",
        "numberOfBytes": "32"
      }
    }
  }
}